:10094D006300700076007200640061007300660041
:05095D00410001000053
:100545007BFF7A09795574FF78A0F2082278941216
:1005550004B3020391E2FE08E2FF08E2FC08E2FDB3
:10056500C39FEC9E2274FFFFFE1209DD1207FDD228
:10057500B7D2B6227BFF78A07401F20874F4227812
:1005850097E2FE08E2FF78941204B37899E222EE2E
:10059500F208EFF2080204BCE22401F218E234008A
:1005A500F222E2FC08E2F5828C8322E22DFF18E2BA
:0A05B5003CFE22D2B57F647E0022D6
:060884007893E2FF7E0004
:10088A00EF30E003C38001D392B2EF30E103C380BB
:0F089A0001D392B3EF30E203C38001D392B422B3
:0709DD00EFF580EEF590221A
:0307FD008FA022A8
:0309FC00AFA02287
:0909BC0012056A1205B8020835A3
:0609E40012056AC2B522F3
:0F0931007DAA7455FFFE1209407D557FAA7E2ACC
:0D0940001209DDAF051207FDC2B7D2B722C4
:0609EA001205B8020835F9
:0609F00012056AC2B522E7
:100003001209DD7FFF1207FDC2B61209FF1209FCB8
:0D00130078A4EFF2D2B61209FF78A4E2FF44
:0100200022BD
:0609F6001205B8020835ED
:0C0998001209317DA07455FFFE020940D9
:100914001209317D807455FFFE1209407DAA745579
:0D092400FF1209377D207455FFFE020940C7
:05075600789B120594E0
:10075B001209E4120914E478A2F208F278A0120547
:10076B005A501D789C1205B0789D1204B378A212D2
:10077B0005A71203AAFD12094078A312059D80DC80
:03078B000209EA76
:0506DC00789B1205945B
:1006E1001209F0E478A2F208F278A012055A502219
:1006F100789C1205B0120003789D1204B378A212FF
:1007010005A71203AA6F60037F002278A312059D3B
:0707110080D71209F67FFFFB
:0107180022BE
:05080000789B12059435
:100805001209F0E478A2F208F278A012055A501DF8
:10081500789C1205B0120003789D1204B378A212D9
:1008250005A7EF1203D778A312059D80DC0209F610
:1004C500780012048E7800120475780812044FE43F
:1004D500FFE4FDFCC004C005C006C0077800120497
:1004E50075781812044FE4FEFDFCD003D002D0014C
:1004F500D000120431C004C005C006C00778001240
:1005050004757808120462E4FFFEE4FCD003D0020F
:10051500D001D000120431C004C005C006C0077860
:10052500001204757818120462E4FFFEED54F0FD24
:10053500EC540FFCD003D002D001D00012043122BC
:060989001203F9FFAEF0BD
:09098F00AD07EDFAEEFFEAFE22CD
:1006800078047C007DFE7BFF7A09795D7E007F0522
:1006900012036B78051204751204C5780912048ED2
:1006A000780912049A00000000E4FF7E04FDFC7843
:1006B00009120481C312043E5021780912047512F4
:1006C00009DD7809120475EF2401FFE43EFEE43DE4
:0B06D000FDE43CFC780912048E80CE93
:0106DB0022FC
:10002600E47893F2FBFAF9081204BC7893E2FFB481
:10003600080050F790004025E07301500163017BF2
:1000460001CB210B213F21C621CB7E0012088A7FDE
:10005600807E2512085D78937401F280CE120241EB
:10006600120391B443097A09794D12023001C4E4AE
:100076007893F280B6120241120391B450097A09BC
:10008600794F1205792101120552B456097A097978
:10009600511205792131120552B452117BFF7A09AA
:1000A600795312057B1202747405F201311205525E
:1000B600B4440B7B007A00796412057B215978934E
:0500C6007402F201319B
:1000CB00120215B44405120545215912055264411B
:1000DB00705E1201D012025908E2FD08E278A0CD41
:1000EB00F208EDF212075612058412028A600F7A9B
:1000FB0009795912054B1202747403F2013121B0C4
:10010B00120215B4440512054521591205526441DA
:10011B00701E1201D012025908E212028A600F7A85
:10012B0009795912054B12027F7404F2013121B087
:02013B007BFF48
:02013D0021B0EF
:10013F0012088474FFFDFC7F0512071978941204CE
:10014F00BC120391B4440B12054512027F7407F2DF
:10015F0001311205526441704690000112098978ED
:10016F0097EEF208EFF278941204B390000312099D
:10017F00897899EEF208EFF27A0979571202301264
:10018F000584FD08E278A0CDF208EDF21208001206
:10019F00058BFC08E2FD12054BF212078E01317B35
:1001AF00FF7A09795B12054BF27D017C0012078EF5
:0501BF0078937406F2C4
:0C01C4000131120884013112088401315D
:1001D00078941204B39000011203F9FFAEF01209F3
:1001E0008F7897EEF208EFF278941204B390000340
:1001F0001203F9FFAEF012098F7899EEF208EFF2D0
:100200007BFF7A09795774FF78A0F208F27D017CB0
:100210000012078E227893E2FF7E0012088A74FF94
:10022000FDFC7F0512071978941204BC1203912279
:100230007BFF74FF78A0F208F27D017C0012078E2C
:10024000227893E2FF7E0012088A74FFFDFC7F0192
:1002500012071978941204BC227899E2FE08E2FF92
:1002600074FFFDFC12071978941204BC7897E2FE23
:1002700008E2FF22F27D017C0012078E789322F2C1
:100280007D017C0012078E789322FD08E278A0CDD4
:0B029000F208EDF21206DCEF7BFF220B
:0809D500C3EF9480EE940022B0
:030023000205BF14
:1005BF00C0E0C0D075D000C000C0073098247811BB
:1005CF00E2701D780DE2FF04F274132FF8E599F233
:1005DF00780FE2FF780DE2C39F4005781174FFF2A8
:1005EF00C2983099247812E2701D780EE2FF04F25F
:1005FF0074132FF8E2F5997810E2FF780EE2C39F9B
:10060F004005781274FFF2C299D007D000D0D0D035
:02061F00E032C7
:1008A900E4FFFE2099FD1209D5500D74132FF8E4C9
:1008B900F20FBF00010E80EEE4780EF27810F278A4
:0408C9001274FFF2B4
:0108CD002208
:0C06210078A41204BC78A7ECF208EDF2FB
:10062D00E4FFFE7812E260FB2099F8C378A8E2940B
:10063D008018E294004006E4F2087480F2D378A8A2
:10064D00E29F18E29E401A78A41204B38F828E8323
:10065D001203AAFD74132FF8EDF20FBF00010E80E7
:10066D00DCE4780EF278A708E27810F2E47812F262
:02067D00D29910
:01067F002258
:0809C5002099FD7812E2FF22E7
:10078E00E478A2F208F21206211209C5EF70287859
:10079E00A0E2FE08E2FFF47002EEF460EC0808E25C
:1007AE00FD2401F218E2FC3400F2D3EF9DEC6480DC
:0707BE00F8EE64809850D2B0
:0107C5002211
:1008CE00E4FFFE2098FD1209D5500D0FEF70010EBA
:1008DE00142413F8E4F280EEE4780DF2780FF27837
:0408EE001174FFF290
:0108F20022E3
:1007C600E4FDFC7811E260FB2098F81209D540049C
:1007D6007E007F80C3ED9480EC9400500D0DED708B
:1007E600010C142413F8E4F280EAE4780DF2780F91
:0607F600EFF2E47811F2BD
:0107FC0022DA
:0809CD002098FD7811E2FF22E1
:04071900AB05AA047E
:10071D00E4789BF208F21207C61209CDEF7023EBB5
:10072D00F47002EAF460F2789B08E2FF2401F218FB
:10073D00E2FE3400F2C3EF9BEA6480F8EE64809829
:08074D0040D77BFE7A0079130E
:010755002281
:10085D00789BEEF208EFF21208A91208CE759850A7
:10086D00758920758780758DFA758BFAD2ACD2AFEC
:07087D00D28E7EFF7FFF22F7
:0309FF00000022D3
:09097700120980120980120980A6
:080980007F017E02DEFEDFFABA
:01098800224C
:0909620012096B12096B12096BFA
:0C096B0012097712098012097702098036
:0C09A40012096212096B12096202096B51
:1008F300EF64014E70020022E4FDFCC3ED9FEE6441
:1009030080F8EC6480985008000DBD00010C80EB6A
:0109130022C1
:04083500AD07AC0659
:10083900ED64014C70030209A4E4FBFAC3EB9DECDF
:100849006480F8EA648098500A1209A40BBB00017D
:030859000A80E929
:01085C002279
:030000000209B042
:0C09B000787FE4F6D8FD75810702002670
:10029B00E709F608DFFA8046E709F208DFFA803E45
:1002AB0088828C83E709F0A3DFFA8032E309F60832
:1002BB00DFFA8078E309F208DFFA807088828C839A
:1002CB00E309F0A3DFFA806489828A83E0A3F6084E
:1002DB00DFFA805889828A83E0A3F208DFFA804C28
:1002EB0080D280FA80C680D4806980F280338010FF
:1002FB0080A680EA809A80A880DA80E280CA803368
:10030B0089828A83ECFAE493A3C8C582C8CCC583DF
:10031B00CCF0A3C8C582C8CCC583CCDFE9DEE780AF
:10032B000D89828A83E493A3F608DFF9ECFAA9F02E
:10033B00EDFB2289828A83ECFAE0A3C8C582C8CC84
:10034B00C583CCF0A3C8C582C8CCC583CCDFEADE9D
:10035B00E880DB89828A83E493A3F208DFF980CCFF
:10036B0088F0EF60010E4E60C388F0ED2402B404F8
:10037B000050B9F582EB2402B4040050AF2323459F
:06038B0082239002EB73D7
:10039100BB010689828A83E0225002E722BBFE026A
:0903A100E32289828A83E493229D
:1003AA00BB010CE58229F582E5833AF583E0225008
:1003BA0006E92582F8E622BBFE06E92582F8E22252
:0D03CA00E58229F582E5833AF583E493226C
:1003D700F8BB010DE58229F582E5833AF583E8F05C
:1003E700225006E92582C8F622BBFE05E92582C808
:0203F700F222F0
:1003F900BB0110E58229F582E5833AF583E0F5F042
:10040900A3E0225009E92582F886F008E622BBFE1E
:100419000AE92582F8E2F5F008E222E5832AF58364
:08042900E993F5F0A3E9932229
:0D043100EF4BFFEE4AFEED49FDEC48FC22CA
:10043E00EB9FF5F0EA9E42F0E99D42F0E89C45F014
:01044E00228B
:10044F00E8600FECC313FCED13FDEE13FEEF13FF8B
:03045F00D8F122AF
:10046200E8600FEFC333FFEE33FEED33FDEC33FCF8
:03047200D8F1229C
:0C047500E2FC08E2FD08E2FE08E2FF22C3
:0D048100E2FB08E2F908E2FA08E2CBF822FB
:0C048E00ECF208EDF208EEF208EFF222AA
:10049A00D083D082E493F208740193F20874029331
:0904AA00F208740393F274047368
:0904B300E2FB08E2FA08E2F9227A
:0904BC00EBF208EAF208E9F22271
:00000001FF
