:020000000140BD
:1800400031113121B4000D313575900111981166117F014975900201E5
:18005800547D017E017F01DFFEDEFADDF6227C0A748011BCE411C61102
:18007000590411D011590411DA115904DCEF227C0A748011C1E411CB7A
:1800880011590411D511590411DF115904DCEF227590011159759002DC
:1800A000115975900411597590081159759010115975902011597590E1
:1800B8004011592290FF0301C490FF13F02290FF0001CE90FF10F0224A
:1800D00090FF0101D890FF11F02290FF0201E290FF12F02290FF000146
:1800E800EC90FF10E02290FF0101F690FF11E02290FF02210090FF12F7
:18010000E0229000007E007F00E4F0A3DFFBDEF7229000007E807F0003
:18011800E493F0A3DFFADEF6229000007E807F00E493F8E0987005A3EA
:14013000DFF6DEF22290FF70F02290FF71F02290FF72F022BE
:00000001FF
