:06000000020100020026CF
:03000B00020026CA
:03001300020026C2
:03001B00020026BA
:04002300020026228F
:180100007581201202AC759011120323759012120333759013B400098F
:1801180012034775901402011B7590150201217D327E647F64DFFEDECF
:18013000FADDF6227480120181745A12018B1201901201952274801261
:18014800018674A512019A12019F1201A422759001120127759002126E
:180160000127759004120127759008120127759010120127759020124F
:1801780001277590401201272290FF03F02290FF13F02290FF00F022AD
:1801900090FF01F02290FF02F02290FF10F02290FF11F02290FF12F01E
:1801A8002290FF00E02290FF01E02290FF02E02290FF10E02290FF1126
:1801C000E02290FF12E022740112025274EF1202752212022C740112D2
:1801D800025C12022C740012026112022C740012026612022C74001294
:1801F000026B12022C74E01202701201FE2212023474201202751202C6
:180208003E12027A540170EE901000780012023E12024D758300F0129A
:18022000023E12024D758200F0D8EA2212027A548070F92212027A548B
:18023800C0644070F72212027A5488640870F72290FF20F02290FF20F2
:18025000E02290FF21F02290FF21E02290FF22F02290FF23F02290FF0A
:1802680024F02290FF25F02290FF26F02290FF27F02290FF27E0220D2E
:180280000A5A4D43383020436F6D7075746572090932303135204D4311
:180298006F6F6B0D0A0D0A1202C81202FB1202DE0202A2221202C890C6
:1802B000027F1202E60202AF221202C890027F7F241202EF0202BC2271
:1802C800759850758921758780758DFA758BFAD28E223099FD22C2996B
:1802E000F5991202DA22E01202DEA3B400F822E01202DEA3DFF9223086
:1802F80098FD22C2981202F7E599221202FBF0A3B400F8221202FBF0C3
:18031000A3DFF9229000007EFF7FF0E4F0A3DFFBDEF7229000007E80E6
:180328007F00E493F0A3DFFADEF6229000007E807F00E493F8E0987001
:1603400005A3DFF6DEF22290FF70F02290FF71F02290FF72F02202
:00000001FF
