:06000000020100020026CF
:03000B00020026CA
:03001300020026C2
:03001B00020026BA
:04002300020026228F
:1801000075812012017A75900175900212036C75900412037CB4001B4D
:180118001203907590081201467590101201607590201201F17590818D
:1801300002012D7590820201337D017E017F01DFFEDEFADDF6227480AF
:180148001201AB745A1201B50470FA1201BA0470FA1201BF0470FA2240
:1801600074801201B074A51201C40470FA1201C90470FA1201CE0470D3
:18017800FA22759001120139759002120139759004120139759008123A
:1801900001397590101201397590201201397590401201397590801223
:1801A80001392290FF03F02290FF13F02290FF00F02290FF01F02290B8
:1801C000FF02F02290FF10F02290FF11F02290FF12F02290FF00E0226D
:1801D80090FF01E02290FF02E02290FF10E02290FF11E02290FF12E026
:1801F00022740112029A74EF1202BD12027474011202A41202747400CD
:180208001202A912027474001202AE12027474001202B312027474E0C4
:180220001202B812023A1203119040007F001203389041007F00120385
:18023800382212027C74201202BD1202861202C2540170EE9040007FED
:1802500000C083C082120286120295D082D083F0A3C083C08212028677
:18026800120295D082D083F0A3DFDE221202C2548070F9221202C2545F
:18028000C0644070F7221202C25488640870F72290FF20F02290FF2062
:18029800E02290FF21F02290FF21E02290FF22F02290FF23F02290FFC2
:1802B00024F02290FF25F02290FF26F02290FF27F02290FF27E0220DE6
:1802C8000A5A4D43383020436F6D7075746572090932303135204D43C9
:1802E0006F6F6B0D0A0D0A001203111203441203270202EB221203119D
:1802F8009002C712032F0202F8221203119002C77F24120338020305BA
:1803100022759850758921758780758DFA758BFAD28E223099FD22C299
:1803280099F59912032322E0120327A3B400F822E0120327A3DFF922F6
:180340003098FD22C298120340E59922120344F0A3B400F8221203445C
:18035800F0A3DFF9229000007EFF7FF0E4F0A3DFFBDEF7229000007E2E
:18037000807F00E493F0A3DFFADEF6229000007E807F00E493F8E098A9
:170388007005A3DFF6DEF22290FF70F02290FF71F02290FF72F02249
:00000001FF
