:06000000020100020026CF
:03000B00020026CA
:03001300020026C2
:03001B00020026BA
:04002300020026228F
:1801000075812012018675900412037875900812039C75900112015279
:1801180075900212016C7590101201FD759020759040120378759080A8
:18013000120388B4000912039C75901402013975901502013F7D327ECE
:18014800647F64DFFEDEFADDF62274801201B7745A1201C10470FA12CE
:1801600001C60470FA1201CB0470FA2274801201BC74A51201D00470B1
:18017800FA1201D50470FA1201DA0470FA22759001120145759002122B
:18019000014575900412014575900812014575901012014575902012A7
:1801A80001457590401201457590801201452290FF03F02290FF13F027
:1801C0002290FF00F02290FF01F02290FF02F02290FF10F02290FF11CE
:1801D800F02290FF12F02290FF00E02290FF01E02290FF02E02290FF05
:1801F00010E02290FF11E02290FF12E02274011202A674EF1202C9121F
:18020800028074011202B012028074001202B512028074001202BA126A
:18022000028074001202BF12028074E01202C412024612031D904000E1
:180238007F001203449041007F001203442212028874201202C91202EA
:18025000921202CE540170EE9040007F00C083C0821202921202A1D070
:1802680082D083F0A3C083C0821202921202A1D082D083F0A3DFDE221F
:180280001202CE548070F9221202CE54C0644070F7221202CE548864E0
:180298000870F72290FF20F02290FF20E02290FF21F02290FF21E022D7
:1802B00090FF22F02290FF23F02290FF24F02290FF25F02290FF26F07F
:1802C8002290FF27F02290FF27E0220D0A5A4D43383020436F6D7075EF
:1802E000746572090932303135204D436F6F6B0D0A0D0A0012031D1276
:1802F80003501203330202F72212031D9002D312033B0203042212030F
:180310001D9002D37F2412034402031122759850758921758780758D25
:18032800FA758BFAD28E223099FD22C299F59912032F22E0120333A345
:18034000B400F822E0120333A3DFF9223098FD22C29812034CE59922D0
:18035800120350F0A3B400F822120350F0A3DFF9229000007EFF7FF059
:18037000E4F0A3DFFBDEF7229000007E807F00E493F0A3DFFADEF62247
:180388009000007E807F00E493F8E0987005A3DFF6DEF22290FF70F09B
:0B03A0002290FF71F02290FF72F0220B
:00000001FF
