:020000000126D7
:020003000125D5
:02000B000125CD
:020013000125C5
:02001B000125BD
:18002300012522114A116331E331F3B400075107759001013375900222
:18003B0001387D017E017F01DFFEDEFADDF622780A748011A4E411AE7F
:18005300113D0411B3113D0411B8113D04D8EF22780A748011A9E41104
:18006B00BD113D0411C2113D0411C7113D04D8EF22759001113D7590DD
:1800830002113D759004113D759008113D759010113D759020113D7518
:18009B009040113D22F022E02290FF0301A090FF1301A090FF0001A053
:1800B30090FF0101A090FF0201A090FF1001A090FF1101A090FF1201AF
:1800CB00A090FF0001A290FF0101A290FF0201A290FF1001A290FF1102
:1800E30001A290FF1201A27401315D74EF318022313A74013167313A02
:1800FB007400316C313A74003171313A74003176313A74E0317B311425
:1801130022314174203180314A3185540170F29010007800314A3158F7
:18012B00758300F0314A3158758200F0D8EE223185548070FA22318535
:1801430054C0644070F82231855488640870F82290FF2001A090FF20DB
:18015B0001A290FF2101A090FF2101A290FF2201A090FF2301A090FF11
:180173002401A090FF2501A090FF2601A090FF2701A090FF2701A290C4
:18018B00FF337408F090FF30740CF090FF317400F090FF337403F090B2
:1801A300FF317401F022E0B4000631BDA30201A92290FF35E05420601C
:1801BB00F82231B490FF30F02290FF35E0540160F82231C490FF30E055
:1801D300229000007EFF7FF0E4F0A3DFFBDEF7229000007E807F00E43D
:1801EB0093F0A3DFFADEF6229000007E807F00E493F8E0987005A3DF1C
:13020300F6DEF22290FF7001A090FF7101A090FF7201A01D
:00000001FF
