:0300000002001BE0
:0300740002000384
:03000300020607EB
:2000770090FF217401F090FF2774EFF002001890FF27E0FF20E7F802001890FF27E0FF539B
:2000970007C07E00BF40F3BE00F002001890FF27E0FF5307887E00BF08F3BE00F0020018D3
:2000B700AFF0AE83E582904002F0EEA3F0EFA3F07590E1788679007A001200067590E290C7
:2000D700FF227401F07590E3788679007A001200067590E490FF23E4F07590E578867900C2
:2000F7007A001200067590E690FF24E4F07590E7788679007A001200067590E890FF25E46B
:20011700F07590E9788679007A001200067590EA90FF2674E0F07590EB789179007A0012FB
:2001370000067590EC90FF277420F07590ED78A479007A001200067590EE90FF27E07590D0
:20015700EF20E0D2904002E0FDA3E0FEA3E0FFE4F508F509A908AA090508E4B50802050914
:2001770074FE2A40387590F0C007C006C00578A479007A00120006D005D006D0077590F16E
:20019700E5082DF8E5093EF98F0290FF20E0FC888289838AF012067B7590F280B77590F3AC
:2001B700020018C006C007AE83AF82DFFEDEFAD007D006020018C004C005C006C007AC835E
:2001D700AD827E0A7F64DFFEDEFADDF6DCF2D007D006D005D0040200187590FE9001F478A8
:2001F700CD79017A001200067590FD9001F478CD79017A001200067590FB9001F478CD79F4
:20021700017A001200067590F79001F478CD79017A001200067590EF9001F478CD79017AB0
:20023700001200067590DF9001F478CD79017A001200067590BF9001F478CD79017A001241
:20025700000675907F9001F478CD79017A0012000602001890FF037480F07FFF9001F4C0D4
:200277000778CD79017A00120006D00790FF00EFF08F061FEE70E57FFF9001F4C00778CDC4
:2002970079017A00120006D00790FF01EFF08F061FEE70E57FFF9001F4C00778CD79017AFB
:2002B70000120006D00790FF02EFF08F061FEE70E502001890FF137480F07FFF9001F4C06E
:2002D7000778CD79017A00120006D00790FF10EFF08F061FEE70E57FFF9001F4C00778CD54
:2002F70079017A00120006D00790FF11EFF08F061FEE70E57FFF9001F4C00778CD79017A8B
:2003170000120006D00790FF12EFF08F061FEE70E5020018759850AE8953060F7F00430682
:20033700218E89758780758DFA758BFAD28E02001875980053890F53877FC28E0200183097
:2003570099FD020018E582904005F0C299904005E0F5993099FD020018AFF0AE83E5829065
:200377004006F0EEA3F0EFA3F0904006E0FDA3E0FEA3E0FF8D828E838FF0120696F582C0F3
:2003970007C006C005785C79037A00120006D005D006D0078D828E838FF0120696FCA3ADB7
:2003B70082AE83904006EDF0EEA3F0EFA3F0EC70C3904006EDF0EEA3F0EFA3F0020018AF1F
:2003D700F0AE83E58290400BF0EEA3F0EFA3F090400BE0FDA3E0FEA3E0FFE4F50AF50B9082
:2003F7004009E0F9A3E0FA89008A0419B9FF011AE84C603EAB0AAC0B050AE4B50A02050B42
:20041700EB2DFBEC3EF88F048B8288838CF0120696F582C007C006C005C002C001785C7922
:20043700037A00120006D001D002D005D006D00780B50200183098FD0200183098FDAF99B0
:20045700C2988F82020018AFF0AE83E582904010F0EEA3F0EFA3F0904010E0FDA3E0FEA315
:20047700E0FFE4F50CF50D90400EE0F9A3E0FA89008A0419B9FF011AE84C6044AB0CAC0D20
:20049700050CE4B50C02050DEB2DF50EEC3EF50F8F10C007C006C005C002C0017852790477
:2004B7007A00120006AC82D001D002D005D006D007850E82850F838510F0EC12067B70AFF1
:2004D700020018AFF0AE83E582904015F0EEA3F0EFA3F0904015E0FDA3E0FEA3E0FFE4F53E
:2004F70011F512904013E0F9A3E0FA89008A0419B9FF011AE84C604FC001C002AB11AC12B1
:200517000511E4B511020512EB2DFBEC3EF88F04C007C006C005C004C003C001C0007852FF
:2005370079047A00120006AA82D000D001D003D004D005D006D0078B8288838CF0EA120609
:200557007BD002D00180A4020018782B79037A00120006785279047A00120006785C79034E
:200577007A0012000680EC782B79037A001200069006EA75F080787079037A0012000690CA
:2005970040097434F0E4A3F09006B675F08078D679037A0012000680D70200187590C178B0
:2005B7002B79037A001200067590C2787779007A001200067590C39040007401F0E4A3F0B6
:2005D70090401875F00078B779007A001200067590C4904009E4F07402A3F090401875F0B1
:2005F7000078D679037A001200067590C5020018759001900000E493FE7F00900000E0FCAE
:200617007D007A007B408A008B011ABAFF011BE84960198E828F83E493F9A3AE82AF838C3F
:20063700828D83E9F0A3AC82AD8380DA75900290FF70E4F075900378F079017A0012000687
:2006570075900475900575900675901075901175901275901378B379057A001200067590CB
:0406770081020018E4
:2006B6006162636465666768696A6B6C6D6E6F707172737475767778797A41424344454670
:2006D6004748494A4B4C4D4E4F505152535455565758595A4675636B20796F75206E6F7740
:0706F600212121210D0A0062
:06004A00E478FFF6D8FD8A
:15000600C000C8C0E0E9C0E0EA540F5300F04200C822D0002286
:200028007900E94400601B7A009006FD781975A042E493F2A308B8000205A0D9F4DAF27521
:02004800A0FF17
:1B067B0020F71130F6138883A88220F509F6A8837583002280FEF280F5F0227E
:200050007800E84400600A790075A040E4F309D8FC7819E84402600C7903904000E4F0A312
:04007000D8FCD9FAE5
:0D001B007581141206B2E582600302000335
:1C06960020F71430F6148883A88220F507E6A88375830022E280F7E49322E02273
:0406B200758200222B
:00000001FF
