:03000000021E9647
:101E9600787FE4F6D8FD9080007F007E7FE4F0A393
:101EA600DFFCDEFA7508FF75090175810A021EF16D
:10226D00908498EFF01222EE90FF217401F090848B
:0D227D0098E0FF1222FB90FF2774EFF02283
:0722E700EFF09084D8E0FF46
:0D22EE009084E6EFF090FF27E020E7F92252
:1022FB009084E6EFF090FF27E054C0FFBF40F6223A
:10230B009084E6EFF090FF27E05488FFBF08F62299
:0E14C9009084D8EFF0A3EBF0A3EAF0A3E9F0D3
:1014D70090FF2274011222E89084DCE0FCA3E0FD77
:1014E700A3E0FEA3E0FF90FF231222E79084DCE055
:1014F700FCA3E0FDA3E0FEA3E0FF78081202E19061
:10150700FF241222E79084DCE0FCA3E0FDA3E0FEC9
:10151700A3E0FF78101202E190FF251222E79084E2
:10152700DCE0FCA3E0FDA3E0FEA3E0FF78181202D5
:10153700E1EF541FFFEF44E0FF90FF26EFF0E49048
:1015470084E4F0A3F09084E074FFF5F01200B64550
:10155700F070030215DE9084D8E0FF1222FB90FFA3
:10156700277420F09084D8E0FF12230B90FF27E028
:10157700FF20E0E2E49084E2F0A3F09084D8E0FF5B
:1015870012230B90FF20E0FF9084E4E0FCA3E0FD32
:101597009084E3E02DFD9084E2E03CFC9084D9E068
:1015A700FBA3E0FAA3E0F98D828C83EF12007E9013
:1015B70084E3E004F070069084E2E004F0C39084D2
:1015C700E2E0940240B59084E5E02400F09084E4E2
:0715D700E03402F002154CA4
:0115DE0022EA
:0516F50090856AEFF092
:1016FA00E0FF1222EE90FF227401F090856AE0FF6B
:10170A001222EE90856EE0FCA3E0FDA3E0FEA3E0CA
:10171A00FF90FF23EFF090856AE0FF1222EE90859A
:10172A006EE0FCA3E0FDA3E0FEA3E0FF780812024E
:10173A00E190FF24EFF090856AE0FF1222EE908597
:10174A006EE0FCA3E0FDA3E0FEA3E0FF7810120226
:10175A00E190FF25EFF090856AE0FF1222EE908576
:10176A006EE0FCA3E0FDA3E0FEA3E0FF78181202FE
:10177A00E1EF44E0FF90FF26EFF0E4908574F0A3D8
:10178A00F090857274FFF5F01200B645F0605C9037
:10179A00856AE0FF1222FB90FF277430F090856A79
:1017AA00E0FF12230B90FF27E0FF20E0E2E4FDFCBC
:1017BA0090856AE0FF12230B908575E02DFF9085D6
:1017CA0074E03C8F82F58312003F90FF20F00DBD3C
:1017DA0000010CE4B505D9ECB402D5908575E02476
:0B17EA0000F0908574E03402F080965F
:0117F50022D1
:0D23390090858EEFF0E47F107E27FDFC22E2
:0B235300EF1FAC0670011E4C70F6225C
:1022A300AB07AA06EB1BAE0270011A4E60097FF45E
:0822B3007E0112235380ED228D
:01237E00223C
:1022D2007590A575900190FF70E4F012228AE4FFD8
:0522E200121FBF80FE89
:06237800312E74787400A0
:10228A007590FE7590FD7590FB7590F77590EF75DA
:09229A0090DF7590BF75907F2262
:0519E10090858CEFF081
:1019E6003395E0FEEF2403FFEE34FFFEEFC4F85418
:1019F6000FC868FFEEC454F0488F82F5837480F0F8
:101A060090858D74FFF07F327E001222A390858D23
:101A1600E0FD90858CE0FF3395E0FEE42FFFEE3489
:101A2600FFFEEFC4F8540FC868FFEEC454F0488FA9
:101A360082F583EDF090858DE0FF14F0EF70C774AA
:101A4600FFF07F327E001222A390858DE0FD908507
:101A56008CE0FF3395E0FEEF2401FFEE34FFFEEF4E
:101A6600C4F8540FC868FFEEC454F0488F82F5835B
:101A7600EDF090858DE0FF14F0EF70C674FFF07FF7
:101A8600327E001222A390858DE0FD90858CE0FFCA
:101A96003395E0FEEF2402FFEE34FFFEEFC4F85468
:101AA6000FC868FFEEC454F0488F82F583EDF090BE
:091AB600858DE0FF14F0EF70C60D
:011ABF002204
:1021900090858FEFF012226D7B017A82790990840D
:1021A000DC1203D1000000009084E0E4F0A304F00E
:1021B00090858FE0FF1214C97B017A82790990849F
:1021C000DC1203D1000000019084E0E4F0A304F0ED
:0821D00090858FE0FF0214C9A5
:051FBF00908409EFF021
:101FC400E4FF1222BB7B017A84790A1205BB908458
:101FD4005BE070667BFF7A237978121B9590845BB3
:101FE400EFF070569084657401F0A37484F0A374C8
:101FF4005CF07B017A8279097D007C021209799078
:10200400845BE070357B017A82790990845CE0FF1F
:10201400A3E0908464CFF0A3EFF0E4FF1221469094
:1020240084657401F0A37484F0A3745CF07B017A7A
:0A2034008279097D007C021209790F
:01203E00227F
:1022BB00908460EFF0759850758921758780758DC6
:0722CB00FD758BFDD28E2290
:0F231B00908590EFF0E4F598F589F587C28E2252
:09235E00908591EFF03099FD2209
:0F232A00908468EFF0C299AF058F993099FD222A
:1021D800908586EBF0A3EAF0A3E9F0AE07AF06908E
:1021E8008586E0FBA3E0FAA3E0F9120026FD12239E
:1021F8002A908586E0FBA3E475F0011200B6A9F0E9
:07220800FA12002670D72234
:0E214600908460EFF0A3EBF0A3EAF0A3E9F0C1
:10215400E4908466F0A3F090846474FFF5F01200B8
:10216400B645F06026908460E0FFA3E0FBA3E0FAAC
:10217400A3E0F9908466E475F0011200B685F0825C
:0B218400F58312003FFD12232A80CCDF
:01218F00222D
:09236700908592EFF03098FD2200
:05234600908593EFF00B
:07234B003098FDAF99C29824
:012352002268
:0E20AD00908576EFF0A3EBF0A3EAF0A3E9F044
:1020BB00E490857CF0A3F090857A74FFF5F0120024
:1020CB00B645F06029908576E0FF12234690857720
:1020DB00E0FBA3E0FAA3E0F990857CE475F0011234
:0E20EB0000B685F082F583EF12007E70CA22E7
:0120F90022C4
:0E20FA0090857EEFF0A3EBF0A3EAF0A3E9F0EF
:10210800E4908584F0A3F090858274FFF5F01200C6
:10211800B645F0602890857EE0FF12234690857FC3
:10212800E0FBA3E0FAA3E0F9908584E475F00112DE
:0D21380000B685F082F583EF12007E80CAAC
:012145002277
:03002300020CDBF1
:100CDB00C0D0C0E0309814E599C298F50AB4A55E6F
:100CEB00D29975D000C000C001801074FF75D00080
:100CFB00C000C00178FF8600B8FF2974F73099FD5A
:100D0B00C299F599D0017805D0E0B14ED8FAE9B186
:100D1B004EB127C0E0B127C0E0B127F83098FDE510
:100D2B0099C29822E58124FCF9800C0819E6670822
:100D3B00097004E66760C4B8FEF1D001D000D0E0C2
:100D4B00D0D0323099FDC299F59922C0E0B127C0BD
:100D5B00E0B127C0E0B127F9B127C0E0C00078FFB0
:100D6B00E67002C299A1478882F583A11C8881F5A0
:100D7B00F0A11CF580A11CF5B0A11CE581C083C0BE
:100D8B0082C08EC0F0C0E0C0E0A108E589C088C079
:100D9B0087C086C085C084C080A108E590C08FC085
:100DAB008EC08DC08CC08BC08AA108E597C096C041
:100DBB0095C094C093C092C091A108E59EC09DC000
:100DCB009CC09BC09AC099C098A108E5A5C0A4C0BF
:100DDB00A3C0A2C0A1C0A0C09FA108E5ACC0ABC07E
:100DEB00AAC0A9C0A8C0A7C0A6A108E5B3C0B2C03D
:030DFB00B1C0B0D4
:100DFE00C0AFC0AEC0ADA108E5BAC0B9C0B8C0B7EB
:100E0E00C0B6C0B5C0B4A108E5C1C0C0C0BFC0BEA9
:100E1E00C0BDC0BCC0BBA108E5C8C0C7C0C6C0C568
:100E2E00C0C4C0C3C0C2A108E5CFC0CEC0CDC0CC27
:100E3E00C0CBC0CAC0C9A108E5D7C0D6C0D5C0D4E2
:100E4E00C0D3C0D2C0D1A108E5DEC0DDC0DCC0DB9E
:100E5E00C0DAC0D9C0D8A108E5E6C0E5C0E4C0E359
:100E6E00C0E2C0E1C0DFA108E5EDC0ECC0EBC0EA16
:100E7E00C0E9C0E8C0E7A108E5F5C0F4C0F3C0F2D0
:100E8E00C0F1C0EFC0EEA108E5FCC0FBC0FAC0F98E
:100E9E00C0F8C0F7C0F6A108E5FFC0FEC0FDC0E077
:100EAE00C0E0C0E0C0E0A108BFA7005025EF640A73
:100EBE00A2ACC2AC7009740DC299F5993099FDEFD0
:100ECE00C299F5993099FD500778FFE67002C299E4
:100EDE0092AC2230AC0CE50A64A560F774A5C50A85
:100EEE00FF223098FDE599B4A505120F1B80E4FF93
:100EFE00C2982230AC07E50AB4A510C322C33098BD
:0D0F0E000BE599B4A505120F1B80E8D32256
:0B0F1B0078FF76FF750AA5D2AC22001B
:041F360041800001E5
:07237000E4FF12226DE4FFFF
:012377002243
:0F1AC0009084CBEBF0A3EAF0A3E9F0A31203C5E7
:101ACF00908000E070229084CEE0FCA3E0FDA3E0C4
:101ADF00FEA3E0FF908001E0F8A3E0F9A3E0FAA3F2
:101AEF00E0FBC31202D060407B017A8079099084B9
:101AFF00CEE0FCA3E0FDA3E0FEA3E0FF9084DC12A8
:101B0F0003C59084E0E4F0A304F0E4FF1214C9E4E9
:101B1F00908000F09084CEE0FCA3E0FDA3E0FEA354
:101B2F00E0FF9080011203C5E49084D6F0A3F090FB
:101B3F0084D4E0FEA3E0FFA3E0FCA3E0FDC39FEC91
:101B4F009E50409084D3E02DFF9084D2E03CFE74F1
:101B5F00092FF58274803EF583E0FF9084CBE0FB84
:101B6F00A3E0FAA3E0F99084D6A3E0F5828C83EF8B
:101B7F0012007E9084D7E004F070B49084D6E00415
:051B8F00F080ACE4FF52
:011B9400222E
:10000300EA494B7010EC4D4E4F6008908005120387
:0F001300C580028000E4908589F0908589E0FF28
:0100220022BB
:101F3A00608084E7809A45418E418F8045454549B6
:101F4A0049498E8F9092924F994F555559999A9B1C
:101F5A009C9D9E9F41494F55A5A5A6A7A8A9AAAB96
:101F6A00ACADAEAFB0B1B2B3B4B5B6B7B8B9BABB2F
:101F7A00BCBDBEBFC0C1C2C3C4C5C6C7C8C9CACB1F
:101F8A00CCCDCECFD0D1D2D3D4D5D6D7D8D9DADB0F
:101F9A00DCDDDEDFE0E1E2E3E4E5E6E7E8E9EAEBFF
:101FAA00ECEDEEEFF0F1F2F3F4F5F6F7F8F9FAFBEF
:041FBA00FCFDFEFF2D
:0B223F00908498E0FBA3E0FAA3E0F914
:10224A0090000112003FFF9084CBE4F0A3EFF0125C
:10225A000026FD9084CCE0FEEDFF9084CBEEF0A347
:02226A00EFF093
:01226C00224F
:0B17F6009084CBEBF0A3EAF0A3E9F035
:1018010090000312003FFFE4FCFDFE9084CE120322
:10181100C590000212003FFFE4FCFDFEC004C005BC
:10182100C006C0079084CEE0FCA3E0FDA3E0FEA3C8
:10183100E0FF78081202F4D003D002D001D000EF0B
:101841004BFFEE4AFEED49FDEC48FC9084CE1203BD
:10185100C59084CBE0FBA3E0FAA3E0F9900001126C
:10186100003FFFE4FCFDFEC004C005C006C00790B8
:1018710084CEE0FCA3E0FDA3E0FEA3E0FF78081224
:1018810002F4D003D002D001D000EF4BFFEE4AFEAC
:10189100ED49FDEC48FC9084CE1203C59084CBE069
:1018A100FBA3E0FAA3E0F9120026FFE4FCFDFEC071
:1018B10004C005C006C0079084CEE0FCA3E0FDA3F0
:1018C100E0FEA3E0FF78081202F4D003D002D001B9
:1018D100D000EF4BFFEE4AFEED49FDEC48FC908451
:1018E100CE1203C59084CEE0FCA3E0FDA3E0FEA3ED
:0218F100E0FF16
:0118F30022D2
:10220F009084C3EBF0A3EAF0A3E9F09084C174FFCC
:10221F00F5F01200B645F060169084C3E0FBA3E41E
:0F222F0075F0011200B6A9F0FAED12006C80DC18
:01223E00227D
:10203F009084BCEBF0A3EAF0A3E9F09084B7E0F949
:10204F00A3E0FAA3E09084BFC9F0A3EAF0A3E9F0FC
:10205F00E4FFFE9084BA74FFF5F01200B645F0600D
:10206F003C9084BFE0FBA3E475F0011200B6A9F029
:10207F00FA120026FF3395E0FE9084BCE0FBA3E448
:10208F0075F0011200B6A9F0FA120026FD3395E0A3
:0D209F00FCC3ED9FFDEC9EFEAF054D60B64D
:0120AC002211
:060F60009084C01203C5DD
:100F6600908567E0F9A3E0FAA3E09084C8C9F0A3EE
:100F7600EAF0A3E9F0E47F02FEFDFC9084C0E0F80D
:100F8600A3E0F9A3E0FAA3E0FBC31202D040259048
:100F960084C8E0FBA3E0FAA3E0F990000612030779
:100FA6009084C0E0F8A3E0F9A3E0FAA3E0FBC31243
:100FB60002D040030210FC9084C8E0FBA3E0FAA331
:100FC600E0F912002624FD70030210620460030299
:100FD60010FC9084C8E0FBA3E0FAA3E0F990000AB5
:100FE600120307C004C005C006C007E4FB7A01F976
:100FF600F89084C0E0FCA3E0FDA3E0FEA3E0FF12AE
:10100600023EA804A905AA06AB07D007D006D0055C
:10101600D004EB2FFFEA3EFEE93DFDE83CFCC006AE
:10102600C0079084C0A3A3A3E025E0FEE433908428
:10103600D2F0A3CEF0A3E4F0A37402F07B017A848D
:1010460079C4D007D006121AC0EF60030210FC7BE9
:10105600017A8479C412224AE4FCFD229084C8E015
:10106600FBA3E0FAA3E0F990000A120307C004C04C
:1010760005C006C007E47B80FAF9F89084C0E0FC5E
:10108600A3E0FDA3E0FEA3E0FF12023EA804A9052B
:10109600AA06AB07D007D006D005D004EB2FFFEA8F
:1010A6003EFEE93DFDE83CFCC004C005C006C007A5
:1010B6009084C0A3A3A3E07E00547F7802C333CEFE
:1010C60033CED8F9FF9084D2EEF0A3EFF0A3E4F08C
:1010D600A37404F07B017A8479C4D007D006D005C6
:1010E600D004121AC0EF700E7B017A8479C41217ED
:0C10F600F6EC540FFC22E47F01FEFDFC30
:0111020022CA
:061D37009084C01203C5F8
:101D3D00908567E0FBA3E0FAA3E0F99084C4EBF093
:101D4D00A3EAF0A3E9F09084C0E0FCA3E0FDA3E0DA
:101D5D00FEA3E0C39402FFEE9400FEED9400FDECB3
:101D6D009400FC9084C01203C5900006120307EF87
:101D7D0024FEFFEE34FFFEED34FFFDEC34FFFC904E
:101D8D0084C0E0F8A3E0F9A3E0FAA3E0FBC31202DC
:101D9D00D04006E4FFFEFDFC229084C4E0FBA3E0EE
:101DAD00FAA3E0F990000212003FFFE4FCFDFE9063
:101DBD0084C0E0F8A3E0F9A3E0FAA3E0FB1201B3BD
:101DCD009084C4E0FBA3E0FAA3E0F99000121203A3
:0D1DDD0095EF2BFFEE3AFEED39FDEC38FCE2
:011DEA0022D6
:0B1DEB009084ADEBF0A3EAF0A3E9F058
:101DF600908567E0FBA3E0FAA3E0F99084B01203B4
:101E0600D100000000120026B403359084ADE0FB3B
:101E1600A3E0FAA3E02414F9E43AFA12224AE4FC15
:101E2600FD9084B01203C59084B0E0FCA3E0FDA34E
:101E3600E0FEA3E0FF78101202F49084B01203C50E
:101E46009084B0E0F8A3E0F9A3E0FAA3E0FBC000B9
:101E5600C001C002C0039084ADE0FBA3E0FAA3E09A
:101E6600241AF9E43AFA12224AD003D002D001D059
:101E760000EB4FFFEA4EFEE9FDE8FC9084B012034A
:0F1E8600C59084B0E0FCA3E0FDA3E0FEA3E0FF65
:011E9500222A
:0B15DF009084B4EBF0A3EAF0A3E9F065
:1015EA00908567E0F9A3E0FAA3E09084BBC9F0A371
:1015FA00EAF0A3E9F09084B4E0FBA3E0FAA3E0F9EF
:10160A00E4F5F01201679084B4E0FBA3E0FAA3E0EA
:10161A00F99000051203079084B71203C5E47F010D
:10162A00FEFDFC9084B7E0F8A3E0F9A3E0FAA3E09A
:10163A00FBC31202D060259084BBE0FBA3E0FAA3AF
:10164A00E0F99000061203079084B7E0F8A3E0F9E6
:10165A00A3E0FAA3E0FBC31202D040037F01229069
:10166A0084B7E0FCA3E0FDA3E0FEA3E0FFEC4D4E4F
:10167A004F701BA3E0FBA3E0FAA3E0F9120026B423
:10168A00030C90000E1203079084B71203C59084CE
:10169A00B7E0FCA3E0FDA3E0FEA3E0FF9084B4E082
:1016AA00FBA3E0FAA3E0F9900009120351EC4D4EB6
:1016BA004F60139084B7E0FCA3E0FDA3E0FEA3E033
:1016CA00FF121D3780119084BBE0FBA3E0FAA3E070
:1016DA00F990000E1203079084B4E0FBA3E0FAA38A
:0A16EA00E0F990000D1203517F009B
:0116F40022D3
:0B1103009084B4EBF0A3EAF0A3E9F045
:10110E00908567E0F9A3E0FAA3E09084BDC9F0A34F
:10111E00EAF0A3E9F09084B4E0FBA3E0FAA3E0F9CF
:10112E001200CC2401FFE435F0FE9084BBF0A3EF57
:10113E00F04E600C90000D120307EC4D4E4F7003F5
:10114E007F03229084BCE0540F6003021273900060
:10115E000D120307EF2401FFE43EFEE43DFDE43CE7
:10116E00FC90000D120351900009120307E4FBFAE4
:10117E00F9F8C31202D070269084BDE0FBA3E0FA0A
:10118E00A3E0F99000041200F7FFC39084BCE09F27
:10119E009084BBE095F050030212737F032290847B
:1011AE00BDE0FBA3E0FAA3E0F990000212003F2499
:1011BE00FFFDE434FFFC9084BBE0C4F854F0C86833
:1011CE00FEA3E0C4540F48FFEC5EFEED5F4E6003DD
:1011DE000212739084B4E0FBA3E0FAA3E0F990004E
:1011EE0009120307120F609084B71203C5E47F0142
:1011FE00FEFDFC9084B7E0F8A3E0F9A3E0FAA3E0CB
:10120E00FBD31202D050037F01229084BDE0FBA3DA
:10121E00E0FAA3E0F99000061203079084B7E0F815
:10122E00A3E0F9A3E0FAA3E0FBC31202D040037FD0
:10123E0003229084B7E0FCA3E0FDA3E0FEA3E0FF51
:10124E009084B4E0FBA3E0FAA3E0F9900009120346
:10125E0051121D379084B4E0FBA3E0FAA3E0F9909D
:10126E00000D1203519084BBE0F9A3E0FF9084B40B
:0F127E00E0FBA3E0FAA3E0C98FF01201677F0045
:01128D00223E
:0B18F4009084ADEBF0A3EAF0A3E9F054
:1018FF001215DF9084B3EFF06003E0FF229084AD08
:10190F00E0FBA3E0FAA3E0F990000D120307C00477
:10191F00C005C006C0071200CC7E00540F7805C367
:10192F0033CE33CED8F9FF9084D2EEF0A3EFF0A3ED
:10193F00E4F0A37420F09084B0E0FBA3E0FAA3E0FE
:10194F00F9D007D006D005D004121AC0EF60047F7B
:10195F000180027F009084B3EFF070709084B0E04C
:10196F00FBA3E0FAA3E0F9120026FF70089084B3FE
:10197F007403F0805790000B12003F20E336C00332
:10198F00C002C0019084ADE0FBA3E0FAA3E0F990A0
:10199F0000021204959084B7EBF0A3EAF0A3E9F0EC
:1019AF00A3E4F0A3740BF0D001D002D00312203FB8
:1019BF00EF4E60189084ADE0FBA3E0FAA3E0F912BC
:1019CF0011039084B3EFF0700302190C9084B3E00D
:0119DF00FF08
:0119E00022E4
:1013B1009000021204959084B6EBF0A3EAF0A3E941
:1013C100F09084C1E4F0A3740BF07D207C00122224
:1013D1000FE49084B5F09084B4F07F089084B0E07D
:1013E100FBA3E0FAA3E0F91204269084B9EBF0A381
:1013F100EAF0A3E9F09084B9E0FBA3E0FAA3E0F9F5
:101401009084B4E0FE04F08E8275830012003FFEEA
:10141100D394204066EE642F6061EE642E600890E4
:1014210084B5E0C39F4014EF6408704FEE642E70E2
:101431004A9084B57408F07F0B80BAEEC394804063
:101441000C74672EF582E43484F583E0FEEEC394D8
:1014510061400AEED3947A500474E02EFE9084B673
:10146100E0FBA3E0FAA3E0F99084B5E0FD04F08D80
:1014710082758300EE12007E0213F69084B9E0FBC0
:10148100A3E0FAA3E0F99084B4E0FD7C00E92DF932
:10149100EC3AFAC003C002C0019084B0E0FBA3E0C3
:1014A100FAA3E0F9120446EED3942050047F0180A0
:1014B100027F009084B6E0FBA3E0FAA3E0F990007C
:0714C1000BEF12007E7F001B
:0114C8002201
:0B128E009084A3EBF0A3EAF0A3E9F0CA
:101299009084A9E0FBA3E0FAA3E0F9120026FFB4C9
:1012A900200C9084AAE475F0011200A080E2EFB44A
:1012B9002F0A9084AAE475F0011200A09084A3E09B
:1012C900FBA3E0FAA3E0F990000512040200000074
:1012D900009084A9E0FBA3E0FAA3E0F9120026C379
:1012E900942050259084A3E0FBA3E0FAA3E0F9122F
:1012F90015DF9084ACEFF09084A6E0FBA3E0FAA39D
:10130900E0F9E412006C0213AB9084B07401F0A30D
:101319007484F0A374A9F09084A3E0FBA3E0FAA37A
:10132900E0F91213B19084ACEFF070769084A6E0E6
:10133900F9A3E0FAA3E09084B0C9F0A3EAF0A3E925
:10134900F09084A3E0FBA3E0FAA3E0F91218F4906B
:1013590084ACEFF0704C9084A3E0FBA3E0FAA3E027
:10136900F990000212049590000B12003F7033901F
:1013790084A6E0FBA3E0FAA3E0F990000B12003F7A
:1013890020E4089084AC7403F08017121DEB90845C
:10139900A3E0FBA3E0FAA3E0F990000512035102D0
:0713A90013129084ACE0FF79
:0113B000221A
:101C67007B017A847964908488E0FCA3E0FDA3E09B
:041C7700FEA3E0FFE9
:101C7B0090849B1203C5908498EBF0A3EAF0A3E940
:101C8B00F0A3E0FCA3E0FDA3E0FEA3E0FF9084D271
:101C9B007401F0A374FEF0A3E4F0A37402F0121A23
:101CAB00C0EF60037F032212223FEF64557003EEF7
:101CBB0064AA60037F0222908498E0FBA3E0FAA35E
:101CCB00E0F9A3E0FCA3E0FDA3E0FEA3E0FF90841A
:101CDB00D2E4F0A37436F0A3E4F0A37402F0121A6A
:101CEB00C0EF700C12223FBE4106BF46037F00229D
:101CFB00908498E0FBA3E0FAA3E0F9A3E0FCA3E057
:101D0B00FDA3E0FEA3E0FF9084D2E4F0A37452F0B5
:101D1B00A3E4F0A37402F0121AC0EF700C12223F6E
:0C1D2B00BE4106BF46037F00227F01225C
:0B05BB00908460EBF0A3EAF0A3E9F0ED
:1005C600908567E4F0A3F0A3F0122370EF30E00308
:1005D6007F02229084881203D100000000121C675B
:1005E600908463EFF0640170507B017A84796490A3
:1005F6008488E0FCA3E0FDA3E0FEA3E0FF9084D2A4
:100606007401F0A374BEF0A3E4F0A37410F0121A00
:10061600C0EF60089084637403F0801D908468E0E6
:1006260060177B017A84796C1217F690848812031E
:10063600C5121C67908463EFF0908463E0FEB403F8
:10064600037F0122EE60037F06227B017A847964B0
:10065600908488E0FCA3E0FDA3E0FEA3E0FF908485
:10066600D2E4F0A3740DF0A3E4F0A37424F0121AFC
:10067600C0EF60037F01227B017A84796D12224AE2
:10068600E4FCFD90848C1203C590848CE0FCA3E00E
:10069600FDA3E0FEA3E0FFEC4D4E4F700D7A84798A
:1006A6007B1217F690848C1203C590848CE0F8A315
:1006B600E0F9A3E0FAA3E0FB908467E0FFE4FCFD29
:1006C600FE1201B390848C1203C57B017A8479658E
:1006D60012224AE4FCFD908488E0F8A3E0F9A3E046
:1006E600FAA3E02FFFEA3EFEED39FDEC38FC9084DC
:1006F60060E0FBA3E0FAA3E0F990000A1203519030
:100706008464E090000212007E7B017A847968128C
:10071600224A908460E0FBA3E0FAA3E0F99000048B
:10072600EE8FF01201867B017A84796A12224AE4FE
:10073600FCFD9084901203C5908490E0FCA3E0FD3C
:10074600A3E0FEA3E0FFEC4D4E4F700D7A8479775F
:100756001217F69084901203C57B017A847965128C
:10076600224AAB07AA06908490E0FCA3E0FDA3E032
:10077600FEA3E0C39BFFEE9AFEED9400FDEC940011
:10078600FC90848CE0F8A3E0F9A3E0FAA3E0FBC3B5
:10079600EF9BFFEE9AFEED99FDEC98FCC006C007B4
:1007A600908460E0FBA3E0FAA3E0F9900004120055
:1007B600F7FFE5F0C4F854F0C868FEEFC4540F48DC
:1007C600FBAA06D007D006C3EF9BFFEE9AFEED9478
:1007D60000FDEC9400FCC007908460E0FBA3E0FA07
:1007E60090000212003FFBE4FAF9F8D00712023E2D
:1007F600EF2402FFE43EFEE43DFDE43CFC908494DD
:100806001203C5908494E0FCA3E0FDA3E0FEA3E000
:10081600FF908460E0FBA3E0FAA3E0F990000612E3
:100826000351E4908463F0E47FF87E0FFDFC90842E
:1008360094E0F8A3E0F9A3E0FAA3E0FBC31202D028
:10084600401BE47FF77EFFFDFC908494E0F8A3A3B1
:10085600A3E01202D050069084637402F0E47FF79E
:100866007EFFFDFC908494E0F8A3E0F9A3E0FAA3F0
:10087600E0FBC31202D040069084637403F09084B8
:1008860063E0FE70037F0622908460E0FBA3E0FA3B
:10089600A3E0F9EE12006C908463E0B403107B01D0
:1008A6007A8479831217F6908460E0FB802C90841A
:1008B60060E0FBA3E0FAA3E0F990000A12030790B8
:1008C600848CE0F8A3E0F9A3E0FAA3E02FFFEA3E68
:1008D600FEE93DFDE83CFC908460A3E0FAA3E0F964
:1008E60090000E120351908460E0FBA3E0FAA3E0AF
:1008F600F990000A12030790848CE0F8A3E0F9A3AC
:10090600E0FAA3E02FFFEA3EFEE93DFDE83CFCC02D
:1009160004C005C006C007908460A3E0FAA3E0F90E
:100926009000041200F7FFE5F0C4F854F0C868FE22
:10093600EFC4540F48FFE4FCFDD003D002D001D031
:1009460000EB2FFFEA3EFEED39FDEC38FC908460AB
:10095600E0FBA3E0FAA3E0F9900012120351900025
:1009660001E412007E908567EBF0A3EAF0A3E9F0BC
:020976007F0000
:01097800225C
:0B1B9500908460EBF0A3EAF0A3E9F0FD
:101BA000908567E0FBA3E0FAA3E0F99084A0EBF056
:101BB000A3EAF0A3E9F0EA494B70037F0522908481
:101BC000A0E0FBA3E0FAA3E0F9900001E412007E9C
:101BD0009084657401F0A37484F0A37474F090840D
:101BE000A67401F0A37484F0A37480F0908460E084
:101BF000F9A3E0FAA3E09084A9C9F0A3EAF0A3E96D
:101C0000F07B017A84796312128EEF600122908456
:101C100080E0600790848BE030E4037F03227B0147
:101C20007A847980121DEB9084A0E0FBA3E0FAA3F4
:101C3000E0F990001E1203517B017A84799C1217FF
:101C4000F69084A0E0FBA3E0FAA3E0F990001A125A
:101C5000035190001612040200000000900001746D
:061C60000112007E7F006E
:011C6600225B
:08097900908463ECF0A3EDF0A3
:10098100908477EBF0A3EAF0A3E9F0908567E0F9B2
:10099100A3E0FAA3E090847AC9F0A3EAF0A3E9F016
:1009A100908465E0FBA3E0FAA3E0F9E4F5F012011D
:1009B1006790847AE0FBA3E0FAA3E0F9EA494B707F
:1009C100037F052290847AE0FBA3E0FAA3E0F9908B
:1009D100000112003F20E0037F0422900016120361
:1009E10095C000C001C002C00390847AE0FBA3E07F
:1009F100FAA3E0F990001A120307D003D002D00144
:100A0100D000C3EF9BFFEE9AFEED99FDEC98FC90B0
:100A110084701203C5908463E0FEA3E0FFE4FCFD53
:100A2100908470E0F8A3E0F9A3E0FAA3E0FBC3121D
:100A310002D05011908470A3A3E0FFA3E0908463DF
:100A4100CFF0A3EFF0908463E07002A3E0700302A3
:100A51000CD890847AE0FBA3E0FAA3E0F9900016A9
:100A6100120307EE5401FEE4FDFCFBFAF9F8C31290
:100A710002D06003020BAC90847AE0FBA3E0FAA3FE
:100A8100E0F9900016120307E4FB7A02F9F812026A
:100A91003EC004C005C006C00790847AE0FBA3E015
:100AA100FAA3E0F990000212003F24FFFFE434FFB3
:100AB100FED003D002D001D000EB5FFF908476EF2F
:100AC100F06003020B4990847AE0FBA3E0FAA3E013
:100AD100F9900016120307E4FBFAF9F8C31202D0E9
:100AE10090847A7010E0FBA3E0FAA3E0F990001E75
:100AF1001203078011E0FBA3E0FAA3E0F9900022C2
:100B0100120307120F609084681203C5E47F01FE8F
:100B1100FDFC908468E0F8A3E0F9A3E0FAA3E0FB10
:100B2100D31202D05003020C3D908468E0FCA3E094
:100B3100FDA3E0FEA3E0FF90847AE0FBA3E0FAA32B
:100B4100E0F990002212035190847AE0FBA3E0FACD
:100B5100A3E0F9900022120307121D3790846C1252
:100B610003C590846CE0FCA3E0FDA3E0FEA3E0FFDD
:100B7100EC4D4E4F7003020C3D908476E0FFE4FC97
:100B8100FDFE90846CE0F8A3E0F9A3E0FAA3E02F66
:100B9100FFEE3AFEED39FDEC38FC90847AE0FBA3E0
:100BA100E0FAA3E0F990002612035190847AE0FB69
:100BB100A3E0FAA3E0F9900016120307EE5401FE38
:100BC100C3E49FFF74029EFE908474F0A3EFF09043
:100BD1008463E0FCA3E0FDC39FEC9E500890847405
:100BE100ECF0A3EDF090847AE0FBA3E0FAA3E0F946
:100BF100900026120307C004C005C006C0079084F8
:100C01007AA3A3E0900016120307EE54019084D258
:100C1100F0A3EFF0908474E0FFA3E09084D4CFF0D0
:100C2100A3EFF0908477E0FBA3E0FAA3E0F9D0070B
:100C3100D006D005D004121AC0EF601590847AE076
:100C4100FBA3E0FAA3E0F9900001E412007E7F012A
:100C51002290847AE0FBA3E0FAA3E02416F9E43AB7
:100C6100FAC003C002C001120375908474E0FEA3B0
:100C7100E0FFE4FCFDEB2FFFEA3EFEED39FDEC3831
:100C8100FCD001D002D003120337908474E0FEA39C
:100C9100E0FFC3908464E09FF0908463E09EF09055
:100CA1008465E0FBA3E0FAA3E0F9EE8FF012012FD7
:100CB100908477E0FBA3E0FAA3E0F9EA494B7003E3
:100CC100020A46908474E0FEA3E0FF908478EE8FE0
:090CD100F01200A0020A467F00A7
:010CDA0022F7
:101EB6000222D2E493A3F8E493A34003F68001F24E
:101EC60008DFF48029E493A3F85407240CC8C3332D
:101ED600C4540F4420C8834004F456800146F6DFFC
:101EE600E4800B0102040810204080901F36E47E37
:101EF600019360BCA3FF543F30E509541FFEE493F1
:101F0600A360010ECF54C025E060A840B8E493A3B7
:101F1600FAE493A3F8E493A3C8C582C8CAC583CAE2
:101F2600F0A3C8C582C8CAC583CADFE9DEE780BE9A
:011FBE000022
:10002600BB010689828A83E0225002E722BBFE02D8
:09003600E32289828A83E493220B
:10003F00BB010CE58229F582E5833AF583E0225076
:10004F0006E92582F8E622BBFE06E92582F8E222C0
:0D005F00E58229F582E5833AF583E49322DA
:10006C00BB010689828A83F0225002F722BBFE0173
:02007C00F3226D
:10007E00F8BB010DE58229F582E5833AF583E8F0B8
:10008E00225006E92582C8F622BBFE05E92582C864
:02009E00F2224C
:1000A000C5F0F8A3E028F0C5F0F8E58215827002EB
:0600B0001583E038F02288
:1000B600A3F8E0C5F025F0F0E582158270021583FD
:0600C600E0C838F0E8225A
:1000CC00BB010A89828A83E0F5F0A3E022500687FF
:1000DC00F009E71922BBFE07E3F5F009E3192289C1
:0B00EC00828A83E493F5F074019322F4
:1000F700BB0110E58229F582E5833AF583E0F5F047
:10010700A3E0225009E92582F886F008E622BBFE23
:100117000AE92582F8E2F5F008E222E5832AF58369
:08012700E993F5F0A3E993222E
:10012F00BB010789828A830200A0500B09C5F02703
:10013F00F7C5F01937F722BBFE0D09F8E325F0F3E9
:10014F00C5F019E338F322F889828A837401932565
:08015F00F0C5F0F8E49338222A
:10016700BB010A89828A83F0E5F0A3F0225006F7E3
:0F01770009A7F01922BBFE06F3E5F009F31922E0
:10018600F8BB0111E58229F582E5833AF583E8F0AB
:10019600E5F0A3F0225009E92582C8F608A6F02268
:0D01A600BBFE09E92582C8F2E5F008F2224F
:1001B300E88FF0A4CC8BF0A42CFCE98EF0A42CFCEB
:1001C3008AF0EDA42CFCEA8EF0A4CDA8F08BF0A469
:1001D3002DCC3825F0FDE98FF0A42CCD35F0FCEBC8
:1001E3008EF0A4FEA9F0EB8FF0A4CFC5F02ECD398D
:0F01F300FEE43CFCEAA42DCE35F0FDE43CFC22FA
:1002020075F008758200EF2FFFEE33FECD33CDCCB3
:1002120033CCC58233C5829BED9AEC99E582984036
:100222000CF582EE9BFEED9AFDEC99FC0FD5F0D613
:10023200E4CEFBE4CDFAE4CCF9A88222B800C1B93D
:100242000059BA002DEC8BF084CFCECDFCE5F0CB7B
:10025200F97818EF2FFFEE33FEED33FDEC33FCEBB4
:1002620033FB10D703994004EB99FB0FD8E5E4F96F
:10027200FA227818EF2FFFEE33FEED33FDEC33FC5C
:10028200C933C910D7059BE99A4007EC9BFCE99A50
:10029200F90FD8E0E4C9FAE4CCFB2275F010EF2F95
:1002A200FFEE33FEED33FDCC33CCC833C810D70795
:1002B2009BEC9AE899400AED9BFDEC9AFCE899F8D0
:0E02C2000FD5F0DAE4CDFBE4CCFAE4C8F92263
:1002D000EB9FF5F0EA9E42F0E99D42F0E89C45F084
:0102E00022FB
:1002E100E8600FECC313FCED13FDEE13FEEF13FFFB
:0302F100D8F1221F
:1002F400E8600FEFC333FFEE33FEED33FDEC33FC68
:03030400D8F1220B
:10030700BB010DE58229F582E5833AF5830204D125
:100317005007E92582F80204C5BBFE07E92582F8E4
:100327000204DDE58229F582E5833AF5830204E9D3
:10033700BB010789828A830203C55005E9F80205D4
:0A0347002FBBFE05E9F802053B227A
:10035100BB010DE58229F582E5833AF5830203C5E8
:100361005007E92582F802052FBBFE07E92582F82F
:0403710002053B2224
:10037500BB010789828A830205065005E9F8020454
:10038500F9BBFE05E9F802051289828A8302051F79
:10039500BB010DE58229F582E5833AF58302050661
:1003A5005007E92582F80204F9BBFE07E92582F822
:1003B500020512E58229F582E5833AF58302051FD8
:0C03C500ECF0A3EDF0A3EEF0A3EFF022AB
:1003D100A8828583F0D083D0821203E81203E81249
:1003E10003E81203E8E473E493A3C583C5F0C5836E
:1003F100C8C582C8F0A3C583C5F0C583C8C582C876
:0104010022D8
:10040200BB010DE58229F582E5833AF5830203D12A
:100412005007E92582F8020547BBFE07E92582F865
:04042200020560224D
:10042600BB010789828A8302058B5005E9F802051C
:1004360079BBFE05E9F802059D89828A830205AF2C
:10044600BB011A89828A83D0F0D0E0F8D0E0F9D0D7
:10045600E0FAD0E0FBE8C0E0C0F00205945016E9EF
:10046600F8D083D082D0E0F9D0E0FAD0E0FBC082A9
:10047600C083020582BBFE16E9F8D083D082D0E0A5
:0F048600F9D0E0FAD0E0FBC082C0830205A622C5
:10049500BB010DE58229F582E5833AF58302058BDB
:1004A5005007E92582F8020579BBFE07E92582F8A0
:1004B50002059DE58229F582E5833AF5830205AFBC
:100F2600C582F9B127C58322F126C0E0E0A3B14E00
:100F3600D8FA8982D083A11CF126C0E0E493A3B13C
:100F46004ED8F980EDF9E709B14ED8FAA11CF12681
:0A0F5600C0E0E8F080DCF6A11C000A
:0C04C500E6FC08E6FD08E6FE08E6FF2263
:0C04D100E0FCA3E0FDA3E0FEA3E0FF229E
:0C04DD00E2FC08E2FD08E2FE08E2FF225B
:1004E900E493FC740193FD740293FE740393FF2259
:0D04F900E6FB08E6F908E6FA08E6CBF82273
:0C050600E0F8A3E0F9A3E0FAA3E0FB2278
:0D051200E2FB08E2F908E2FA08E2CBF82269
:10051F00E493F8740193F9740293FA740393FB2232
:0C052F00ECF608EDF608EEF608EFF622F8
:0C053B00ECF208EDF208EEF208EFF222FC
:10054700D083D082E493F608740193F6087402937B
:09055700F608740393F6740473B2
:10056000D083D082E493F208740193F2087402936A
:09057000F208740393F2740473A1
:09057900E6FB08E6FA08E6F922A7
:09058200EBF608EAF608E9F6229E
:09058B00E0FBA3E0FAA3E0F92271
:09059400EBF0A3EAF0A3E9F02268
:09059D00E2FB08E2FA08E2F9228F
:0905A600EBF208EAF208E9F22286
:0C05AF00E493FB740193FA740293F922A8
:00000001FF
