:030000000256AAFB
:1056AA00787FE4F6D8FD9080007F007E7FE4F0A347
:1056BA00DFFCDEFA7508FF75090075810A025705D5
:10000300EF44E0FF90FF26EFF0E4227810120BC8D4
:0F00130090FF25EF2274FFF5F012095B45F022F4
:1061180090842EEFF012620390FF217401F09084B6
:0D6128002EE0FF1261C590FF2774EFF022FA
:0D62030090847DEFF090FF27E020E7F92266
:1061C50090847DEFF090FF27E054C0FFBF40F6229A
:1061D50090847DEFF090FF27E05488FFBF08F622FA
:094EFC0090846DEFF0A3120D8B00
:104F050090FF227401124FC590FF23124FB4780809
:104F1500120BC890FF24124FB412000E124FC57821
:104F250018120BC8EF541FFF120003908479F0A3E9
:104F3500F0908475120018607590846DE0FF126121
:104F4500C590FF277420F090846DE0FF1261D59025
:104F5500FF27E0FF20E0E2E4908477F0A3F090845F
:104F65006DE0FF1261D590FF20E0FF908479E0FCB1
:104F7500A3E0FD908478E02DFD908477E03CFC90E3
:104F8500846E120D6B8D828C83EF1208BC90847732
:104F9500E475F001120945C3908477E0940240BEA0
:0E4FA500908479740275F000120945024F36AF
:104FB30022EFF090846DE0FF126203908471120C73
:104FC3007C22F090846DE0FF126203908471120CD6
:024FD3007C223E
:05548800908471EFF0BB
:10548D00E0FF12620390FF22740112553290FF2348
:10549D001255217808120BC890FF241255211200C5
:1054AD000E1255327818120BC812000390847BF03F
:1054BD00A3F09084791200186059908471E0FF1266
:1054CD0061C590FF277430F0908471E0FF1261D5B3
:1054DD0090FF27E0FF20E0E2E4FDFC908471E0FF07
:1054ED001261D590847CE02DFF90847BE03C8F820F
:1054FD00F58312087D90FF20F00DBD00010CE4B581
:10550D0005D9ECB402D590847B740275F0001209B4
:03551D0045809F27
:1055200022EFF0908471E0FF126203908475120CF8
:105530007C22F0908471E0FF126203908475120C5B
:025540007C22CB
:0D621000908DF3EFF0E47F107E27FDFC225F
:0B622A00EF1FAC0670011E4C70F62246
:10618200AB07AA06EB1BAE0270011A4E60097FF440
:086192007E0112622A80ED2259
:0100220022BB
:1061B1007590A575900190FF70E4F0126169FF126E
:0461C100440580FE13
:104B3100666174667354657374310A00303A0066B5
:104B41006174667354657374312E310A0066617441
:104B5100667354657374312E320A0066617466732C
:104B610054657374320A00303A2F312E7478740010
:104B7100666174667354657374322E310A0066611E
:104B810074667354657374322E320A0066617466FA
:104B91007354657374330A00666174667354657384
:104BA10074332E310A00666174667354657374330D
:104BB1002E320A00666174667354657374340A0098
:104BC100666174667354657374342E310A006661CC
:104BD10074667354657374342E320A0066617466A8
:104BE1007354657374350A00666174667354657332
:104BF10074352E310A0066617466735465737435B9
:104C01002E320A00666174667354657374360A0045
:104C1100666174667354657374362E310A00666179
:0C4C210074667354657374362E320A00FA
:105F4900FFEE34FFFEEFC4F8540FC868FFEEC454E7
:105F5900F0488F82F58322908475E4F0A304F090D1
:0F5F69008DF5E0FF227B017A8A79D09084712236
:106169007590FE7590FD7590FB7590F77590EF75BC
:0961790090DF7590BF75907F2244
:055A8B00908DF4EFF026
:105A90003395E0FEEF2403125F497480F079FF1222
:105AA0005ADAE42F125F49E9F01970F379FF125ABC
:105AB000DAEF2401125F49E9F01970F279FF7F32C1
:105AC0007E00126182908DF4E0FF3395E0FEEF24BA
:095AD00002125F49E9F01970E5CA
:105AD900227F327E00126182908DF4E0FF3395E0DF
:025AE900FE229B
:105FD400908DF5EFF0126118125F6E120CF0000054
:105FE4000000125F60124EFC125F6E120CF0000093
:085FF4000001125F60024EFC87
:05440500908000EFF0C3
:10440A00E4FF12619A7BFF7A4B7931125FFC7BFFE2
:10441A007A4B793D9083A3120D8BE49083A6F07BAF
:10442A00017A8079011259BA90839BEFF07A4B791D
:10443A004012454B60097BFF7A4B794E0245127B4D
:10444A00FF7A4B795CE4FF125FFC7BFF7A4B796859
:10445A009083A3120D8B9083A67401F0FB7A827964
:10446A003312241190839BEFF07A4B797112454BEA
:10447A0060097BFF7A4B797F0245127A4B798D125C
:10448A0045187A4B7999E4FF125FFC90839BE060B0
:10449A00097BFF7A4B79A70245121245577A4B7965
:1044AA00B5E4FF125FFC7B007A00790A12272E7AA4
:1044BA004B79C112457460097BFF7A4B79CF02456B
:1044CA00127A4B79DD1245187A4B79E9E4FF125FCB
:1044DA00FC90839BE060087BFF7A4B79F780291276
:1044EA0045577A4C7905E4FF125FFC7B017A8279A1
:1044FA0033125E1D90839BEFF07A4C79111245744A
:0D450A00600B7BFF7A4C791FE4FF125FFC11
:10451700227BFFE4FF125FFC7B017A8A79D09083CC
:10452700A3120D8B9083A67402F0A3E4F07A83792B
:104537009CA3120D8B7A8279331229F390839BEF18
:10454700F07BFF227BFFE4FF125FFC90839BE0225E
:104557007B017A8A79D090839CE0FFA3E09083A4C3
:10456700CFF0A3EFF0E4FF125FA77BFF227BFFE40E
:09457700FF125FFC90839BE0221F
:1060DA00E475F00112095B85F082F5832274FFF5FD
:0F60EA00F012095B45F022EFF0A3120D8BE422B8
:10619A009083A0EFF0759850758921758780758D69
:0761AA00FD758BFDD28E2272
:0F61E500908DF6EFF0E4F598F589F587C28E22DC
:09626900908DF7EFF03099FD2251
:0F61F4009083A8EFF0C299AF058F993099FD22E3
:105FFC009083A0120D8BAE07AF069083A0120D6B91
:10600C00120864FD1261F49083A0E475F001120D86
:07601C007412086470E22217
:035FA7009083A044
:105FAA001260F19083A6F0A3F09083A41260E760D8
:105FBA00189083A0E0FFA3120D6B9083A61260DAFB
:095FCA0012087DFD1261F480E073
:015FD30022AB
:09627200908DF8EFF03098FD2248
:05621D00908DF9EFF087
:076222003098FDAF99C2980E
:016229002252
:035EE900908DCFCA
:105EEC001260F1908DD5F0A3F0908DD31260E76025
:105EFC001B908DCFE0FF12621D908DD0120D6B9018
:0C5F0C008DD51260DAEF1208BC70DE22A6
:015F18002266
:035F7800908DD732
:105F7B001260F1908DDDF0A3F0908DDB1260E76085
:105F8B001A908DD7E0FF12621D908DD8120D6B9079
:0B5F9B008DDD1260DAEF1208BC80DE22
:015FA60022D8
:03002300022CA705
:102CA700C0D0C0E0309814E599C298F50AB4A55E83
:102CB700D29975D000C000C001801074FF75D00094
:102CC700C000C00178FF8600B8FF2974F73099FD6E
:102CD700C299F599D0017805D0E0B11AD8FAE9B1CF
:102CE7001A91F3C0E091F3C0E091F3F83098FDE555
:102CF70099C29822E58124FCF9800C0819E6670837
:102D0700097004E66760C4B8FEF1D001D000D0E0D6
:102D1700D0D0323099FDC299F59922C0E091F3C025
:102D2700E091F3C0E091F3F991F3C0E0C00078FFC0
:102D3700E67002C299A1138882F58381E88881F53C
:102D4700F081E8F58081E8F5B081E8E581C083C0CE
:102D570082C08EC0F0C0E0C0E081D4E589C088C0E1
:102D670087C086C085C084C08081D4E590C08FC0ED
:102D77008EC08DC08CC08BC08A81D4E597C096C0A9
:102D870095C094C093C092C09181D4E59EC09DC068
:102D97009CC09BC09AC099C09881D4E5A5C0A4C027
:102DA700A3C0A2C0A1C0A0C09F81D4E5ACC0ABC0E6
:102DB700AAC0A9C0A8C0A7C0A681D4E5B3C0B2C0A5
:032DC700B1C0B0E8
:102DCA00C0AFC0AEC0AD81D4E5BAC0B9C0B8C0B753
:102DDA00C0B6C0B5C0B481D4E5C1C0C0C0BFC0BE12
:102DEA00C0BDC0BCC0BB81D4E5C8C0C7C0C6C0C5D1
:102DFA00C0C4C0C3C0C281D4E5CFC0CEC0CDC0CC90
:102E0A00C0CBC0CAC0C981D4E5D7C0D6C0D5C0D44A
:102E1A00C0D3C0D2C0D181D4E5DEC0DDC0DCC0DB06
:102E2A00C0DAC0D9C0D881D4E5E6C0E5C0E4C0E3C1
:102E3A00C0E2C0E1C0DF81D4E5EDC0ECC0EBC0EA7E
:102E4A00C0E9C0E8C0E781D4E5F5C0F4C0F3C0F238
:102E5A00C0F1C0EFC0EE81D4E5FCC0FBC0FAC0F9F6
:102E6A00C0F8C0F7C0F681D4E5FFC0FEC0FDC0E0DF
:102E7A00C0E0C0E0C0E081D4BFA7005025EF640ADB
:102E8A00A2ACC2AC7009740DC299F5993099FDEFE4
:102E9A00C299F5993099FD500778FFE67002C299F8
:102EAA0092AC2230AC0CE50A64A560F774A5C50A99
:102EBA00FF223098FDE599B4A505122EE780E4FFBC
:102ECA00C2982230AC07E50AB4A510C322C33098D1
:0D2EDA000BE599B4A505122EE780E8D32280
:0B2EE70078FF76FF750AA5D2AC220030
:105B4700908457120D6B90845A120C7C90846712C4
:105B57000CE490845EE0FFA3E02290845B120D6B5F
:105B670090845E120C7C90846B120CE4908462E04B
:105B7700FFA3E022908457120D6B90845A020C7C8D
:105B870090845B120D6B90845E020C7CCFF0A3EFC8
:0C5B9700F0E4FF22CFF0A3EFF07F01222A
:105CAD00EF120E8C5CCD005CD1015CD6025CDA0388
:105CBD005CDF045CE3055CE8065CEC0700005CF16E
:105CCD00E4FF80027F0102627BE4FF80027F01021C
:105CDD006284E4FF80027F010262A8E4FF80027FFC
:065CED00010262967F0136
:015CF300228E
:105AEB00EF120E8C5B0B005B0F015B16025B1D0351
:105AFB005B24045B2B055B32065B390700005B44C0
:105B0B00E4FF80027F011262BA8028E4FF12628DEB
:105B1B0080217F0112628D801AE4FF1262B1801323
:105B2B007F011262B1800CE4FF12629F80057F013E
:0B5B3B0012629F90842BEFF0227F018C
:015B4600223C
:06530600908457120D8B8C
:10530C00EF120E8C532C00533701534602535B03A0
:10531C0053700453840553980653AC07000053C4D0
:10532C00125B4790846B125B938009125B479084ED
:10533C006B125B9B1260230253BE125B7B908467E3
:10534C00125B5690846B125B931262C10253BE12B5
:10535C005B7B908467125B5690846B125B9B126232
:10536C00C10253BE125B7B908467125B5690846BB8
:10537C00125B931262DD803A125B7B908467125B46
:10538C005690846B125B9B1262DD8026125B7B90C5
:10539C008467125B5690846B125B931262CF8012FF
:1053AC00125B7B908467125B5690846B125B9B1232
:0A53BC0062CF908460EFF0227F04BE
:0153C60022C4
:0653C70090845B120D8BC7
:1053CD00EF120E8C53ED0053F801540702541C03D9
:1053DD00543104544505545906546D070000548545
:1053ED00125B6190846F125B938009125B619084F4
:1053FD006F125B9B12604902547F125B8790846B26
:10540D00125B7090846F125B931262C802547F120C
:10541D005B8790846B125B7090846F125B9B126242
:10542D00C802547F125B8790846B125B7090846FFF
:10543D00125B931262E4803A125B8790846B125B6D
:10544D007090846F125B9B1262E48026125B8790D2
:10545D00846B125B7090846F125B931262D6801214
:10546D00125B8790846B125B7090846F125B9B1242
:0A547D0062D6908464EFF0227F04F1
:015487002202
:095E85009083B7EDF0A3120D8B20
:105E8E00EF120E8C5EAE005EAE015EAE025EAE0333
:105E9E005EAE045EAE055EAE065EAE0700005EB49C
:085EAE009083BBE0FF227F049A
:015EB60022C9
:10614F00222A3A3C3E3F7C7F002B2C3B3D5B5D007F
:0A615F00464154004641543332001B
:10156C004D884301030507090E10121416181C1E92
:10157C0060808A50809A45418E418F80454545490F
:10158C0049498E8F9092924F994F555559999A9BE4
:10159C009C9D9E9F41494F55A5A5A6A7A8A9AAAB5E
:1015AC00ACADAEAFB0B1B2B3B4B5B6B7B8B9BABBF7
:1015BC00BCBDBEBFC0C1C2C3C4C5C6C7C8C9CACBE7
:1015CC00CCCDCECFD0D1D2D3D4D5D6D7D8D9DADBD7
:1015DC00DCDDDEDFE0E1E2E3E4E5E6E7E8E9EAEBC7
:1015EC00ECEDEEEFF0F1F2F3F4F5F6F7F8F9FAFBB7
:1015FC00FCFDFEFF52882C2B2E2C3B3D5B5D2F5CA3
:09160C00222A3A3C3E3F7C7F009B
:1000260074FFFF90842DFEFDFC120C88C3020BB7F3
:10003600FFE4908DA675F001120D74EF1208AA90D8
:100046008DA2120C7C7806120BC8EF543FFFEF44CA
:1000560080FFE4908DA675F001120D74EF1208AAC8
:10006600908DA2120C7CEF543FFFEF4480FFE4908A
:100076008DA675F001120D74EF0208AA7F04E4FE46
:10008600FDFC908440120C88120A7390843DEE5455
:1000960001FEE4FD120D6BE92432F9E43AFA2290EE
:1000A6008D83120D6B90001B020E03908412E47573
:1000B600F00112095B908405FEE5F025E0FFEE33C2
:1000C600FE120D6B8F828E83229083FC120C881297
:1000D6000A58908426020D6BE4FB7A01F9F8120C9B
:1000E6007C120AFEA804A905AA06AB0722120D6B0C
:1000F600900017120C0EE4FBFAF9F8C3020BB712C4
:100106000C7CEF2401FFE43EFEE43DFDE43CFC9064
:100116008431120CE490843A120D6B900016020C96
:100126000E9083B7120C7CEF24FFFFEE34FFFEED3A
:1001360034FFFDEC34FFFC22FF9083FB120D6BE9CC
:10014600241E90840CF9E43AFAE475F00102095B86
:100156009083AB120D6B90000902099C908D721270
:100166000C7C908D64020D6B908D86120D6BE924CC
:1001760016908D8BF9E43AFAE0FEA3E029F9EA3EFF
:10018600FA22E47FF5FDFC90840C120C88D3020B56
:10019600B79083AB120C7C9083A0020D6BE475F0D4
:1001A6000102094590843D120D6B74019000030213
:1001B60008BCE4FCFD120CE4E4FFFEFDFC22908387
:1001C600A0120D6B900011120C0EEE5401FEE4FD10
:1001D60022120D6B90000112087DFF2290845112AD
:1001E6000C7C7808120BC8908451120CE490845150
:1001F600120C7C90844EE422908D8DE0FEA3E0FFED
:10020600E4FCFD22FF90844A120D6B020864908480
:1002160056120D6B90002E020C0E120C0EEF2401DE
:10022600FFE43EFEE43DFDE43CFC22908449120DD1
:100236006B900022020C0EE92FF9EA3EFAED3BFB29
:10024600227B017A8D790590842B120D8B90842E5A
:10025600E4F0A3740BF022120D6B7F007E007D008C
:100266007C00229083F5120D6B90000B229083FC8C
:1002760074FFF5F002094590841EE475F001120D35
:1002860074020864908416120D6B900013120C0E03
:10029600908416020D6B9083F1120D6BE9241EF902
:1002A600E43AFA22120C7C9083A0020D6B908D8D9D
:1002B600E0FEA3E0908D8BFFEE8FF0020945908360
:1002C600C3120D6B9083FE120D8B9083D6020D6BBD
:1002D600120CE474FFFFFEFDFC22908DAF120D6B35
:1002E600900017020C0E90840B120D6B90002902E1
:1002F600087DFFE5F0F0A3EFF02290841A020C7C53
:100306007B019083C6020D8B90000B120C0E9000A1
:1003160011020CB4FFE4FEFDFC90841A120CE4906A
:100326008422227E00EE908D8DF0A3EFF022FF90C6
:100336008D86020D6B908403E0FEA3E0FFC322903E
:1003460083F1120D6B90000722900011120C0EE43F
:10035600FB7A02F9F822900019120C0E908D6F02AA
:100366000D6BE9240FF9E43AFA020864120D6BE901
:10037600241AF9E43AFA2290883E75F003EF120D3A
:100386005FEE75F003A42583F58322120D8B020D13
:1003960094120CE4908DA2020C7C120CE4E47F0112
:1003A600FEFDFC22908403EEF0A3EFF022FFE0FCBA
:1003B600A3E0FDC32290845E120CE4908462E4F014
:1003C600A304F02224FFFFE434FFFE7C007D0D022F
:1003D60008DE74029000100208BC908443E0C31348
:1003E600FB7A00E4F9F822120D8B908440120C7C03
:1003F600EF5401FFE4FEFDFCEF2290843A020D6B00
:100406009083C3120D6B020D949083C3120D6BE99A
:10041600241CF9E43AFA229083A0020D6B9083B271
:10042600120C88020A6585F082F58302087D9084A5
:1004360002E04403F0227B019083F4020D8B7443A7
:100446002FF582E43488F583E0FF7E0022120D8BBF
:10045600E47F02FEFDFC22120C7C908416020D6BDA
:1004660012099CFFAEF0E4FCFD229083F1020D6BB5
:10047600EF24FFFFEE34FFFEEF25E0FFEE33FE2212
:1004860090842B120D8B90842E7402F0A3E4F0223C
:100496005401FEE925F0F9EA3EFA22E4908D8BF04C
:1004A600A3F022908451120C7C7808020BDBFFEE3D
:1004B600F0A3EFF04E22C313FF7E00EEF0A3EFF0A1
:1004C600D39400EE940022120B9D908451020CE40A
:1004D600120D6B90000F120C0E90002A020C58128F
:1004E6000D6BEA494B22900011120C0EEE5401FEE0
:1004F600C3E49FFF74029EFE22FFAEF07C027D00E5
:10050600020EB225E0FFE0338F82F58302099CFCE0
:10051600E925F0F9EA3CFAEF0208AA7BFF9084315C
:10052600120D8B9084342290001074011208BC7F47
:10053600012290000212087DFFE4FCFDFE22120D4E
:100546006BE92430F9EA3402FA22908456020D6BE4
:10055600120D6B90002E020C587B007A0079002257
:10056600908435120C7C90843122120C88020A5831
:10057600120D6BE92FF922E0FEA3E0FF4E229083D5
:10058600FC020C7C900015020C5890000F02087DAE
:10059600E92411F9E43AFA22908DC6120D6BE4FDB6
:1005A600FC22E4908D62F0A3EFF022908D26120DCE
:1005B6006B908D6022E0C4F854F0C868FEA3E0C4D6
:1005C600540F482290844A120D6BEF0208AAE924C0
:1005D60016F9E43AFA908D8B22E0FCA3E0FD25E0C3
:1005E600FFEC33FE22FC740525F0F582748D3CF594
:1005F60083EFF022908403E0FCA3E0FD22C3908DFC
:100606005FE0940B908D5EE0940022E4FFFE7D0196
:10061600FC22908DA9E0940022120D6B90002A22F4
:1006260090843D120C88020A73908429020C7CE0A7
:10063600FFA3E0908462CFF0A3EFF022120C7C7847
:1006460010120BC8AD07AC0622FE741625F0F58213
:1006560074843EF58322120D6B9000052290000DE6
:1006660002087D90843DE4F0A37420F0E4FDFC22B2
:10067600C39F908DAAF0E49E908DA9F022120D6B77
:100686009000032290000702099C900019020C5862
:10069600900015020C0EE0FFA3E090842ECFF0A38D
:1006A600EFF022120C94E4FCFD020A589083A60295
:1006B6000D6B9083A3020CE49083A3020C7CE4FFF1
:1006C600FDFC908DA222120CB4C3020BB724FFFFCF
:1006D600E5F034FFFEE4FCFD22908412E0FEA3E088
:1006E6002290840CE0FCA3E0C39FEC9E223395E0AD
:1006F600FEC3EF9420EE940022E4FAF9F8020A739E
:100706002DFDE03CFCD3ED9FEC95F022E490000437
:100716000208BC120D6BE92414F9E43AFA22EF9DA3
:10072600FEE5F09CF0A3CEF022120D8BE4FFFE2234
:10073600120C7C90845A020CE49083B3020D6B90E9
:10074600000E020C0E908444020C7C908401020D73
:100756006B900012020C5890842D120CE4E47F0278
:1007660022908431020C7C90000E020C58E4F0A317
:1007760004F0E422908419020C7C900007020C0E0F
:10078600900017020C5890841B020C7C9084010286
:100796000CE4EC8DF0020A2B908424020C7C900071
:1007A6000B02087D90842B020D8B9000290208BC59
:1007B600E0FEA3E0FF7DB57C0122EE8FF0020A2B5E
:1007C60012099CFFAEF0229083F1020D6B120D8B85
:1007D600EA494B22908429E0FEA3E0780222241401
:1007E600F58274843EF58322120D6B9083F4020D1C
:1007F6008B7B017A8379A8229083C3020D6B9000CC
:100806000B020C0E9083E5020C7C9083ED020C7CAF
:10081600120D6BE4F5F0020A0C90001002087D122E
:100826000D6BEE8FF00209D4900011020C0E90832E
:10083600AB020C7C908DBC020D6B908D5B020D6B38
:10084600908D48120D6B908D5E22908D60E4F0A322
:0E085600227B017A8C79D422908CEF020D6BFC
:1060F9001201DA90844CE4F0A3EFF0120864FD90E9
:0E610900844DE0FEEDFF90844CEEF0A3EFF02D
:016117002265
:0658DD0090844E120D8BB9
:1058E30090000312053B1204D0120538C004C00512
:1058F300C006C0071204A9D003D002D001D0001201
:1059030004CD90844E1201D7E4FCFDFEC004C00513
:10591300C006C0071204A9D003D002D001D00012E0
:1059230004CD90844E12020EFFE4FCFDFEC004C0C1
:1059330005C006C0071204A9D003D002D001D000CD
:095943001204CD908451120C7C79
:01594C002238
:1060B80090844E120D8BAF0590844EE4120078EC5C
:1060C800FD7C00FF90844EE475F001120D74EF0220
:0260D80008AA14
:10606F0090844E120D8B1201ED1200781201E21284
:10607F0000781201E21200781201E275F001120DA0
:05608F0074EF0208AAF5
:105DE800908430120D8B90842B120D6B908433129B
:105DF8000D8B90842EE07002A3E06018908433121B
:105E08000280FF908430E412007890842E1202768B
:045E180045F070E8F9
:015E1C002263
:1061350090843F120D8BAF0590843FE41200789058
:09614500843D12027645F070ED74
:01614E00222E
:105DB200908436120D8B908431120D6B90843912BF
:105DC200072F908439120280FF7E009084361202DF
:105DD20080C39FFFE49EFE90843412027645F060F9
:055DE20004EF4E60DD3E
:015DE7002299
:10609400120864FF60153395E0FEEF6D7002EE6C3C
:1060A4006009740129F9E43AFA80E5120864FF33BF
:0460B40095E0FE2253
:0562EB00EFE4FEFF22BC
:0562F000EFE4FEFF22B7
:034580009084170D
:1045830012039190841E120D8B12027DFFE4FCFD39
:10459300FE90841A120CE4120300EF54801203F904
:1045A30070030246B7120300EF54E0FFE4FEFDFC84
:1045B3007BC01200FE7010120300EF541F12031A87
:1045C300E4F0A304F08044120300EF54F0FFE4FE90
:1045D300FDFC7BE01200FE7011120300EF540F127A
:1045E300031AE4F0A37402F08021120300EF54F8DD
:1045F300FFE4FEFDFC7BF01200FE701D120300EFD2
:10460300540712031AE4F0A37403F012027D90849A
:1046130021F0E054C06480600280581203007806E1
:10462300120BDB1200EA908421E0543FFFE4FCFD0F
:10463300FE120B9D12031F12027645F070CD7F8090
:1046430090841A12002C402BE4FF7ED8FDFC90844A
:104653001A12002F400FE47FFF7EDFFDFC90841AC7
:10466300120190400EE4FFFE7D11FC90841A1200AB
:104673002F40041202D92212061190841A12002F1D
:104683004032120300E42FFFE43E12013478061295
:104693000BDBEC5403FCE4FB74DCFAEDF9EC44D8DB
:1046A300F8120300EE5403FEE4FDFC120B9D90840C
:1046B3001A120CE490841E120D6BC003C002C001D9
:0C46C300908417120D6B120DB41203004E
:0146CF0022C8
:0C46D000908DA2120CE4908DA6120D8BB0
:1046DC00E47F80FEFDFC908DA212002F501BC39036
:1046EC008DAAE0940112061850037F002212039A3F
:1046FC00908DA61205CD7F01227E081206C41200F1
:10470C002F5024C3908DAAE0940212061850037FF8
:10471C00002212039A7806120BC8EF541FFFEF44C5
:10472C00C01200577F0222120611908DA212002F88
:10473C00503DC3908DAAE0940312061840197ED800
:10474C001206C412002F4012E47FFF7EDFFDFC90A6
:10475C008DA212019050037F002212039A780C1242
:10476C000BC8EF540FFFEF44E01200367F0322C357
:10477C00908DAAE0940412061850037F00221203B5
:10478C009AE42400FFE433FEE43DFDEC3428FC788D
:10479C0006120BC8908DAB120397E42FFFEE342456
:1047AC00FEE434FFFDE434FFFC908DA2120CE4E433
:1047BC00FFFE7D10FC908DAB12002F500EE4FF7E9F
:1047CC0004FDFC908DA212002F40037F00221203E7
:1047DC009A908DAB120C88120B9DE42FFFE43EFED9
:1047EC00ED3401FDE43CFC908DA21203977812127B
:1047FC000BC8EF5407FFEF44F012007312039A78C2
:10480C000C120BC8EF543FFFEF44801200367F04AC
:01481C002279
:06554200908456120D8B4F
:10554800E4908459F012055090000312087D70030E
:105558000255F51201DAC00712009DC003C002C04F
:10556800011202141203BBD001D002D003D00712DB
:1055780053C7EF7072120550E41201B29000221264
:105588000CB4C000C001C002C003120214D003D082
:1055980002D001D000120A6512055090001A120CB0
:1055A800B4D3120BB7404612055090000212087D82
:1055B800640270399084561201D7C00712009DC04A
:1055C80003C002C00112055090001A120C0E900080
:1055D8002E120CB4120A581203BBD001D002D00309
:1055E800D0071253C780069084597401F0908459EB
:0255F800E0FFD2
:0155FA00228E
:0C586B0090844E120D8B908451120CE4BE
:10587700E4908455F090844E1202179084511200E0
:105887002F604D90844E120D6B125542908455EF48
:10589700F0703D90844E1201D7C00712009D90848E
:1058A7005112073690845EE4F0A304F0D007125338
:1058B70006EF6010908451120CF0FFFFFFFF9084F9
:1058C700557401F0908451120C7C90844E12055649
:0558D700908455E0FF84
:0158DC0022A9
:06481D009083B3120D8B25
:104823001255429083B6EFF060030249119083B3AF
:1048330012020E640360030248FA90000412087D1A
:10484300640160030248FA9083B312009A90843D96
:1048530012048FFDFC1261359083B31205447D551C
:104863007CAA1260B89083B312009A7F527E527D65
:10487300617C41124917E92416F9EA3402FA7F727E
:104883007E727D417C61124917E9241AF9EA3402E8
:10489300FAC003C002C00112073F900012120C0EAF
:1048A300D001D002D003124921E9241EF9EA3402CF
:1048B300FAC003C002C00112073F120745D001D05E
:1048C30002D00312492190001E1202201205591230
:1048D30001DAC00712009DC003C002C0019083B378
:1048E3001202171203BBD001D002D003D007125318
:1048F300C712073F1207129083B31201D712055F45
:10490300E4FD125E85EF60069083B67401F0908338
:03491300B6E0FF0C
:104916002212606F9083B3120D6B2212606F908328
:05492600B3120D6B222D
:105BA30090843B120CE4908438120D8B90843B124A
:105BB3000C7CC3EF9402FFEE9400FEED9400FDEC29
:105BC3009400FC90843B120CE4120121EF24FE129A
:105BD300013090843B12002F4006E4FFFEFDFC22BF
:105BE30090843812015912046990843B120629905B
:0C5BF300843812061F120CB4120A58224B
:063A8C0090843D120CE4E1
:103A9200120D9490844912045390843D12002F40D9
:103AA2000E90844912011E90843D12002F400302A1
:103AB2003C0F908445120CF0FFFFFFFF90844912E7
:103AC200020E24FE7003023B88147003023BBD24E5
:103AD200026003023C0F90843D120C7C908443EE02
:103AE200F0A3EFF0908443E0C313FEA3E0139084AD
:103AF200431202BDC003C002C001120231C006C09F
:103B0200071203E0D007D006120A58D001D002D023
:103B12000312586BEF6003023C1990844912009A19
:103B220090844312014F120496120864FF9084415C
:103B3200E4F0A3EFF0120231C006C0071203E0D096
:103B420007D006123C206003023C199084491200FF
:103B52009A908443E0540112017F120864FE90841B
:103B620041E04EF0A3E0F090843D120C7CEF540152
:103B7200FFEF90844160061205BBFF8039E0540FCD
:103B8200FEA3E0FF8030120231C004C005C006C0AF
:103B92000790843D1200DED007D006D005D0041273
:103BA2003C20707312045612062690844912009427
:103BB20012023D1260F9E4FCFD804A120231C00497
:103BC200C005C006C007E47B80FAF9F890843D1274
:103BD20000E4D007D006D005D004120A58908449D8
:103BE200120D6B12586BEF702EE47F04FEFDFC1277
:103BF20006261201D090844912009A12023D1258F0
:103C0200DDEC540FFC908445120CE4800A9084454C
:0D3C1200120CF000000001908445120C7CA3
:0F3C1F0022120A58908449120D6B12586BEF2233
:0C33820090843D120D8B908440120CE4EE
:10338E0090844D7402F012045690844012002F5017
:10339E000302354690843D12011E90844012002F88
:1033AE00400302354690843D12020E24FE70030245
:1033BE0034B91470030234EF2402600302354690D0
:1033CE008440120C7C908448EEF0A3EFF090844879
:1033DE00E0C313FEA3E013FF9084481202BEC003A5
:1033EE00C002C00190843D120234C006C007908412
:1033FE00481203E3D007D006120A58D001D002D0EB
:10340E000312586B90844DEFF060030235469084A2
:10341E003D12009A90844812014F12049690844AED
:10342E001203ED9084446010120C7CEFC454F01221
:10343E00020A540F4FFF8003120C7C1205CA1201B0
:10344E00AAC003C002C00190843D120234C006C05F
:10345E00079084481203E3D007D006120A58D00111
:10346E00D002D00312586B90844DEFF060030235FA
:10347E004690843D12009A908448E0540112017FD8
:10348E00A31203ED908444600A120C7C7804120B94
:10349E00C88012120C7C7808120BC8EF540F12025F
:1034AE000A54F04FFF1205CA02354390843D1202B2
:1034BE0034C004C005C006C0079084401200DED0A0
:1034CE0007D006D005D00412354C706C7F02120066
:1034DE008412023D12074BAD07AC061260B80235DE
:1034EE004390843D120234C004C005C006C007E4F8
:1034FE007B80FAF9F89084401200E4D007D006D011
:10350E0005D00412354C703012008212023D125852
:10351E00DDE4FBFAF9EC54F0F812074BEC540FFC17
:10352E00120B9D908444120CE412008212023D1282
:0D353E00074B12606F1201AA90844DE0FF50
:10354B0022120A5890843D120D6B12586B90844DC9
:03355B00EFF0226C
:0C4A31009083F4120CE49083F1120D8BC2
:104A3D00E49083FCF0120D94908401120453908342
:104A4D00F412002F400E90840112011E9083F41277
:104A5D00002F40037F0222E4FFFEFDFC9083F8123D
:104A6D00002F6018120751908444120CF0FFFFFFC5
:104A7D00FF9083F8124B256003E0FF229083F11223
:104A8D000D6B9083F4120C7C123A8C9083FD120105
:104A9D00BB9083FD12002F607C1203A39083FD1247
:104AAD00002F70037F02221202D99083FD12002F76
:104ABD0070037F0122120751908444120CF0000004
:104ACD0000009083F4124B256003E0FF22908401D7
:104ADD0012011EEF24FE1201309000121206CC506E
:104AED0017120751900012120220120757E92404E1
:104AFD0012036B44011208AA9083FD120C7C908363
:104B0D00F4120CE490840112011E9083F412002F14
:074B1D005003024A897F00EA
:0D4B240022120C7C1233829083FCEFF022F1
:09316A00908429120CE4908426E3
:1031730012039190843A12072FFDFC9084291200C8
:103183002F702B1204001207459084351201BB9057
:10319300843512002F600B12011B90843512002F0F
:1031A3004045908435120CF0000000018039908472
:1031B30026120D6B12062F123A8C12075D1200298C
:1031C3005006E47F010232C812002670030232B9AE
:1031D30012011B90842D12002F50030232B91206E4
:1031E3002F908435120CE41204009000121200F99F
:1031F3007004FF0232C8908431120CF0000000000A
:1032030012062F90843512002F705F9084351201BF
:103213000590843112002F400A908431120CF00083
:1032230000000212336B7F01120029600512002691
:1032330070030232B9E4120028602F12040012074F
:103243004512075D120029401712011B90842D12AD
:10325300002F500C90842D120C7C908435120CE4BA
:10326300908431120CF000000000E4FFFEFDFC909E
:10327300843112002F7052120566120CE4908431CF
:1032830012010590843112002F4016908431120CE4
:10329300F0000000021205661201904004E4FF8072
:1032A3002412336B1200286020E47F01120029608E
:1032B30005120026700690842D02336712056612EC
:1032C300002F70B9FFFEFDFC22120400908444120B
:1032D3000CF0FFFFFFFF120767123382908439EF70
:1032E300F07023FFFEFDFC90842912002F6017125B
:1032F3000400120767908444120CE412062F123361
:1033030082908439EFF0908439E0703D12076712A0
:10331300040012076D120121EF24FE120130900008
:1033230012120CB4D3120BB7500F120400900012F8
:10333300120C0E12012D120757120400E924041275
:10334300036B44011208AA8018908439E0B4010584
:1033530074FFFF8003E47F01FEFDFC908431120CB7
:07336300E4908431120C7CA0
:10336A0022908426120D6B908431120C7C123A8CB6
:08337A0090842D120CE4E42202
:0C524000908429120CE4908426120D8B3F
:10524C00125542EF60037F0122908426120D6B9061
:10525C008429120C7C125BA390842D120CE4908494
:10526C002D120C7C90842612055612009D90843DC4
:10527C0012048FFDFC12613590842612009A9084E2
:10528C0035120D8B908433120773908431F0A3F098
:10529C00908426120159FFC3908432E09F90843190
:1052AC00E095F0503B1201DAC007908431120201F4
:1052BC0090842D12057090845E120CE4908433124D
:1052CC000635908435120D6BD0071253C7EF701052
:1052DC00908433E0FEA3E0FF9084311202BE80B0D4
:1052EC00908426120159FF908431E0B5F009A3E0B7
:0952FC00B507047F0080027F0168
:015305002285
:0940ED00908419120CE490841671
:1040F60012039190842512072F7D20FC90841912BB
:10410600002F500B12077AEF541F1203F960037F3A
:10411600022290841912045D90000F120C581207A7
:10412600809084211201BB90842112002F70179079
:10413600842512020EC39403400C900026120C0E26
:10414600908421120CE4E4FFFEFDFC908421120011
:104156002F703C908425120348120466C004C005E3
:10416600C006C0077B20FAF9F89084191200E4D043
:1041760007D006D005D004C3120BB740037F022236
:10418600908425120D6B900026120C0E02420A90A6
:1041960084251201591204FF90841D805390841DBA
:1041A600120C7C90841912002F404A1204609084ED
:1041B60021120C7C123A8C9084211202D690842112
:1041C60012002F70037F01221204569084211200E0
:1041D6002F400E90842512011E90842112002F403C
:1041E600037F022212077A90841D120426908419F6
:1041F600120CE480A8908425120D6B908421120C79
:104206007C125BA312046012078690842112045D5F
:10421600900013120C581200F670037F022212044B
:1042260060E92417F9E43AFAC003C002C001120B90
:10423600EEC004C005C006C00712035590841912CB
:1042460000E4D007D006D005D004120A58D001D019
:1042560002D003120C3E90842512009A12077A129D
:1042660001D012023DC003C002C0011204609000DA
:064276001B120E337F0055
:01427C00221F
:0B38DE00908419ECF0A3EDF09084162C
:1038E900120391908423120D8B12029690000F12ED
:1038F9000C0EEF242012022690841B120CE4E4FF24
:10390900FE7D20FC90841B12002F400D1202969020
:103919000017120D3B000000009084161200F3708E
:10392900037F042212078C1201D0FC1200FD6003F0
:10393900023A62120296900017120220120786902C
:1039490000131200F97030908423120348120466A0
:10395900C004C005C006C0077B20FAF9F890841B93
:103969001200E4D007D006D005D004C3120BB7501B
:1039790003023A620239EC9084231201591206D3E8
:10398900C004C005C006C007FB7A02F9F812078C0B
:10399900120AFED003D002D001D000120B901200FF
:1039A900FC6003023A6212028A123A8C90841F1256
:1039B90003A090841F12019050037F02221202D9A2
:1039C90090841F12002F70037F012290842312011B
:1039D9001E90841F12002F4062908419E07002A388
:1039E900E07010120296900017120D3B00000000C3
:1039F9007F042212028A12316A90841F1201BB903D
:103A0900841F12002F70037F07221203A390841FC3
:103A190012002F70037F02221202D990841F120014
:103A29002F70037F0122908423120D6B90841F1243
:103A39000C7C125240EF60037F012290841F120C0C
:103A49007C120296900013120C58908423120D6B6D
:103A5900125BA312029612078612078C1202969025
:103A6900000F120C5890842312009A1201D01202EE
:103A79003DC003C002C00112029690001B120E3312
:023A89007F00BC
:013A8B002218
:0B57DC0090840EECF0A3EDF090840B25
:1057E700120391908413120D8B90840B12025D1299
:1057F70040ED908410EFF0705BA3F0A3F090840B62
:105807001202E3908413120D6B12586B908410EF01
:10581700F0704190840B1200A8120864FF64E560E1
:1058270003EF70159084111201A3FE90840EE0B56A
:10583700060EA3E0B5F009801BE4908411F0A3F0F5
:1058470090840B120D6B7D017C001238DE90841062
:10585700EFF060A9908410E0B404037407F090841B
:0358670010E0FF4F
:01586A00221B
:065C5B009083FB120D8B8B
:105C61009083FE1203721260F9E4FCFD1207929018
:105C710083FB12020EB4032D908401120C88C00024
:105C8100C001C002C0039083FE1207191260F9E43B
:105C9100FCFD7810120BDBD003D002D001D0001232
:0B5CA1000B9D120792908401120C7CF6
:015CAC0022D5
:105EB7009083F1120D8B9083F41203729083F71283
:105EC7000C7CAD07AC061260B89083F112020EB4D9
:105ED700030F9083F41207199083F712064212609A
:025EE700B822DF
:06492B00908415120D8BB3
:104931009084181203721260F9EF4E6003024A2844
:1049410090841812020E543F1203CA90841BEEF099
:10495100A3EFF090841F12077390841DF0A3F090D1
:10496100841D12033E940DEE940040030249FB1294
:104971000444908418120576EE3AFA1260F9908494
:1049810021EEF0A3EFF090841FE07002A3E06053EA
:10499100C390841CE094FF90841BE094005031127A
:1049A100014F9084151200BE120466123F5AC004D2
:1049B100C005C006C007908421120201123F5A129D
:1049C10000EAD007D006D005D004C3120BB76002AD
:1049D1008055908421E0FFA3E090841FCFF0A3EFE6
:1049E100F0800E908421E0F47003A3E0F460028073
:1049F1003690841D1201A302496090841812020EA0
:104A010030E62890841FE07002A3E0601E90841CB1
:104A1100E025E0FF90841BE033FE9084151200C76F
:0F4A210012099C45F06004E4FEFF227E007F0135
:014A30002263
:064E1900908D94120D8B38
:104E1F00908D971203721260F9EF4E6003024EE30A
:104E2F00908D9712020E54BF1203CA908D9AEEF016
:104E3F00A3EFF0908D9E120773908D9CF0A3F090CE
:104E4F008D9C12033E940DEE940050721204449008
:104E5F008D97120576EE3AFA1260F9908DA0EEF06A
:104E6F00A3EFF0908D9EE07002A3E0603AC3908DA7
:104E7F009BE094FF908D9AE0940040028056908DB5
:104E8F00A0E0FEA3E0FF908D9EEEF0FCA3EFF0FDFF
:104E9F00908D9A12014FFEE5F012047F908D9412BF
:104EAF0000C7120798800E908DA0E0F47003A3E066
:104EBF00F46002801F908D9C1201A3024E4E908DC4
:104ECF009712020E30E621908D9A1203B494FFECE4
:104EDF0094004004E4FEFF22ED1205E4908D94123D
:0C4EEF0000C7E4F5F0120A2B7E007F01E2
:014EFB002294
:064D290090840B120D8BBB
:104D2F00908412E0FF90840E120D6B90000DEF1225
:104D3F0008BC90000B740F1208BC90000CE4120812
:104D4F00BC120375E4FDFC1260B8908411E01203ED
:104D5F00CA908413EEF0A3EFF0E4908417F0A3F061
:104D6F00908415F0A3F0908417E0F47003A3E0F49F
:104D7F00601B90841312014FFEE5F012047F9084A4
:104D8F000B1200C712099C9084171202F890841519
:104D9F00A3E0244312044790840E120576EE3AFAEC
:104DAF00908417E0FCA3E0FD1260B8908417E070C8
:104DBF0002A3E0700874FF908417F0A3F09084159D
:104DCF001201A3FEC3E5F0940DEE94004098908479
:104DDF0017E0F47003A3E0F4601A908414E025E068
:104DEF00FF908413E033FE90840B1200C712099CCE
:104DFF0045F07007908411E04440F0908411E0FF7B
:0A4E0F0090840E120D6BEF0208AA4A
:06372A0090840B120D8BD0
:10373000C003C002C00190840E120D6B12024DD066
:1037400001D002D003125DE8908414E0FEA3E0FFF4
:10375000D39405EE940050030237FDE4FCFD908401
:1037600024120CE4908411120D6B12097145F07053
:10377000030237F2908411E475F002120D741209FD
:1037800071FF9084221202F9E490841EF0A3F0C32A
:1037900090841FE0941090841EE0940050C612079D
:1037A0009E7801120BDB1200EA7E00908423E05425
:1037B00001FF1206ACA3120CE4908422E0C313F0C4
:1037C000A3E013F0A3120C7CE4FFFEED5401FDE432
:1037D000FCED601612079EEF6421FFEE6410FEED13
:1037E0006401FDEC908424120CE490841E1201A369
:1037F000809D12079E908414EEF0A3EFF090841E3B
:10380000E4F0A37407F0908415E0540F2430FDD346
:103810009439400474072DFD90841E74FFF5F01256
:10382000095B12064FEDF09084141205BB908414CE
:103830001204B470D190841EA3E02416F582E434FF
:1038400084F583747EF0E4908420F0A3F090841ECD
:10385000E0FEA3E0A31203B39FEC9E504190840BC3
:10386000120D6B8D828C8312087DFF6420602F12F5
:1038700062EBEF4E602090841FE024FFFF90841ED7
:10388000E034FFFE908420E06E7003A3E06F600ED2
:103890009084201201A39084201201A380AFC390D2
:1038A000841FE0940890841EE09400500A12014F97
:1038B00012064FE0FF80027F2090840B120D6B9068
:1038C000842012014F85F082F583EF1208BCC3906B
:0D38D0008421E09408908420E0940040C121
:0138DD0022C8
:065F1900908415120D8BAF
:105F1F00E4FF908418F0A3740BF0EFC433333354C1
:105F2F0080FEEFC3132EFF9084151202802FFF9077
:095F3F00841812027645F070E1AD
:015F48002236
:0E427D00908DB2ECF0A3EDF0908DAF120D8B92
:10428B00908DB47404F0120D94908DB5120D8B902B
:10429B008DBA74FFF0A3F01202E0EC4D4E4F700399
:1042AB000243ED1202E0908DB5120D6B12586B901C
:1042BB008DB4EFF060030243ED908DAF1200A812A6
:1042CB000864908DB9F07009908DB47404F00243BA
:1042DB00ED908DAF1200A81207A4543FFF908DB83C
:1042EB00F0908DAF12065CEF1208BC908DB9E0FF19
:1042FB0064E56024EF642E601F908DB8E0FF54DFFF
:10430B00FE7C00BE08047D0180027D00908DB2E032
:10431B006C7003A3E06D6009908DBA74FFF00243DB
:10432B00DAEF640F60030243B5908DB9E030E61D00
:10433B00908DAF1200A8120663908DBBF0908DB9D3
:10434B00E054BFF0E0A3F0908DAF1204D6908DBA7D
:10435B00E0FF908DB9E06F7046908DAF1200A81200
:10436B000663FF908DBBE06F7035908DB512026CBC
:10437B00120E03C003C002C001908DAF1200A890B3
:10438B008D97120D8BD001D002D003124E19EF4E28
:10439B00600D908DBAE024FFFFE434FFFE80047EB5
:1043AB00007FFF908DBAEFF08025908DBAE07010F2
:1043BB00908DAF1200A8125F19908DBBE06F602239
:1043CB00908DAF12061F120D3BFFFFFFFF80139066
:1043DB008DAF1205A11238DE908DB4EFF070030291
:1043EB0042A2908DB4E0FF6010908DAF120D6B90D8
:0943FB000017120D3B0000000048
:014404002295
:033DC70090840BDA
:103DCA0012039190840F120D8B90840B12025D12D4
:103DDA0040ED90840EEFF06003E0FF2290841474AB
:103DEA00FFF0908413F090840B12061F120D3BFF14
:103DFA00FFFFFF90840B1202E390840F120D6B12E7
:103E0A00586B90840EEFF06003023F5490840B12BB
:103E1A0000A8120864908412F0700990840E740449
:103E2A00F0023F5490840B1200A81207A4543FFFDB
:103E3A0090840B12065CEF1208BC908412E0FE64B8
:103E4A00E56008EF30E30D640F600990841374FF96
:103E5A00F0023F37EF640F6003023EED1202EC30CE
:103E6A00E603023F41EE30E61D90840B1200A812D1
:103E7A000663908414F0908412E054BFF0E0A3F03B
:103E8A0090840B1204D6908413E0FF908412E06FA2
:103E9A00704690840B1200A8120663FF908414E007
:103EAA006F703590840F12026C120E03C003C002A9
:103EBA00C00190840B1200A8908418120D8BD001B7
:103ECA00D002D00312492BEF4E600D908413E024E8
:103EDA00FFFFE434FFFE80047E007FFF908413EF2F
:103EEA00F08054908413E0701090840B1200A81292
:103EFA005F19908414E06F60511202EC20E02212E4
:103F0A0000ABC003C002C00190840B12029F1205CD
:103F1A0023120256D001D002D003125DB2EF4E60D6
:103F2A002990841374FFF090840B120D6B90002A71
:103F3A00120D3BFFFFFFFF90840B1205A11238DE22
:0F3F4A0090840EEFF07003023DFD90840EE0FFB7
:013F59002245
:032F2C009083F19E
:102F2F001203919083F5120D8B9083F11202EF54DF
:102F3F00A060037F0622E49083FAF0A3F0120269E7
:102F4F00120E039083FBE09083FA12050945F0609F
:102F5F00089083FA1201A380E412029C1207AA9030
:102F6F00842EE4F0A3740CF07B017A8379FE125D5A
:102F7F00E8908409E020E0030230131204707440DB
:102F8F001207B09083F8E4F0A304F09083F81203D3
:102F9F003E9464EE9400504712029CC003C002C0DE
:102FAF00017B017A8379FE90840E120D8B120269D8
:102FBF00120E03908411120D8B908414EEF0A3EF78
:102FCF00F0D001D002D00312372A120470123DC77D
:102FDF009083F4EFF070089083F81201A380AC9007
:102FEF0083F8E07004A3E0646470037F072290838A
:102FFF00F4E0FF6404600122908409E0FF12047082
:10300F00EF1207B0908409E030E11E9083FBE024BB
:10301F000CFF9083FAE03400FE7C007D0D1208F067
:10302F00EF2401FFE43EFE80047E007F019083FCCD
:10303F00EEF0FCA3EFF0FD1204701257DC9083F456
:10304F00EFF0600302310412027345F07003023196
:10305F000412047090000F120C0EC004C005C006BD
:10306F00C0079083FCE0FEA3E07805C333CE33CED8
:10307F00D8F9FBAA06E4F9F8D007D006D005D0049A
:10308F00120A651204701240ED9083F4EFF0706530
:10309F0012029C125F1990840AEFF09083F11202D2
:1030AF00E312315B704F120269120E03C003C002AC
:1030BF00C0019083F11200A890840E120D8B9083A3
:1030CF00FCA3E0908411F090840AE0908412F0D079
:1030DF0001D002D003124D299083F51201AD1204D5
:1030EF0070E4FDFC1238DE9083F4EFF070071202EB
:1030FF007345F070A69083F4E0704B9083F1120249
:10310F00E312315B70409083F11200A8120669122E
:10311F0061359083F11200A8C003C002C0011202F2
:10312F009C12024DD001D002D003125DE89083F1C2
:10313F001202EF5418FF1200AB90000CEF1208BCF4
:0B314F009083F51201AD9083F4E0FFC7
:10315A00229083F5120D6B12586B9083F4EFF022D4
:0320F000908D834D
:1020F300120391908D91120D8B120335900016E40B
:102103001208BC908D831200F37003022402908D99
:102113008312061F120C0E74FF1200FD70030221BE
:10212300E4E4908D8FF0A3F01204A2908D89022134
:10213300CA908D9112026C120E03908D8AE0908DDD
:102143008912050945F070030221D0908D91120286
:102153006C120E03908D8912014FFEE5F025E0FF0E
:10216300EE12050D908D8D1202F8A312057D701CE1
:10217300908D8D1203B4EC94D84011D3ED94FFEC01
:1021830094DF5008A3ECF0A3EDF080A5E4FCFD7808
:1021930010120BDB1200EA1201FE120B9DC006C0E7
:1021A3000712016E908D8BA3E0FF74FF120676D0A9
:1021B30007D0061246D012032970051204A2800D1F
:1021C3001202B3E4908D8FF0A3F0022134908D8F2F
:1021D300E07002A3E060031204A112016EE412088E
:1021E300AA1204A1908D89F0A3F0C3908D8AE09484
:1021F3000B908D89E0940040030222EA1200A5901F
:102203008D8912014F12042CFFE412032C908D8D43
:10221300E0FEA3E0FF64204E60D0EF64054E70083B
:10222300908D8DF0A374E5F0908D89E07004A3E0A8
:1022330064097023C3908D8CE0940C908D8BE09493
:10224300005014120335E92409908D8B12014B12AF
:102253000498742E1208AA908D8DA3E0FF1262EBEE
:10226300EF4E6040908D89E0FEA3E0FF64084E606E
:1022730033EF640B4E602D1200A58F828E831208FC
:102283007DFF1262F0EF4E601B1200A5908D891244
:10229300014F12042CFD908D8EE0FFED908D8DCFBC
:1022A300F0A3EFF0908D8D1207B6125BFF12032B94
:1022B3004E700280271201FEC006C007120335E9E3
:1022C3002409120177908D8BA3E0FF740C1206761C
:1022D300D007D0061246D012032970051204A2803B
:1022E300061202B30221ED120335E924091205D7C0
:1022F300E0FEA3E0FF29F9EA3EFAE41208AA12037A
:102303003590001612087D60030223C5EF4E70114D
:102313001205D412014F120498743F1208AA022323
:10232300A91204A1908D89F0A3F0120335E92409C1
:10233300908D8912017A120864FF606A3395E0FE7A
:1023430012032CC39441EE94004039D3E0945A9085
:102353008D8DE09400502D1200A590000C12087D85
:10236300FFC3908D8AE09409908D89E09400400426
:102373007E1080027E08EE5F600A908D8DE475F01A
:1023830020120945908D8DA3E01203341205D4E089
:10239300FCA3E029120519908D891201A3908D8B5E
:1023A3001201A302232D12016EE41208AA1200A542
:1023B30090000C12087D700A120335900009E41294
:1023C30008BC1200A51207A4120334900008EF12F0
:1023D30008BC1200A51204151258DD120335120CA5
:1023E3003E1200A5E924161224039000061207C02A
:0F23F3001200A5E924181224039000041207C059
:0F24020022F9E43AFA1260F9908D86120D6B22DE
:0619D0009083FB120D8B59
:1019D6009083FE120409908414120D8B9083FB12DF
:1019E600040990000B120E03908405120D8BE490EF
:1019F6008412F0A3F07B017A8479141245809084D6
:101A0600081202D690840812002F70037F06221255
:101A1600061190840812002F400C9084081206428A
:101A26001200B1120798908408120C7C1203AAC304
:101A36009420EE940040411205FA642F4C6039ED73
:101A4600645C4C6033C3ED9480EC940050107BFFD3
:101A56007A61794F126094EF4E60037F0622120678
:101A6600DFC394FFEE940040037F06221205FA12AC
:101A760000B11207980219FB90841412020EFF643B
:101A86002F6004EFB45C089084151201A380E990DE
:101A96008414120D6BC003C002C0019083FE120DA8
:101AA6006B120DB4908403E0FEA3E0C39420EE9481
:101AB6000050047F0480027F00908402EFF090843F
:101AC6001212057D60281204769084051200C71252
:101AD60007C61203AA64204E600C908403E0FEA39E
:101AE600E0642E4E700890841212027680D09084A4
:101AF600121205DF9084051200C7E4F5F0120A2BD6
:101B0600ED4C70037F0622E4908410F0A3F09084DD
:101B1600101205DF9084051200C71207C664204E16
:101B260070089084101201A480E4D3ED9400EC9424
:101B3600005006EF642E4E70031204341206DFFFC7
:101B46001204C6401A1204769084051200C71209C0
:101B56009C642E45F0600890841212027680DD9017
:101B660083FB12029F90843D1202567D207C001258
:101B76006135E4908401F090840CF0A3F0A3F0A307
:101B86007408F09084101200B412099CFF9084032C
:101B96001202F990840312057D7003021D33EF646F
:101BA600204E6018EF642E4E70171206DFFF9084E9
:101BB60010E0FCA3E06F7002EC6E60051204348046
:101BC600C290840EE0FEA3E0FF1206E75016908452
:101BD60012E0FCA3E0FD908410E0FAA3E06D700231
:101BE600EA6C7059EF640B4E7006120434021D3312
:101BF600908412E0FAA3E0FB908410E0FCA3E0FDE1
:101C06006B7002EC6A6003120434D3ED9BEC9A40CD
:101C160003021D33908412E0FFA3E0908410CFF0FE
:101C2600A3EFF090840CE4F0A37408F0A31202561C
:101C3600908401E0FF25E025E0F0021B89908403F3
:101C4600E0FAA3E0FBC39480EA9400403790840254
:101C5600E04402F0AF03AE02E4FCFD90841B04F006
:101C6600A374B5F012574A1203AA30E717908403FB
:101C7600A3E07E00547F2450F582EE348AF583E09B
:101C8600FF1203AA908403E0FEC3EE940140309055
:101C9600840EE0FAA3E0FB24FFFFEA34FFFE1206FF
:101CA600E7400E12043490840CEAF0A3EBF0021B1A
:101CB60089908403E0FEEE12013E12051580601243
:101CC60005FA4C600D7BFF7A617958126094EF4EED
:101CD600600E908403E4F0A3745FF0120434803F36
:101CE60012033B9441EE94004010D3EF945AEE94C5
:101CF600005007908401E04402F012033B9461EE29
:101D06009400401BD3EF947AEE9400501290840115
:101D1600E04401F090840374FF75F0E012094590E9
:101D26008403A3E012013E120515021B899083FB72
:101D3600120D6B90001E12087DB4E50890001E740B
:101D4600051208BC90840EE0FEA3E064084E7009FC
:101D5600908401E025E025E0F0908401E0FF540C3A
:101D6600640C6007EF5403FFBF0307908402E0444E
:101D760002F0908402E0FF20E118908401E030E058
:101D860005EF4410A3F0908401E030E205A3E0449F
:0B1D960008F0908402E01207B07F000C
:011DA100221F
:035173009083F135
:105176001203919083F8120D8B9083F412020EFFA6
:10518600642F6004EFB45C089083F51201A380E9F4
:10519600120345120D3B00000000EF1206F35016F5
:1051A60090002974801208BC1202601240ED9083B0
:1051B600F7EFF002523A7B017A8379F49083FE127C
:1051C6000D8B1207CD1219D09083F7EFF070651290
:1051D60007CD123DC79083F7EFF09083F11202EFEF
:1051E600FEEF600E9083F7E064047048EE20E24420
:1051F6008010EE20E23E9083F112065C12087D20BC
:10520600E4089083F77405F0802A1207CD90000F0A
:105216001201CD9083F812009A12023D9083FE127D
:105226000D8B9083F8120D6B125C5B120345120C0A
:09523600580251BC9083F7E0FF1F
:01523F00224C
:0650A50090842B120D8B1C
:1050AB0074FFFDFC120D9490842E120D8B908431A5
:1050BB00120D8B90842E1204E570057FFF7EFF226C
:1050CB00908431120280FFFB3395E0FAC3EB9420FE
:1050DB00EA94004004EFB43AE7EF643A60030251FC
:1050EB006F908434F0A304F090842E12020EFFC351
:1050FB00648094B04041D3EF648094B95039E92473
:10510B0002F9E43AFAC003C002C001908431120DD7
:10511B006BD082D083D0E06B7008E965827003EAB4
:10512B0065837013EF3395E0FEEF24D0FFEE34FF71
:10513B00908434F0A3EFF090843412033E9401EE8C
:10514B00648094805019AC06AD07908431120D6BBE
:10515B00C003C002C00190842B120D6B120DB4AFB3
:07516B0005AE0422E4FEFF83
:01517200221A
:1055FB0090842B120D8B90842B120683E41208BC23
:10560B0090002E120D3BFFFFFFFF12586BEF600354
:10561B007F042290842B1205441260F9EF645570BD
:10562B0003EE64AA60037F032290842B120D6B9010
:10563B00003212087DFF64E9600AEF64EB6005EF4E
:10564B0064E87058E92468F9E43AFAC003C002C070
:10565B00017A61795F120521E4F0A37403F0D001A4
:10566B00D002D003125DB2EF4E7002FF2290842B5A
:10567B00120D6BE92484F9E43AFAC003C002C001AD
:10568B007A617963120521E4F0A37405F0D001D09F
:0F569B0002D003125DB2EF4E7002FF227F022297
:060FAB009083F1120D8B92
:100FB10012055FC003C002C0019083F4120D6B12D1
:100FC1000DB49083F1120D6B1250A59083F9EEF0E0
:100FD100A3EFF0C3EE6480948050037F0B229083D3
:100FE100F9E0FEA3E090883E75F003120384120D30
:100FF1006B9084261207D370037F0C221200D8C095
:1010010003C002C0019083F4120D6B120DB49083E2
:10101100F7E054FEF01200D812086460211201DAE0
:10102100125CAD9083FBEFF020E0139083F7E0605A
:101031000A9083FBE030E2037F0A227F0022120044
:10104100D8E41208AA9083F9A3E0FF1200D8900017
:1010510001EF1208BC1201DA125AEB9083FBEFF098
:1010610030E0037F03229083F7E0600A9083FBE086
:1010710030E2037F0A229083FC120CF00000000092
:101081001200D81205841255FB9083F8EFF0640228
:101091006007E0C39402021161E4908429F0A3F097
:1010A10090842912033E9404EE9400505DEFC4F83D
:1010B100540FC868FFEEC454F048FEEF24F0FFEE71
:1010C1003401FE1200D8E92FF9EA3EFA9000041229
:1010D100087D6008E924081215538005E4FFFEFD30
:1010E100FCC004C005C006C0071207DAC333CE3303
:1010F100CED8F91207E4D007D006D005D004120CDF
:10110100E49084291201A30210A1E4908429F0A3A0
:10111100F060069084291202761207DAC333CE33C7
:10112100CED8F91207E4120C7C9083FC120CE41265
:101131000584EC4D4E4F600B1200D81205841255F8
:10114100FB80027F039083F8EFF0C394024011907B
:1011510084291201A3FEC3E5F09404EE940040B982
:101161009083F8E0FEB404037F0122EEC3940240B1
:10117100037F0D221200D8E9243D121543EF7003BD
:10118100EE640260037F0D221200D8E92448121593
:10119100439084001201B890840012002F700F1246
:1011A10000D8E92456121553908400120CE490845F
:1011B10000120C7C1200D890001A120C58900042B8
:1011C10012087D9000021208BC90000212087DFFF7
:1011D10064016008EF640260037F0D2290840012B5
:1011E1000C88C000C001C002C0031200D81205382B
:1011F100D003D002D001D000120A73908400120CE7
:10120100E41200D890003F12087DFF900009E48F9E
:10121100F0120A2B12015C45F060161200D812017F
:101221005CFFAEF024FFFDEE34FF5EFEED5F4E602D
:10123100037F0D221200D8E9244312154B1200D866
:101241009000071207C012068A540F60037F0D2217
:101251001200D8E9244512154B9084041201B8906C
:10126100840412002F70131200D8E92452F9E43AD1
:10127100FA1258DD908404120CE41200D8E92440DB
:101281001215649084241204B570037F0D2212009C
:10129100D812068AFFE5F0C4F854F0C868FEEFC41E
:1012A100540F48FFE4FCFDC004C005C006C0079010
:1012B1008424E0FEA3E0FFE4908400120570D003D3
:1012C100D002D001D000120A58908408120CE49088
:1012D1008408120C7C90840412002F50037F0D228D
:1012E1001200D812015C120469C004C005C006C016
:1012F10007908408120C88908404120C7C120A65F1
:10130100D003D002D001D000120AFE90840C120149
:10131100BB90840C12002F70037F0D22E49083F8A0
:10132100F07FF57EFF7DFF7C0F12018D50069083CB
:10133100F87403F07EFF12018850069083F874025E
:10134100F07E0F12018850069083F87401F09083AB
:10135100F8E070037F0D2290840C120C7CEF2402C4
:101361001202261200D8900016120C581205849011
:10137100001E120C589084241202011200CF90001A
:1013810022120C58908408120C7C1200CF1204DF38
:101391009083F8E06403703BE9245C121564EF4E1E
:1013A10060037F0D221200D812068A45F060037F88
:1013B1000D221200D8E9245EF9E43AFA1258DD123E
:1013C10000D8900026120C581201217B041206FF4E
:1013D1000214371200D812068A45F070037F0D22DD
:1013E1001202379084001200D2900026120C5890FD
:1013F10083F8E0B4020A1201217B021206FF803653
:101401001200D8120121E47B03120700E47B02FAE7
:10141100F9F8120AFEC004C005C006C0071200D8C0
:10142100120121EF5401FFE4FEFDFCD003D002D0F4
:1014310001D000120A58908410120CE4908410120A
:101441000C7CEF24FFFFEE34011202291203551226
:101451000AFE1200D890001A1206CC50037F0D220A
:101461001200D8900012120D3BFFFFFFFF90000EFB
:10147100120D3BFFFFFFFF74801207139083F8E00A
:101481006403600302150E1200D8E92462F9E43AFC
:10149100FA1260F9EF64014E70731200D8120584DC
:1014A10012022312586BEF70641200D81207121245
:1014B10005471260F9EF64557003EE64AA704E900F
:1014C100842612009A1258DD7B527A527961784152
:1014D100C3120BB770371200D8E9241612155B7BC3
:1014E100727A7279417861C3120BB770201200D8F9
:1014F100E9241A12155B1200D8120757E9241EF9C4
:10150100EA3402FA1258DD1200D812076D9083F8FE
:10151100E0FF1200D8EF1208AA9088411201A3FE41
:101521001200D8900005EE120A2B7B017A887950BF
:10153100C003C002C0011200D890000B120E337F0D
:0115410000A9
:1015420022F9E43AFA1260F922F9E43AFA1260F95D
:1015520022F9E43AFA1258DD22F9EA3402FA125870
:0A156200DD22F9E43AFA1260F922E2
:06594D009083C3120D8BD4
:105953009083C97409F0EA494B6039120406EA4995
:105963004B60311204061208646029900005120787
:10597300C69083C312068312099CB50717E5F0B5D9
:105983000612120D941201DA125CADEF20E005E469
:105993009083C9F09083C9E0700512040680031256
:1059A300055FC003C002C0019083C6120D6B120DC8
:0659B300B49083C9E0FF7F
:0159B90022CB
:0659BA009083A0120D8B8A
:1059C0009083A3120D6B9083A7120D8B7B017A83BA
:1059D00079A71250A5C3EE6480948050037F0B22F8
:1059E00012037D1204E56004E41208AA9083A01259
:1059F00004E5600A9083A0120D6BE41208AA90835C
:105A0000A0120D6B12037D120D8B9083A6E0700225
:105A1000FF227A8379A012043CE49083F7F07A8322
:055A200079A3120FAB99
:015A2500225E
:032411009083A015
:102414001207D370037F09229083A6E0543FFFF094
:102424007A8379D612043C9083F7EFF07A8379A308
:10243400120FAB9083A7EFF060030227131202D0B0
:102444009083A8120D8B9083A31207EE1207F71244
:1024540051739083A7EFF0700D9083D1E030E706BD
:102464009083A77406F09083A6E0541C70030225A1
:1024740068A3E0FF6017B4040B1207F7122F2C9027
:1024840083A7EFF09083A6E04408F0801B9083AD0F
:10249400E0541160089083A77407F0800B9083A622
:1024A400E030E204A37408F09083A7E060030225FF
:1024B4008D9083A6E020E30302258D1202C4125CF2
:1024C4005B9083DD120CE41207FEE9240EF9E43A72
:1024D400FA7F007E007D217C4C12606F9083C312D2
:1024E400026C74201208BC1207FE9083F4120D8B48
:1024F4009083F7120CF0000000001202D0125EB7B5
:1025040012040F12026012606F9083D61201ADE4C0
:10251400FFFEFDFC9083DD12002F606D9083D612C8
:1025240002179083D9120CE41207F79083F8120C67
:10253400F0000000009083DD120C7C124A3190837D
:10254400A7EFF070441202D09083D9120C7C125879
:102554006B9083A7EFF09083DD12012A1202D01250
:10256400076D80259083A7E0701F9083ADE0FF3056
:10257400E4089083A77404F0800F9083A6E030E110
:1025840008EF30E004A37407F09083A7E0702C9068
:1025940083A6E0FF30E3034440F09083D612021791
:1025A40012041D90001D120C581207FEC003C00235
:1025B400C00112041D900021120E339083A7E06025
:1025C400030227131202C4125C5B9083A012034817
:1025D400120C5812040F1258DD9083A012026C12D0
:1025E4000C581202D0C003C002C00112041D120D07
:1025F400B41202D090000512099CFF12041D900031
:1026040003E5F08FF0120A2B9083A6E0FF90000FF1
:102614001208BCE41203DA900019120D3B0000000A
:1026240000900011120D3B00000000EF20E50302B2
:1026340027139083A012026C1200F940030227139F
:102644009083A012026C120C0E900011120C589080
:1026540083D61201591204FF9083E1120CE4908393
:10266400A0120348120C0E9083E5120CE412080425
:10267400804A9083A7E0704C9083E1120C7C908395
:10268400ED120190403E12041D12080A123A8C9079
:1026940083E51203A09083E512019050069083A76E
:1026A4007402F01202D99083E512002F7005908312
:1026B400A704F01208109083E11204269083ED120F
:1026C4000CE480AE12080A12041D12058A9083A736
:1026D400E0703C1208101201D0FCEE4F603112027F
:1026E400D012080A125BA39083E9120CE41200FCD6
:1026F40070089083A77402F0801512035512081015
:10270400120AFE9083E912057012041D12069090BD
:1027140083A7E0600F12055FC003C002C00112046A
:092724001D120DB49083A7E0FF23
:01272D002289
:0629F3009083A0120D8B81
:1029F9009083A3120D6B9083C0120D8B9083A81244
:102A090008167A8379AB1203061202AD12594DEFFB
:102A190070091202AD12081FFF60012212059020F1
:102A2900E0037F0722120314C000C001C002C003E3
:102A39009083A012026C120C0ED003D002D001D0E8
:102A490000120A659083B6120CE49083A612020163
:102A59009083B612002F500E9083B6120C7C90838F
:102A6900A6EEF0A3EFF09083A6E07002A3E0700356
:102A7900022CA41201C4FC1200FD6003022C0912ED
:102A890002AD12034F120AFEC004C005C006C007FA
:102A99001201561206D3D003D002D001D000120B76
:102AA900909083BE1204B5704C1202AD90001112C1
:102AB90000F99083A07008120348120C0E800C12C2
:102AC9000D6B1206961202AD123A8C9083AE120C5F
:102AD900E41204569083AE12002F50028034120281
:102AE900D99083AE12002F7003022C3E9083AE1250
:102AF90002AA12058A1202AD1206969083AB120D34
:102B09006B125BA39083B21201BB9083B212002FA8
:102B190070091202AD1203D87F02229083B2120CFF
:102B2900889083BE120201120A589083B2120CE4F3
:102B39009083A6E09083BC1204BC5003022C0012BF
:102B49000156FF9083BCE0FCA3E0FD9083BFE090B9
:102B590083BE120706400F1201569083BE1203B3BB
:102B69009083BC1207249083AB1201D7C0079083CE
:102B7900C0120D6B9083B21207369083BCE0FFA39D
:102B8900E090845ECFF0A3EFF0D007125306EF6018
:102B990003022C3E9083AB12068312087D60481213
:102BA900021A1204231200EA9083BC120201C31212
:102BB9000BB750339083AB1202171204231203553B
:102BC900120A739083C0120576EA3EFAEB3DFBC008
:102BD90003C002C0019083AB12009A120486D0018F
:102BE900D002D003125DE89083BDE025E09083BA5E
:102BF900F0A3E4F0022C639083B21202AA120690A9
:102C09001202AD1204EC9083BAF0A3EFF09083A600
:102C19001203B49FEC9E50089083BAECF0A3EDF038
:102C29001202AD900019120C0E9083AB120D6B12AB
:102C3900586BEF60071202AD12052D221201C490E4
:102C490083AB12009A12023D1207AA9083BA1206A8
:102C59009C9083C0120D6B125DE89083BA12033EFB
:102C69009083A7E09FF09083A6E09EF09083A8123E
:102C790008259083BAE0FEA3E0FF9083C11202BE4B
:102C89001202AD120596C003C002C0011206A9D0F6
:0D2C990001D002D003120C3E022A6F7F0012
:012CA600220B
:061DA200908D64120D8B10
:101DA800908D67120D6B908D80120D8B908D6C123B
:101DB80008167A8D796F12030612016812594DEFD1
:101DC800700912016812081FFF6001221205902095
:101DD800E1037F0722120314908D6A120201120A8E
:101DE80058120168120314D3120BB7401512016878
:101DF80012082EC374FF9F908D6BF074FF9E908D18
:101E08006AF0908D6AE07002A3E070030220E2128B
:101E180001681201CAFC1200FD60030220151201BC
:101E28006812034F120AFE908D6F12015924FFFDAC
:101E3800E5F034FF5EFEED5F908D7E1204B4707C99
:101E48001201689000111200F9701C120168120743
:101E580080908D721201BB908D7212002F701A1231
:101E68000168120260800912016812069612016860
:101E780012316A908D72120CE4E4FFFEFDFC908D25
:101E88007212002F70030220E21203A3908D7212C7
:101E9800002F7003021EF81202D9908D7212002FC3
:101EA800700302204112016212058A900007120095
:101EB800F97009120162900007120C581201681299
:101EC800035C90002E1206CC700C1203621255426D
:101ED800EF600302204112016890001512035F129F
:101EE8005BA3908D761201BB908D7612002F70093E
:101EF8001201681203D87F0222908D76120C889006
:101F08008D7E120201120A58908D76120CE4908D83
:101F18006AE0908D7C1204BC5003021FE9908D6F1B
:101F2800120159FF908D7CE0FCA3E0FD908D7FE0CD
:101F3800908D7E1207064013908D6F120159FF9005
:101F48008D7E1203B4908D7C120724908D6F120140
:101F5800D7C007908D80120D6B908D76120C7C90F7
:101F6800845E120CE4908D7C120635D0071253C79C
:101F7800EF6003022041908D6F120217908D761248
:101F880004261200EA908D7C120201C3120BB7508E
:101F980040908D6F12009AC003C002C001908D6FEF
:101FA800120217908D76120426120355120A7390A6
:101FB8008D80120576EA3EFAEB3DFB120486D001CD
:101FC800D002D003125DE8120362900003E4120805
:101FD800BC908D7DE025E0908D7AF0A3E4F002209E
:101FE8007B12016812030EC3120BB740171203626B
:101FF800125542EF60028041908D76120C7C1203DC
:1020080062120559908D76120165120690120168C8
:102018001204EC908D7AF0A3EFF0908D6A1203B45D
:102028009FEC9E5008908D7AECF0A3EDF0120168B9
:1020380012035C12586BEF600712016812052D221B
:102048001201681201CA908D6F12009A12023DC0E7
:1020580003C002C001908D80120D6B1207AA908DEB
:102068007A12069CD001D002D003125DE8908D6FE1
:102078001201AD908D7A12033E908D6BE09FF09027
:102088008D6AE09EF0908D6C120825908D7AE0FEA6
:10209800A3E0FF908D811202BE120168120596C05E
:1020A80003C002C0011206A9D001D002D003120C4D
:1020B8003E12016812030ED3120BB7908D644008CC
:1020C800120D6B900011800312026C120C0E12019B
:1020D8006890000B120C58021E0A1201681203685D
:0720E80044401208AA7F002A
:0120EF0022CE
:064C2D009083A6120D8B1E
:104C3300C003C002C0017B017A8379A9120308D0A3
:104C430001D002D00312594DEF6003024D1E12062C
:104C5300B212059020E603024D1E9083AC120CF0B5
:104C63004C2100001206B290001D120C0E9083A975
:104C7300120D6B12586BEF6003024D1E1206B290B9
:104C83000021120E039083B0120D8B9083B0120D8E
:104C93006BE9240B12036B44201208AA9083A6121B
:104CA3000409C003C002C0019083B0120D6B90834E
:104CB300F4120D8B9083A6120348120C0E9083F707
:104CC300120CE4D001D002D003125EB79083B0126D
:104CD3000412C003C002C0019083A612026C120C1E
:104CE3000ED001D002D003124D1FE92416F9E43A85
:104CF300FA9083AC120C7C124D1FE92412F9E43AAA
:104D0300FAE4FDFC1260B89083A91201AD12481DAC
:0B4D13001206B212036854BF1208AA77
:0B4D1E002212606F9083B0120D6B2218
:065E1D009083A0120D8B22
:105E2300124C2DEF70277B017A8379A3120308901C
:105E330083A0120D6B12594DEF7012FBFAF9C003D8
:0D5E4300C002C0019083A0120D6B120DB4BF
:015E5000222F
:09272E001206B89083A0120D8B75
:10273700C003C002C0017B017A8379A8120308D0C5
:1027470001D002D00312594D9083A7EFF0700A12FF
:10275700019D12081F9083A7F09083A7E0FF6001F7
:102767002212019D1208049083A3120190400F12B8
:10277700019D12059020E1061208041206B8120105
:102787009D12082E9083B7120CE49083B3120CF0BD
:1027970000000000900011120D3B00000000E4FF54
:1027A700FEFDFC9083A312019050030229AB908396
:1027B700A81201591204FF9083AF1201BB9083B78F
:1027C70012019040671201279083AF120C88120AFA
:1027D700FEC004C005C006C0079083A312012A905B
:1027E70083AF120C881200E7D007D006D005D004BB
:1027F700C3120BB740369083AF12012A120BAA12ED
:1028070000EA120127120B9012019D900011120C81
:10281700581206BE120314120A651206B812019D59
:102827001206969083AB120CE402287E12019D12C9
:1028370007809083AB1201BB9083AB12002F7031DE
:1028470012019D12026012316A9083AB1203A090AD
:1028570083AB12002F700302297A1202D99083AB3F
:1028670012002F700302290C120197900007120C17
:102877005812019712058AE4FFFEFDFC9083AB1204
:10288700002F70030229AB9083AF120C7C9083A3B7
:1028970012019050030229371206BE9083AF12042B
:1028A700261206B812019D120596C003C002C00188
:1028B700120BEE9083AF120570D001D002D0031235
:1028C7000C3E12019D12059030E12012083412319E
:1028D7006A9083AB1201BB9083AB12002F701B90E1
:1028E70083A3120CF000000000804512019D12081E
:1028F70034123A8C9083AB120CE41202D99083AB5A
:1029070012002F700712019D12052D221203A390AA
:1029170083AB120190400E9083A812011E9083ABE7
:1029270012002F4002804C12019712058A02288E4E
:1029370012019D120596C003C002C001120BEE9052
:1029470083A3120570D001D002D003120C3E1206E9
:10295700BE1201D0FCEE4F604B9083A8120D6B1294
:102967000834125BA39083B31201BB9083B31200A8
:102977002F700912019D1203D87F02229083B31290
:102987000C88C000C001C002C0031203551206BE66
:10299700120AFED003D002D001D000120A58908349
:1029A700B3120CE412019D12030ED3120BB740149D
:1029B70012019D12082E90000B120C581203684446
:1029C700401208AA12019D1201CAFCEE4F6017902F
:1029D7000019120C0E9083B312002F60099083B375
:0B29E70012019A1206909083A7E0FFF7
:0129F20022C2
:034FD500908DBC00
:104FD8001207D370037F09227B017A8D79C31204EB
:104FE8003EE49083F7F07A8D79BF120FAB908DC2B3
:104FF800EFF0600302508AA3120D6BC003C002C019
:105008000112083A120DB4908DBF1207EE12083A39
:10501800125173908DC2EFF0705E908DBC1202EF4A
:1050280020E72F90000512087D30E420908DBC12F7
:1050380000A89083FE120D8B908DC3120D6B125C2D
:105048005B908DBC120348120C588006908DC27478
:1050580005F0908DC2E07020A312065C12099CFF37
:10506800908DBC120683E5F08FF0120A2B120260B5
:105078001240ED908DC2EFF0908DC2E0B40403743D
:1050880005F0908DC2E0600F12055FC003C002C03A
:0C5098000112083A120DB4908DC2E0FF26
:0150A40022E9
:065E5100908DDF120D8BA5
:105E5700C003C002C0017B017A8D79E2120308D02A
:105E670001D002D00312594DEF7012FBFAF9C003AB
:0D5E7700C002C001908DDF120D6B120DB442
:015E840022FB
:065A2600908DC6120D8BED
:105A2C00C003C002C0017B017A8D79CC120308D06F
:105A3C0001D002D00312594DEF7043908DC912045E
:105A4C00E5700B908DC612025D1240ED8030120590
:105A5C009E12427DEFB40402E4FFEF7021908DC9D9
:105A6C00120D6B908D86120D8B908DC6120D6B12D4
:0E5A7C0020F012059E1238DEEFB40402E4FFA3
:015A8A0022F9
:063C2E00908D23120D8BA6
:103C34007B017A8D795B12043EE49083F7F07A8DF0
:103C44007923120FAB908D2CEFF06003023D659049
:103C54008D261204E57003023D65120840908D2DF7
:103C6400120D8B908D34120CF0000000007B017A51
:103C74008D792D1202601240ED908D2CEFF06003CF
:103C8400023D507B017A8D792D7D01FC12427D909D
:103C94008D2CEFF06003023D50908D60F0A3F09006
:103CA4008D5EF0A3F01206034003023D2F12084676
:103CB40012014F12042CFF1205A8908D62A3E0FF9D
:103CC4001262EBEF4E6019120603501412084612EA
:103CD400014F12042CFD908D63E0FFEDCF1205A976
:103CE400908D621207B6125BFF908D621204B5606C
:103CF40021908D621202011205B1E0F8A3E029F9C6
:103D0400EA38FA908DA9E4F0A37404F01246D012B4
:103D140005A8908D6212057D7008908D60F0A3F067
:103D24008009908D601202BE023CA91205B1E0FE2A
:103D3400A3E0FFF5828E83E41208BCEF4E600D12FF
:103D440005B112027612042C642060DF908D2CE001
:103D5400B4040E908D26120D6BE41208AA908D2CDB
:103D6400F0908D2CE07056908D291204E5604E126F
:103D7400084090001E120C0E12084012586B908DD1
:103D84002CEFF07038908D5B12020E24FD600B1442
:103D940070101208507464F0800E1208507443F0CE
:103DA40080061208507427F012009D908D60120155
:103DB4007E1258DD908D29120D6B120C3E908D2CC5
:023DC400E0FF1E
:013DC60022DA
:06355E00908CD0120D8BD1
:103564007B017A8D790212043E9083F77402F07A1B
:103574008C79D0120FAB908CD3EFF06003E0FF2274
:103584007B017A8D790590843D1202567D207C0062
:10359400126135E4908D1BF0A3F0908CD012020ED2
:1035A400FF1206F3500302364C7B017A8C79D01259
:1035B4004580908D1F120CE4120611908D1F12008D
:1035C4002F5018908D1F120C7C123F5A90841B743C
:1035D40001F0A374B5F012574A80047E007F009076
:1035E4008D1D1204B560387B017A88792C908D1D6D
:1035F400E0FEA3E0FFFDAC06126094EF4E70209055
:103604008D1D1203B4EC94017E0040047F0A8002F5
:103614007F0BC3908D1CE09F908D1BE09E40037F29
:103624000622C3EC9401400E908D1DE0FF908D1B8B
:1036340012014F1205EB908D1DA3E0FF908D1B121C
:10364400014F1205EB02359E908D05E0B4E5037F32
:103654000622908D1B12057D601674042FF582E4FA
:10366400348DF583E0B42008908D1B12027680E23D
:10367400908D02120D6B908CD4120D8B908CDB12FA
:103684000CF0000000001208571202601240ED9086
:103694008CD3EFF060030237241208577D01FC122B
:1036A400427D908CD3EFF0701F908D1BE07002A3CD
:1036B400E0600B12024712085E125DE880541208A3
:1036C4005E74E51208AA804A908CD3E064047050BA
:1036D400F0908D1BE07002A3E060451208577D0155
:1036E4007C001257DC908CD3EFF0703412085E1219
:1036F4000669126135908CEF12026C74081208BCD2
:10370400C003C002C001120247D001D002D003128C
:103714005DE8908D021201AD12481D908CD3EFF03C
:05372400908CD3E0FFD2
:01372900227D
:09627B0090842DEFF0E4FEFF22F7
:0762BA00126118E4FEFF224F
:10602300C007908467120C7C908471120CE49084F6
:106033006BE0FFA3E0908475CFF0A3EFF0D00712DD
:066043004EFCE4FEFF220A
:10604900C00790846B120C7C908475120CE49084C8
:106059006FE0FFA3E0908479CFF0A3EFF0D00712AF
:066069005488E4FEFF2252
:055D3400908DFAEFF074
:105D3900ED14602414600B14601324037025E4FC33
:105D49008023120D2100000200E4FC8018120D21AD
:105D590000000008E4FC800D120D2100080000E499
:095D6900FC80027C04ECFF7E00CA
:015D7200220E
:0A624B00EFF0A3120D8BE4FEFF221A
:0962840090842DEFF0E4FEFF22EE
:09628D0090842EEFF0E4FEFF22E4
:0762C10090846312624B227E
:0762C80090846712624B2273
:055D7300908DFBEFF034
:105D7800ED14602414600B14601324037025E4FCF4
:105D88008023120D2100000200E4FC8018120D216E
:105D980000000008E4FC800D120D2100080000E45A
:095DA800FC80027C04ECFF7E008B
:015DB10022CF
:101615006100872C00C700FC00E900E200E400E05F
:1016250000E500E700EA00EB00E800EF00EE00EC63
:1016350000C400C500C900E600C600F400F600F2CB
:1016450000FB00F900FF00D600DC00A200A300A506
:1016550020A7019200E100ED00F300FA00F100D1AE
:1016650000AA00BA00BF231000AC00BD00BC00A159
:1016750000AB00BB259125922593250225242561E4
:10168500256225562555256325512557255D255C5C
:10169500255B251025142534252C251C2500253CE6
:1016A500255E255F255A2554256925662560255023
:1016B500256C2567256825642565255925582552F6
:1016C5002553256B256A2518250C25882584258C09
:1016D5002590258003B100DF039303C003A303C353
:1016E50000B503C403A6039803A903B4221E03C6C9
:1016F50003B52229226100B122652264232023211A
:1017050000F7224800B0221900B7221A207F00B244
:1017150025A000A061F2847E0061031A00E0031792
:1017250000F8030700FF00010178010001300132D4
:10173500010601390110014A012E017901060180D6
:10174500004D0243018101820182018401840186E9
:10175500018701870189018A018B018B018D018E2A
:10176500018F0190019101910193019401F6019678
:10177500019701980198023D019B019C019D022062
:10178500019F01A001A001A201A201A401A401A63B
:1017950001A701A701A901AA01AB01AC01AC01AEEA
:1017A50001AF01AF01B101B201B301B301B501B59B
:1017B50001B701B801B801BA01BB01BC01BC01BE4A
:1017C50001F701C001C101C201C301C401C501C4C2
:1017D50001C701C801C701CA01CB01CA01CD01106A
:1017E50001DD0001018E01DE011201F3000301F1AB
:1017F50001F401F401F8012802220112023A00095C
:101805002C65023B023B023D2C66023F0240024131
:1018150002410246010A0253004001810186025538
:101825000189018A0258018F025A0190025C025D0A
:10183500025E025F01930261026201940264026525
:101845000266026701970196026A2C62026C026DBC
:10185500026E019C02700271019D02730274019F68
:101865000276027702780279027A027B027C2C6486
:10187500027E027F01A60281028201A902840285FD
:101885000286028701AE024401B101B20245028D12
:10189500028E028F0290029101B7037B000303FDC4
:1018A50003FE03FF03AC0004038603880389038A50
:1018B50003B1031103C2000203A303A303C4030876
:1018C50003CC0003038C038E038F03D8011803F2A6
:1018D500000A03F903F303F403F503F603F703F72B
:1018E50003F903FA03FA04300320045007100460D7
:1018F5000122048A013604C1010E04CF000104C08F
:1019050004D0014405610426000060BC86701D7D7D
:1019150000012C631E0001961EA0015A1F00060837
:101925001F1006061F2006081F3006081F40060662
:101935001F5100071F591F521F5B1F541F5D1F5664
:101945001F5F1F6006081F70000E1FBA1FBB1FC850
:101955001FC91FCA1FCB1FDA1FDB1FF81FF91FEA9C
:101965001FEB1FFA1FFB1F8006081F9006081FA00C
:1019750006081FB000041FB81FB91FB21FBC1FCC3B
:1019850000011FC31FD006021FE006021FE500016C
:101995001FEC1FF300011FFC214E000121322170B5
:1019A500021021840001218324D0051A2C30042F34
:1019B5002C6001022C6701062C7501022C80016444
:0A19C5002D000826FF41031A000060
:105CF400E4FFFE7D01FC120C88C3020BB7908427DD
:105D0400E475F002120D74120971FF22FE120D6B7C
:105D14008F828E8312099CFF22FEEF25E0FFEE3373
:105D24002290842EF0A3EFF022E0FEA3E0FFC32232
:06574A00908417120CE42C
:10575000E490841DF0A3F07B017A87792CA3120DCD
:105760008BE47F80FEFDFC908417125CFA500C9055
:105770008417120C7C90841DEE8054908417125C68
:10578000F4505090841BE064017004A3E064B57091
:105790004290841DF0A3F090841D125D2D9480EE44
:1057A00094005020125D1EA3125D10AEF0E4FCFDCB
:1057B000908417125CFA600C90841DE475F001125D
:1057C000094580D390841EE02480FF90841DE4F07E
:0B57D000A3EFF090841DE0FEA3E0FFBB
:0157DB0022AB
:105BFF00908DF1ECF0A3EDF0908DEFEEF0A3EFF0C0
