:10099C0063007000760072006400610073006600F2
:0509AC00410001000004
:1006E900E2FE08E2FF08E2FC08E2FDC39FEC9E225D
:1006F90074FFFFFE120A841207FCD2B7D2B6227821
:100709009C12026402011C789FE2FE08E2FF789CB9
:1007190012026478A1E222EEF208EFF20802026DF9
:10072900E22401F218E23400F222E2FC08E2F58246
:0B0739008C8322E22DFF18E23CFE2220
:0608BD00789BE2FF7E00C3
:1008C300EF30E003C38001D392B2EF30E103C38082
:0F08D30001D392B3EF30E203C38001D392B4227A
:070A8400EFF580EEF5902272
:0307FC008FA022A9
:030A9D00AFA022E5
:0C0A3E001206F9D2B57F647E0002086E3B
:060A8B001206F9C2B522BB
:0F096A007DAA7455FFFE1209797D557FAA7E2A5A
:0D097900120A84AF051207FCC2B7D2B722E4
:090A6200D2B57F2C7E0102086E62
:060A91001206F9C2B522B5
:10000300120A847FFF1207FCC2B6120AA0120A9DCD
:0D00130078ACEFF2D2B6120AA078ACE2FF92
:0100200022BD
:090A6B00D2B57F2C7E0102086E59
:0C0A4A0012096A7DA07455FFFE020979B4
:10094D0012096A7D807455FFFE1209797DAA7455CE
:0D095D00FF1209707D207455FFFE0209791C
:0507440078A31207205C
:10074900120A8B12094D7F147E0012086EE478AAF2
:10075900F208F278A81206E9501D78A412073C782D
:10076900A512026478AA120733120135FD1209791C
:0A07790078AB12072980DC020A6247
:0507830078A31207201D
:10078800120A91E478AAF208F278A81206E950222F
:1007980078A412073C12000378A512026478AA1202
:1007A80007331201356F60037F002278AB120729E7
:0707B80080D7120A6B7FFFDE
:0107BF002217
:0508390078A312072066
:10083E00120A91E478AAF208F278A81206E9501D7D
:10084E0078A412073C12000378A512026478AA124B
:10085E000733EF12016278AB12072980DC020A6BB4
:10054700780012023F780012022678081201ECE4C4
:10055700FFE4FDFCC004C005C006C0077800120216
:100567002678181201ECE4FEFDFCD003D002D0017E
:10057700D0001201CEC004C005C006C00778001223
:1005870002267808120213E4FFFEE4FCD003D0022F
:10059700D001D0001201CEC004C005C006C0077844
:1005A700001202267818120213E4FFFEED54F0FD44
:1005B700EC540FFCD003D002D001D0001201CE22A0
:060A2F00120196FFAEF07B
:090A3500AD07EDFAEEFFEAFE2226
:10068D0078047C007DFE7BFF7A0979AC7E007F05C6
:10069D001200F67805120226120547780912023F5C
:1006AD00780912024B00000000E4FF7E04FDFC7887
:1006BD0009120232C31201DB5021780912022612EF
:1006CD000A847809120226EF2401FFE43EFEE43D80
:0B06DD00FDE43CFC780912023F80CED7
:0106E80022EF
:10027600E4789BF2FBFAF90812026D789BE2FFB470
:10028600090050F790029025E07341A241C241DA7D
:100296006111614B617961F761FC81047E0012088E
:1002A600C37F807E25120896EF4E6007789B740107
:1002B600F280C87FF47E0112086E80121204611269
:1002C600011CB443097A09799C1204758039E478D3
:1002D6009BF280A712046112011CB450087BFF7ABE
:1002E60009799E6141120708B456087BFF7A09799D
:1002F600A0616B120708B4520E7A0979A21204752E
:0B030600789B7405F24181789B61FF39
:1003110012044AB44402618C1207086441705512F8
:10032100040C12047F08E2FD08E278A8CDF208ED82
:10033100F21207441207101204A0600C7A0979A87E
:0A0341001204967403F2418161E595
:10034B0012044AB44402618C1207086441701B12F8
:10035B00040C12047F08E21204A0600C7A0979A83D
:0C036B001204967404F2418161E57BFFEE
:0203770061E53E
:100379001208BD7F05120986789C12026D12011CB4
:10038900B4440E7A0979A41204B1789B7407F24136
:100399008112070864417042900001120A2F789F68
:1003A900EEF208EFF2789C120264900003120A2F11
:1003B90078A1EEF208EFF27A0979A61204B11207D0
:1003C90010FD08E278A8CDF208EDF21208391207FB
:1003D90017FC08E2FD120A1F41817BFF7A0979AAFD
:0C03E9007D017C00120A1F789B7406F254
:1003F50041811208BD80031208BD7402F2418112C9
:0704050008BD7401F2418102
:10040C00789C120264900001120196FFAEF0120A61
:10041C0035789FEEF208EFF2789C1202649000039C
:10042C00120196FFAEF0120A3578A1EEF208EFF247
:10043C007BFF7A0979A67D017C00120A1F22789B2A
:10044C00E2FF7E001208C37F05120986789C120217
:10045C006D12011C22789BE2FF7E001208C37F0103
:10046C00120986789C12026D227BFF7D017C0012A2
:10047C000A1F2278A1E2FE08E2FF120986789C127C
:10048C00026D789FE2FE08E2FF227D017C00120AD9
:10049C001F789B22FD08E278A8CDF208EDF2120736
:0F04AC0083EF7BFF227BFF7D017C00120A1F2262
:100A0E00821303E8820D0032821703E8821500324A
:1009C600AC06AD07E2FE08E2FF020184C3EF9480A5
:0409D600EE94002279
:1007C00078AAEEF208EFF2C28C5389F0438901183F
:1007D000E2FE08E2FBE4C39BFFE49EFE740194008A
:1007E000FDE49400FC78081201FF8F8C78AA08E2DF
:0C07F000FBE4C39BFF8F8AC28DD28C22D9
:1009EC00780D1209C67814E22FFF18E23EFE0207BA
:0109FC00C03A
:1009FD0078151209C67818E22FFF18E23EFE02079D
:010A0D00C028
:060A9700A28DE433FF22F2
:0300230002062BA7
:10062B00C0E0C0D075D000C000C007309824781946
:10063B00E2701D780FE2FF04F2741B2FF8E599F2BC
:10064B007811E2FF780FE2C39F4005781974FFF22F
:10065B00C298309924781AE2701D7810E2FF04F2E8
:10066B00741B2FF8E2F5997812E2FF7810E2C39F22
:10067B004005781A74FFF2C299D007D000D0D0D0C1
:02068B00E0325B
:1008E200E4FFFE2099FD1209D2500D741B2FF8E48B
:1008F200F20FBF00010E80EEE47810F27812F27867
:040902001A74FFF272
:0109060022CE
:0C05C70078A512026D78A8ECF208EDF2A5
:1005D300E4FFFE781AE260FB2099F8C378A9E2945D
:1005E3008018E294004006E4F2087480F2D378A9FC
:1005F300E29F18E29E401A78A51202648F828E83CE
:10060300120135FD741B2FF8EDF20FBF00010E80B0
:10061300DCE47810F278A8E2FE08E2FF7812F2E454
:08062300781AF2D2990209FDD8
:080A74002099FD781AE2FF222F
:0F0A1F00E478A3F208F21205C7120A74EF60FA26
:010A2E0022A5
:10090700E4FFFE2098FD1209D2500D0FEF70010E83
:1009170014241BF8E4F280EEE4780FF27811F278F1
:040927001974FFF24E
:01092B0022A9
:10080000E4FDFC7819E260FB2098F81209D240045C
:100810007E007F80C3ED9480EC9400500D0DED7050
:10082000010C14241BF8E4F280EAE4780FF278114A
:09083000EFF2E47819F20209EC80
:080A7C002098FD7819E2FF2229
:10098600E478A3F208F2120800120A7CEF60FA7B00
:05099600FE7A00791B50
:01099B002239
:1008960078A3EEF208EFF21208E2120907759850F3
:1008A600758921758780758DFA758BFAD2ACD2AFB2
:0708B600D28E7EFF7FFF22BE
:030AA00000002231
:0909DA001209E31209E31209E31A
:0809E3007F017E02DEFEDFFA57
:0109EB0022E9
:0909B1001209BA1209BA1209BABE
:0C09BA001209DA1209E31209DA0209E35B
:0C0A56001209B11209BA1209B10209BA62
:10092C00EF64014E70020022E4FDFCC3ED9FEE6407
:10093C0080F8EC6480985008000DBD00010C80EB31
:01094C002288
:04086E00AD07AC0620
:10087200ED64014C7003020A56E4FBFAC3EB9DECF3
:100882006480F8EA648098500A120A560BBB000191
:030892000A80E9F0
:010895002240
:030000000204BB3C
:0C04BB00787FE4F6D8FD75810702050289
:10002600E709F608DFFA8046E709F208DFFA803EBC
:1000360088828C83E709F0A3DFFA8032E309F608A9
:10004600DFFA8078E309F208DFFA807088828C8311
:10005600E309F0A3DFFA806489828A83E0A3F608C5
:10006600DFFA805889828A83E0A3F208DFFA804C9F
:1000760080D280FA80C680D4806980F28033801076
:1000860080A680EA809A80A880DA80E280CA8033DF
:1000960089828A83ECFAE493A3C8C582C8CCC58357
:1000A600CCF0A3C8C582C8CCC583CCDFE9DEE78027
:1000B6000D89828A83E493A3F608DFF9ECFAA9F0A6
:1000C600EDFB2289828A83ECFAE0A3C8C582C8CCFC
:1000D600C583CCF0A3C8C582C8CCC583CCDFEADE15
:1000E600E880DB89828A83E493A3F208DFF980CC77
:1000F60088F0EF60010E4E60C388F0ED2402B40470
:100106000050B9F582EB2402B4040050AF23234516
:06011600822390007673C5
:10011C00BB010689828A83E0225002E722BBFE02E1
:09012C00E32289828A83E4932214
:10013500BB010CE58229F582E5833AF583E022507F
:1001450006E92582F8E622BBFE06E92582F8E222C9
:0D015500E58229F582E5833AF583E49322E3
:10016200F8BB010DE58229F582E5833AF583E8F0D3
:10017200225006E92582C8F622BBFE05E92582C87F
:02018200F22267
:10018400EF8DF0A4A8F0CF8CF0A428CE8DF0A42E8F
:02019400FE2249
:10019600BB0110E58229F582E5833AF583E0F5F0A7
:1001A600A3E0225009E92582F886F008E622BBFE84
:1001B6000AE92582F8E2F5F008E222E5832AF583CA
:0801C600E993F5F0A3E993228F
:0D01CE00EF4BFFEE4AFEED49FDEC48FC2230
:1001DB00EB9FF5F0EA9E42F0E99D42F0E89C45F07A
:0101EB0022F1
:1001EC00E8600FECC313FCED13FDEE13FEEF13FFF1
:0301FC00D8F12215
:1001FF00E86010ECA2E713FCED13FDEE13FEEF1316
:04020F00FFD8F02202
:10021300E8600FEFC333FFEE33FEED33FDEC33FC49
:03022300D8F122ED
:0C022600E2FC08E2FD08E2FE08E2FF2214
:0D023200E2FB08E2F908E2FA08E2CBF8224C
:0C023F00ECF208EDF208EEF208EFF222FB
:10024B00D083D082E493F208740193F20874029382
:09025B00F208740393F2740473B9
:09026400E2FB08E2FA08E2F922CB
:09026D00EBF208EAF208E9F222C2
:1004C700020276E493A3F8E493A34003F68001F2D3
:1004D70008DFF48029E493A3F85407240CC8C33336
:1004E700C4540F4420C8834004F456800146F6DF05
:1004F700E4800B0102040810204080900A0EE47E7D
:10050700019360BCA3FF543F30E509541FFEE493F9
:10051700A360010ECF54C025E060A840B8E493A3C0
:10052700FAE493A3F8E493A3C8C582C8CAC583CAEB
:10053700F0A3C8C582C8CAC583CADFE9DEE780BEA3
:010A1E0000D7
:00000001FF
