:100338006300700076006400730066000001020329
:100348000405060708090A0B0C0D0E0F000102032D
:100358000405060708090A0B0C0D0E0F000102031D
:100368000405060708090A0B0C0D0E0F000102030D
:100378000405060708090A0B0C0D0E0F00010203FD
:100388000405060708090A0B0C0D0E0F00010203ED
:100398000405060708090A0B0C0D0E0F00010203DD
:1003A8000405060708090A0B0C0D0E0F00010203CD
:0C03B8000405060708090A0B0C0D0E0FC7
:1004B2009000971202FE020211E0FEA3E0FFA3E009
:1004C200FCA3E0FDC39FEC9E227A03794074FF9067
:1004D20000A7F0A32290009E1202E69000A7EEF081
:1004E200A3EFF0229000A20202E6EEF0A3EFF0A347
:1004F200120307E422A3E0F5828C8302022A900011
:0E050200A77401F0A374F42290009A0202E69E
:10000300EF30E003C38001D392B2EF30E103C3804A
:0F00130001D392B3EF30E203C38001D392B42242
:10081F00E4FFFE0FEFAC0670010E14C39410EC94BE
:03082F002740F06F
:0108320022A3
:0708A000EFF580EEF5902258
:07087A0074FFFFFE1208A04D
:030881008FA02223
:0307FC00AFA02289
:1008450012087AD2B7D2B6D2B57F0A7E000207580F
:0A08840012087AD2B7D2B6D2B5221C
:100800001208A0AF051208811208B5C2B51208B5CA
:0F081000C2B71208B5D2B51208B5D2B70208B5F3
:0D08550012087A1208B5D2B5D2B7D2B62279
:1006AF001208A01208B5C2B51208B5C2B61208B525
:1006BF001207FC9000ADEFF01208B5D2B51208B5D5
:0A06CF00D2B61208B59000ADE0FFAE
:0106D90022FE
:0708A7007FE87E0302075801
:0708AE007FE87E03020758FA
:1006DA001206F27D807455FFFE1208001206F27DA2
:1006EA00207455FFFE0208007DAA7455FFFE120809
:0B06FA00007D557FAA7E2A1208002216
:030567009000A25F
:10056A001204EC9000ACF0A3F01208841206DA121E
:10057A000884E49000A9F0A3F09000A71204BB50ED
:10058A00289000A3E02DFF9000A2E03CFE9000A47A
:10059A001202FE9000A91204F7FD1208009000A9A9
:1005AA00E475F00112025780D01208A77F647E001A
:0305BA00020758DD
:0305BD009000A209
:1005C0001204EC9000ABF0A3F0120855E49000A9DF
:1005D000F0A3F09000A71204BB502F9000A3E02DD1
:1005E000FF9000A2E03CFE1206AF9000A41202FEB3
:1005F0009000A9E0FC1204F76F60037F00229000D6
:0F060000A9E475F00112025780C91208AE7FFFFE
:01060F0022C8
:1003C4009000A21202F21204E67808120290E4FFEE
:1003D400E4FDFCC004C005C006C0071204E678189A
:1003E400120290E4FEFDFCD003D002D001D0001232
:1003F4000283C004C005C006C0071204E6780812D0
:1004040002A3E4FFFEE4FCD003D002D001D000122A
:100414000283C004C005C006C0071204E67818129F
:1004240002A3E4FFFEED54F0FDEC540FFCD003D026
:0904340002D001D0001202832263
:10002600E4900096F0FBFAF9A3120307900096E01D
:10003600FFB4070050F690004225E07301500164BA
:10004600017A01BF2112216A21757E001200037F09
:10005600807E251207309000967401F080CE120142
:10006600B7B443097A0379381201D401B7E4900092
:1000760096F080B81201B7B4500F7A03793A12019C
:10008600D49000967403F001321204B2B456117B78
:10009600FF7A03793C1205001202057404F001325E
:1000A6001204B2B4440B7B007A0079641205002175
:0900B600439000967402F001323F
:1000BF001201E8B4440221181204B2645060022104
:1000CF005112017912050AC006C00790009E120254
:1000DF00E69000A7EEF0A3EFF0D007D00612056769
:1000EF0012050AC006C0079000971202FE1204D72D
:1000FF00D007D0061205BDEF7BFF60051204CB21A0
:03010F0043214B3E
:100112001201E8B444087BFF7A03793E21571204A6
:10012200B26456702A12017912050AC006C007127B
:1001320004D7D007D0061205BDEF7BFF600B120477
:10014200CB1202057406F001327A03794280067BF3
:10015200FF7A0379421204CFF07D017C00120780FE
:060162009000967405F008
:1001680001327FFA7E00120758B2B50132C2B501DA
:010178003254
:100179009000971202FE9000011202B61203C49079
:10018900009A1202F29000971202FE9000051202E4
:10019900B61203C490009E1202F290009E1202E66B
:1001A90074FFFDFC12067E9000971203072290004F
:1001B90096E0FF7E0012000374FFFDFC7F0112062A
:1001C9007E900097120307120211227BFF9000A76D
:1001D9007401F0A374F4F07D017C00120780229071
:1001E9000096E0FF7E0012000374FFFDFC7F0912F8
:1001F900067E90009712030712021122F07D017CFE
:0802090000120780900096220C
:1007A500A3E475F00112026DFCD3EF95F0EC6480C3
:1007B500F8EE6480982274842FF582E43400F58382
:0107C5002211
:0300230002043D97
:10043D00C0E0C083C082C0D075D000C00730982FF7
:10044D00900094E07027900000E0FF04F074042FFA
:10045D00F582E43400F583E599F0900002E0FF9019
:10046D000000E0C39F400690009474FFF0C29830E6
:10047D009928900095E07020900001E0FF04F012A3
:10048D0007BBE0F599900003E0FF900001E0C39FEA
:10049D00400690009574FFF0C299D007D0D0D0825D
:0504AD00D083D0E03215
:10070500E4FFFE2099FDC3EF9410EE9400500C1207
:1007150007BBE4F00FBF00010E80EBE4900001F091
:0A072500900003F090009574FFF0BF
:01072F0022A7
:0E0510009000AB1203079000AEECF0A3EDF0EC
:10051E00E4FFFE900095E060FA2099F7D39000AFCB
:10052E00E09F9000AEE09E401A9000AB1202FE8F4C
:10053E00828E8312022AFD1207BBEDF00FBF00015F
:10054E000E80D9E4900001F09000AEA3E09000037D
:08055E00F0E4900095F0D29941
:010566002272
:09088E002099FD900095E0FF2285
:10078000E49000A9F0A3F012051012088EEF701487
:100790009000A7E0FEA3E0FFF47002EEF460EB121D
:0407A00007A550E673
:0107A4002232
:10064A00E4FFFE2098FDC3EF9480EE940050150F4E
:10065A00EFAC0670010E142404F58274003CF58395
:10066A00E4F080E2E4900000F0900002F090009440
:03067A0074FFF01A
:01067D00225A
:10061000E4FDFC900094E060FA2098F7C3ED94802C
:10062000EC940050150DEDAA0470010C142404F58F
:100630008274003AF583E4F080E2E4900000F090E8
:090640000002EFF0E4900094F0D8
:01064900228E
:090897002098FD900094E0FF227E
:08067E009000A2ECF0A3EDF0E6
:10068600E4A3F0A3F0120610120897EF701490007E
:10069600A2E0FEA3E0FFF47002EEF460EB1207A501
:0806A60050E67B017A007904A3
:0106AE002229
:100730009000A2EEF0A3EFF012070512064A75989A
:1007400050758920758780758DFA758BFAD2ACD279
:08075000AFD28E7EFF7FFF2275
:0208B50000221F
:0908330012083C12083C12083CBA
:08083C007F017E02DEFEDFFAFF
:010844002291
:0907E7001207F01207F01207F0EE
:0C07F00012083312083C12083302083CC7
:0C0862001207E71207F01207E70207F088
:1007C600EF64014E70020022E4FDFCC3ED9FEE646F
:1007D60080F8EC6480985008000DBD00010C80EB99
:0107E60022F0
:04075800AD07AC0637
:10075C00ED64014C7003020862E4FBFAC3EB9DEC00
:10076C006480F8EA648098500A1208620BBB00019E
:03077C000A80E907
:01077F002257
:0300000002086E85
:0C086E00787FE4F6D8FD758107020026B3
:10021100BB010689828A83E0225002E722BBFE02EB
:09022100E32289828A83E493221E
:10022A00BB010CE58229F582E5833AF583E0225089
:10023A0006E92582F8E622BBFE06E92582F8E222D3
:0D024A00E58229F582E5833AF583E49322ED
:10025700C5F0F8A3E028F0C5F0F8E5821582700232
:060267001583E038F022CF
:10026D00A3F8E0C5F025F0F0E58215827002158344
:06027D00E0C838F0E822A1
:0D028300EF4BFFEE4AFEED49FDEC48FC227A
:10029000E8600FECC313FCED13FDEE13FEEF13FF4C
:0302A000D8F12270
:1002A300E8600FEFC333FFEE33FEED33FDEC33FCB9
:0302B300D8F1225D
:1002B600BB010DE58229F582E5833AF5830202E664
:1002C6005007E92582F8020310BBFE07E92582F8EC
:1002D60002031CE58229F582E5833AF583020328A9
:0C02E600E0FCA3E0FDA3E0FEA3E0FF228B
:0C02F200ECF0A3EDF0A3EEF0A3EFF0227F
:0902FE00E0FBA3E0FAA3E0F92201
:09030700EBF0A3EAF0A3E9F022F7
:0C031000E6FC08E6FD08E6FE08E6FF2219
:0C031C00E2FC08E2FD08E2FE08E2FF221D
:10032800E493FC740193FD740293FE740393FF221B
:00000001FF
