:1008E100417373657274206661696C65643A207343
:1008F100697A653C3D313238202866696C6520256E
:1009010073206C696E65202564290A006D61696E2A
:030911002E630052
:100638007B017A017917900199E0FCA3E0FD74FF32
:100648009001A0F0A3F022A3E0FFA3E0900197CFD0
:10065800F0A3EFF090011CE0FEA3E0FF900199EEFB
:10066800F0A3EFF0D39480EE9400229001A0E0FE76
:10067800A3E0FFA3E0FCA3E0FDC39FEC9E22900152
:1006880097E0FEA3E0FF7B017A017917227BFF7ACE
:1006980009790D90019E1205C79001A17401F0A37C
:1006A80022E0FCA3E0F5828C830205437B007A00FC
:1006B8009001A07401F0A374F4229001A2E475F0F3
:1006C8000102059290019CE02DFF90019BE03CFE09
:1006D80022EEF0A3EFF0A31205C7E42290019D12C9
:0606E80005BE9001A222F4
:070B3500EFF580EEF59022C0
:070B180074FFFFFE120B3514
:030B1F008FA02282
:030B4A00AFA02237
:100AE300120B18D2B7D2B6D2B57F0A7E000209F331
:0A0B2200120B18D2B7D2B6D2B522DA
:10000300120B35AF05120B1F120000C2B512000010
:0F001300C2B7120000D2B5120000D2B70200002F
:0D0AF300120B18120000D2B5D2B7D2B622F5
:10097300120B35120000C2B5120000C2B6120000FD
:10098300120B4A9001A6EFF0120000D2B51200003C
:0A099300D2B61200009001A6E0FFAA
:01099D002237
:070B3C007FE87E030209F3CC
:070B43007FE87E030209F3C5
:10099E001209B67D807455FFFE1200031209B67D52
:1009AE00207455FFFE0200037DAA7455FFFE12004F
:0B09BE00037D557FAA7E2A1200032251
:03075C0090019B6E
:10075F001206D99001A4F0A3F0120B2212099E12D7
:10076F000B22E49001A2F0A3F012067350121206AE
:10077F00CC1206E41206ABFD1200031206C280E98A
:10078F00120B3C120AF3E49001A2F0A3F0120673CD
:10079F0050171206CC1209731206E41206A96F60E5
:0E07AF00037F00221206C280E4120B437FFF7C
:0107BD002219
:0308510090019B78
:100854001206D99001A4F0A3F0120AF3E49001A2C5
:10086400F0A3F09001A0120676502990019CE02D8F
:10087400FF90019BE03CFE12097390019D1205BE9E
:100884009001A21206A96F60037F00229001A212B8
:0908940006C580CF120B437FFF63
:01089D002238
:10038B00E4900116F0C2B0C2B1C2B2900116E0B453
:10039B00070050F79003A525E07361B361C261EAD2
:1003AB00813F819D81FCA1097F807E2512094490AC
:1003BB0001167401F080D412068E9001A01206BBB8
:1003CB00F07D017C001207BEB2B0900117E0B44380
:1003DB000779631206B4818FE4900116F080ACD2DA
:1003EB00B012068E1206467D017C001207BE9001EC
:1003FB0017E0B4500D797012050D9001167403F0CF
:10040B006196900117E0B4560D797612050D9001A7
:10041B00167404F06196900117E0B44415796412D8
:10042B0006B4F07D017C00120A429001167406F0AE
:04043B00619681E560
:10043F0012068E120646120537645060026196123C
:10044F00064F400F1206957418F07A0879E11200E2
:10045F009180FE1206381207BED2B1120686A3E0B3
:10046F00FDA3E09001A0CDF0A3EDF012075CEF60CB
:10047F0019C2B17B007A00797374FF9001A0F0A3C9
:0C048F00F07D017C00120A4281E5C2B140
:02049B0081EFEF
:10049D0012068E12064612053764536002619612DB
:1004AD00064F400F120695743CF07A0879E1120060
:1004BD009180FE1206381207BED2B2120686A3E054
:1004CD00FDA3E09001A0CDF0A3EDF0120851EF6077
:1004DD000FC2B279731205239001167402F0619662
:0D04ED00C2B279661205239001167405F065
:1004FA0061967FFA7E001209F3A2B292B26196D295
:03050A00B2619645
:10050D007B007A009001A07401F0A374F4F07D01DA
:10051D007C00120A42227B007A0074FF9001A0F049
:10052D00A3F07D017C00120A42227D097C00120796
:06053D00BE900117E02250
:100A6700A3E475F0011205A8FCD3EF95F0EC6480C0
:100A7700F8EE6480982274042FF582E43401F5833C
:010A8700224C
:030023000206EEE4
:1006EE00C0E0C083C082C0D075D00830982D900075
:1006FE0002E0FF6022900000E0FE04F074042EF58C
:10070E0082E43400F583E599F0900000E0C39F4049
:10071E00069001147401F0C298802A309927900037
:10072E0003E0FF601E900001E0FE04F074042E1240
:10073E000A80E0F599900001E0C39F4006900115F4
:0E074E007401F0C299D0D0D082D083D0E032B6
:1009C900E4FFFE2099FDC3EF9410EE9400500C1241
:1009D9000A7DE4F00FBF00010E80EBE4900001F006
:0909E900900003F090011504F0E8
:0109F20022E2
:0E0800009001A41205C79001A7ECF0A3EDF043
:10080E00E4FFFE2099FDD39001A8E09F9001A7E0A0
:10081E009E401A9001A41205BE8F828E831205434C
:10082E00FD120A7DEDF00FBF00010E80D9E490009D
:10083E0001F09001A7A3E0900003F0E4900115F001
:02084E00D2993D
:010850002285
:0907F7002099FD900115E0FF229C
:100A4200E49001A2F0A3F01208001207F7EF70146D
:100A52009001A0E0FEA3E0FFF47002EEF460EB125E
:040A62000A6750E6E9
:010A6600226D
:10091400E4FFFE2098FDC3EE940150150FEFAC06E2
:1009240070010E142404F58274003CF583E4F08015
:0F093400E5E4900000F0900002F090011404F050
:010943002291
:100ABE002098FDE4900000F0900002EFF0E4900129
:030ACE0014F022FF
:090B2C002098FD900114E0FF2265
:0A07BE0090019EECF0FEA3EDF0FFA9
:1007C800E49001A2F0A3F0120ABE120B2CEF7014F1
:1007D8009001A0E0FEA3E0FFF47002EEF460EB12DB
:0F07E8000A6750E690019EE0FCA3E0FD02089E28
:0E089E009001A41205C79001A7ECF0A3EDF0A5
:1008AC00E4FFFE2098FDD39001A8E09F9001A7E003
:1008BC009E402174042FF582E43400F583E0FD9012
:1008CC0001A41205BE8F828E83ED1205700FBF003E
:0408DC00010E80D2B7
:0108E00022F5
:1009440090019BEEF0A3EFF01209C9120914E4F52B
:100954008B758DFDC298C299C29AC29BC29DD29ECC
:0F096400C29FD29CD28ED2ACD2AF7EFF7FFF2239
:090AD100120ADA120ADA120ADA3A
:080ADA007F017E02DEFEDFFA5F
:010AE20022F1
:090AA900120AB2120AB2120AB2DA
:0C0AB200120AD1120ADA120AD1020ADA82
:0C0B0000120AA9120AB2120AA9020AB2D3
:100A8800EF64014E70020022E4FDFCC3ED9FEE64AA
:100A980080F8EC6480985008000DBD00010C80EBD4
:010AA800222B
:0409F300AD07AC069A
:1009F700ED64014C7003020B00E4FBFAC3EB9DECC2
:100A07006480F8EA648098500A120B000BBB00015F
:030A17000A80E969
:010A1A0022B9
:03000000020B0CE4
:0C0B0C00787FE4F6D8FD75812102038B90
:10054300BB010CE58229F582E5833AF583E022506D
:1005530006E92582F8E622BBFE06E92582F8E222B7
:0D056300E58229F582E5833AF583E49322D1
:10057000F8BB010DE58229F582E5833AF583E8F0C1
:10058000225006E92582C8F622BBFE05E92582C86D
:02059000F22255
:10059200C5F0F8A3E028F0C5F0F8E58215827002F4
:0605A2001583E038F02291
:1005A800A3F8E0C5F025F0F0E58215827002158306
:0605B800E0C838F0E82263
:0905BE00E0FBA3E0FAA3E0F9223E
:0905C700EBF0A3EAF0A3E9F02235
:10002600E510249EF582E43401F583E00510229064
:10003600019B30070390019EE475F0011205FB0257
:1000460005D02000E97F2ED2008018EF540F2490AF
:10005600D43440D4FF30040BEF24BFB41A0050034D
:100066002461FFE511600215110514E514700205FF
:100076001330070E90019BE475F0011205FBEF02A9
:1000860005E9020A1B7403D2078003E4C207F510D0
:1000960090019B1205C7E4F511F513F514E51160FF
:1000A600077F2012006980F57512FFC201C200C2E7
:1000B60002C203C205C206C208120035FF700D3027
:1000C60007057F0012007AAF14AE1322B4255FC273
:1000D600D5C204120035FF24D0B40A00501A75F0B8
:1000E6000A781130D50508B6FF0106C6A426F62003
:1000F600D5047002D20380D924CFB41A00EF50047D
:10010600C2E5D20402027BD20180C6D20080C0D2F0
:100116000280BCD2D580BAD20580B47F2012006995
:100126002002077401B5110040F1120026FF1200EB
:10013600690200A3D208D2068095120026FB12009F
:1001460026FA120026F94A4B7006794C7A037BFF91
:1001560020022EE511602A7E008E8275830012052C
:100166004360060EEE651270F0C2D5EBC0E0EAC041
:10017600E0E9C0E0EE1202C2D0E0F9D0E0FAD0E049
:10018600FB1205D0FF60AAEBC0E0EAC0E0E9C0E0E0
:10019600120069D0E02401F9D0E03400FAD0E0FB87
:1001A600E5120460DCD512D980877BFF7A0279BE1E
:1001B600D202809C791080027908C206C2088008A3
:1001C600D2D5790A8004790AC2D5E512047002F5FF
:1001D60012E4FAFDFEFF120026FC7B082001131232
:1001E6000026FD7B1030000A120026FE120026FFB4
:1001F6007B20EC3382D592D55013C3E43000069FA2
:10020600FFE49EFEE42001039DFDE49CFCE4CBF8A4
:10021600C201EC700CCFCECDCCE824F8F870F38098
:1002260017C3EF33FFEE33FEED33FDEC33FCEB3358
:10023600FB994002FB0FD8E9EB300105F8D0E0C48A
:1002460048B201C0E00AEC4D4E4F78207B0070C2E8
:10025600EAB5120040BCC0E01202C4D0F0D0E020E3
:100266000104C4C0E0C4B201C0F0120052D0F0D5FF
:10027600F0EB0200A312061201405301BA58011115
:100286004C010D4201BE4F01C64401C64901264339
:0802960001CC5501B04601B096
:10029E004501B047036C5001152D01192E013C2B61
:1002AE00011D23013A2003552A00D54800000134D0
:1002BE003F3F3F00790AA2D5200314300509B9103B
:1002CE00020404B9080104A2D5200602500104203C
:1002DE0002689202B511005034C0E07F203003193D
:1002EE007F30A20272067205500F12031BC202C2A9
:1002FE0006C205C2087F30800F300503E9C0E01248
:10030E000069300503D0E0F9D0E0B511CC30051707
:10031E007F30B9100C1200697F583004077F788047
:10032E0003B908031200693002057F2D0200697FB0
:10033E00202008F87F2B2006F322920280CF286E11
:10034E00756C6C2900D2011200263001F8C20178BA
:10035E001130D50108F60200D52D50434958120030
:10036E00262403B405004001E49003679312005A5B
:0D037E00743A12005AD2037511040201BA3C
:1005D000BB010689828A83E0225002E722BBFE0229
:0905E000E32289828A83E493225C
:1005E900BB010689828A83F0225002F722BBFE01F1
:0205F900F322EB
:1005FB00F8E0FBA3A3E0F925F0F0E5821582700289
:07060B001583E0FA38F0222C
:10061200D083D082F8E4937012740193700DA3A377
:1006220093F8740193F5828883E47374029368608B
:06063200EFA3A3A380DF8B
:100A1B00EFB40A07740D120A26740A309811A899BC
:100A2B00B8130CC2983098FDA899C298B811F6303B
:070A3B0099FDC299F5992213
:00000001FF
