:1010D90063007000760072006400610073006600AE
:0510E9004100010000C0
:100E5A009000EBEEF0A3EFF09000EBE0FEA3E0FFD2
:100E6A00EF30E003C38001D392B29000EBE0FEA31F
:100E7A00E0FFEF30E103C38001D392B39000EBE0CF
:0F0E8A00FEA3E0FFEF30E203C38001D392B42256
:101038009000EDEEF0A3EFF09000EDE0FEA3E0FFEE
:10104800EF54FFF5809000EDE0FEA3E0FFEEFF7E99
:0710580000EF54FFF59022A8
:0D1129009000FFEFF09000FFE0FF8FA0228C
:03116200AFA02219
:1010BF007FFF7EFF1210387FFF121129D2B7D2B6F1
:0A10CF00D2B57F647E00120D2B22C3
:101103007FFF7EFF1210387FFF121129D2B7D2B6AC
:03111300C2B52240
:10105F009000E5EEF0A3EFF09000E7EDF09000E5E3
:10106F00E0FEA3E0FF1210389000E7E0FF12112915
:05107F00C2B7D2B72248
:0A113600D2B57F2C7E01120D2B2292
:101116007FFF7EFF1210387FFF121129D2B7D2B699
:03112600C2B5222D
:080F03009000E8EEF0A3EFF00E
:100F0B009000E8E0FEA3E0FF1210387FFF121129DA
:100F1B00C2B61211651211629000EAEFF0D2B6124E
:070F2B0011659000EAE0FFF0
:010F3200229C
:0A114000D2B57F2C7E01120D2B2288
:1010A3007DAA7F557E5512105F7D557FAA7E2A1239
:0C10B300105F7DA07F557E5512105F225B
:100E99007DAA7F557E5512105F7D557FAA7E2A1245
:100EA900105F7D807F557E5512105F7DAA7F557E2C
:100EB9005512105F7D557FAA7E2A12105F7D207F13
:070EC900557E5512105F2257
:0E0BDB009000A8EEF0A3EFF09000AA1207B869
:100BE900121103120E997F147E00120D2B9000AF83
:100BF900E4F0A3E4F09000ADE0FEA3E0FF9000AFC5
:100C0900E0FCA3E0FDC3ED9FEC9E503B9000AFE0FC
:100C1900FEA3E0FF9000A8E0FCA3E0FDED2FFFECB0
:100C29003EFE9000AA1207AF9000AFE0FCA3E0FDE2
:100C39008D828C8312063DFD12105F9000AFE47522
:0A0C4900F00112069E80AE12113673
:010C5300227E
:0E0ADF0090009EEEF0A3EFF09000A01207B87A
:100AED001211169000A5E4F0A3E4F09000A3E0FE2F
:100AFD00A3E0FF9000A5E0FCA3E0FDC3ED9FEC9EFD
:100B0D00504C9000A5E0FEA3E0FF90009EE0FCA3FA
:100B1D00E0FDED2FFFEC3EFE120F039000A7EFF06E
:100B2D009000A01207AF9000A5E0FEA3E0FF8F821A
:100B3D008E8312063DFF9000A7E0FEEE6F60037FEF
:100B4D0000229000A5E475F00112069E809D121101
:030B5D00407FFFD7
:010B60002272
:0E0C54009000B1EEF0A3EFF09000B31207B8DD
:100C62001211169000B8E4F0A3E4F09000B6E0FE92
:100C7200A3E0FF9000B8E0FCA3E0FDC3ED9FEC9E73
:100C8200503B9000B8E0FEA3E0FF9000B1E0FCA36F
:100C9200E0FDED2FFFEC3EFE120F039000B31207B2
:100CA200AF9000B8E0FCA3E0FD8D828C83EF1206CA
:100CB2006A9000B8E475F00112069E80AE121140EF
:010CC200220F
:100898009000D11207729000D112075A78081207F7
:1008A80020EF5400FFEE54FFFEED5400FDEC540021
:1008B800FCC004C005C006C0079000D112075A78D2
:1008C80018120720EF54FFFBEE5400FAED5400F91C
:1008D800EC5400F8D007D006D005D004120702C0A7
:1008E80004C005C006C0079000D112075A78081244
:1008F8000747EF5400FBEE5400FAED54FFF9EC54AF
:1009080000F8D007D006D005D004120702C004C0F2
:1009180005C006C0079000D112075A781812074779
:10092800EF5400FBEE5400FAED54F0F9EC540FF8D4
:0C093800D007D006D005D0041207022220
:100F61009000EFEEF0A3EFF09000EFE0FEA3E0FFC2
:100F7100EF7F00FEAC067D009000EFE0FEA3E0FFF6
:0D0F8100EEFF7E007E00EE4CFEEF4DFF22E5
:100B61007BFF7A1079E9C003C002C0017B017A00E2
:100B710079BAA801AC02AD03D001D002D0037E0046
:100B81007F051205FE9000BB12075A1208989000CB
:100B9100BF1207729000BF12077E000000007F00A5
:100BA1007E047D007C009000BF120766C312070F10
:100BB10050279000BF12075A1210389000BF120739
:100BC1005AEF2401FFEE3400FEED3400FDEC340059
:090BD100FC9000BF12077280C500
:010BDA0022F8
:1000260090008EE4F07B007A00790090008F120732
:10003600B890009212077E0000000190009212070D
:100046005AEF54FFFFEE5400FEED5400FDEC540051
:10005600FC900096EFF090009212075A780812076B
:1000660020EF54FFFFEE5400FEED5400FDEC54006B
:10007600FC900097EFF090009212075A7810120742
:1000860020EF54FFFFEE5400FEED5400FDEC54004B
:10009600FC900098EFF090009212075A7820120711
:1000A60020EF54FFFFEE5400FEED5400FDEC54002B
:1000B600FC900099EFF090008EE0FFEF1207C10070
:1000C600E400010F0101520201DE03030A040415D4
:1000D6000504F106050407051708000000BC90009A
:1000E6008EE0FF7E00120E5A7F807E25121010EFE2
:1000F6004E600890008E7401F080BB7FF47E011282
:100106000D2B90008EE4F080AD90008EE0FF7E0017
:10011600120E5A7F017E00120FE890008F1207B868
:1001260090008F1207AF120624FFEFB443167BFF31
:100136007A1079D97D017C00120F3390008E7402FB
:10014600F00200BC90008EE4F00200BC90008EE04D
:10015600FF7E00120E5A7F017E00120FE890008F7C
:100166001207B890008F1207AF120624FFEFB450A3
:10017600167BFF7A1079DB7D017C00120F3390002D
:100186008E7403F00200BC90008F1207AF12062493
:10019600FFEFB456167BFF7A1079DD7D017C0012E5
:1001A6000F3390008E7404F00200BC90008F12078B
:1001B600AF120624FFEFB452167BFF7A1079DF7D6B
:1001C600017C00120F3390008E7405F00200BC9083
:0801D600008E7402F00200BC6F
:1001DE0090008EE0FF7E00120E5A7F057E00120FF9
:1001EE00E890008F1207B890008F1207AF12062406
:1001FE00FFEFB444167BFF7A1079E17D017C00128B
:10020E000F3390008E7407F00200BC90008F12071F
:10021E00AF120624FFEF644160030202F490008FD8
:10022E001207AF7582017583001206CAFFAEF01277
:10023E000F6190009AEEF0A3EFF090008F1207AFCF
:10024E007582037583001206CAFFAEF0120F61901D
:10025E00009CEEF0A3EFF07BFF7A1079E37D017C3A
:10026E0000120F3390009CE0FEA3E0FF120FE89007
:10027E00008F1207B890009AE0FEA3E0FF90008F67
:10028E001207AF90009CE0FCA3E0FD9000ADECF0F7
:10029E00A3EDF0120BDB90009AE0FEA3E0FF9000BE
:1002AE008F1207AF90009CE0FCA3E0FD9000A3EC42
:1002BE00F0A3EDF0120ADFEF60167BFF7A1079E5FE
:1002CE007D017C00120F3390008E7403F00200BC8F
:1002DE007BFF7A1079E77D017C00120F3390008E40
:1002EE007406F00200BC7BFF7A1079E77D017C007A
:0902FE00120F3390008E7406F01B
:030307000200BC35
:10030A0090008EE0FF7E00120E5A7F057E00120FCB
:10031A00E890008F1207B890008F1207AF120624D8
:10032A00FFEFB444167BFF7A1079E17D017C00125D
:10033A000F3390008E7407F00200BC90008F1207F2
:10034A00AF120624FFEF644160030203FF90008F9F
:10035A001207AF7582017583001206CAFFAEF0124A
:10036A000F6190009AEEF0A3EFF090008F1207AFA2
:10037A007582037583001206CAFFAEF0120F6190F0
:10038A00009CEEF0A3EFF07BFF7A1079E37D017C0D
:10039A0000120F3390009CE0FEA3E0FF120FE890DA
:1003AA00008F1207B890009AE0FEA3E0FF90008F3A
:1003BA001207AF90009CE0FCA3E0FD9000A3ECF0D4
:1003CA00A3EDF0120ADFEF60167BFF7A1079E57D64
:1003DA00017C00120F3390008E7404F00200BC7B83
:1003EA00FF7A1079E77D017C00120F3390008E743A
:1003FA0006F00200BC7BFF7A1079E77D017C0012CF
:08040A000F3390008E7406F020
:030412000200BC29
:1004150090008EE0FF7E00120E5A7F057E00120FBF
:10042500E890008F1207B890008F1207AF120624CC
:10043500FFEFB444167BFF7A1079E17D017C001251
:100445000F3390008E7407F00200BC90008F1207E6
:10045500AF120624FFEF6441707C90008F1207AF46
:100465007582017583001206CAFFAEF0120F619006
:10047500009AEEF0A3EFF090008F1207AF7582039C
:100485007583001206CAFFAEF0120F6190009CEE54
:10049500F0A3EFF07BFF7A1079E37D017C00120F6A
:1004A5003390009AE0FEA3E0FF90008F1207AF9013
:1004B500009CE0FCA3E0FD9000B6ECF0A3EDF0128B
:1004C5000C5490008F1207AF90009CE0FCA3E0FD58
:1004D500120F330200BC7BFF7A1079E77D017C00A7
:0904E500120F3390008E7406F032
:1004EE000200BC90008EE0FF7E00120E5A90008E2D
:1004FE007402F00200BC90008EE0FF7E00120E5AD5
:10050E0090008E7402F00200BC90008EE0FF7E0020
:0F051E00120E5A90008E7401F00200BC0200BC55
:01052D0022AB
:1010EE0042000603E8420000003242000A03E842D2
:0410FE0000080032B4
:100CC3009000F1EEF0A3EFF0C28C5389F043890159
:100CD3009000F1E0FEA3E0FFAB07AA06E4F9F8C336
:100CE300E49BFFE49AFE740199FDE498FC780812F2
:100CF30007338F8C9000F1E0FEA3E0FFAB07AA0659
:100D0300E4F9F8C3E49BFFE49AFE740199FDE498C7
:100D1300FCEF54FFFFEE5400FEED5400FDEC5400D5
:080D2300FC8F8AC28DD28C22E4
:100F8E009000F3EEF0A3EFF09000F3E0FCA3E0FD91
:100F9E00900000E0FEA3E0FF12068C900006E0FC3D
:0D0FAE00A3E0FDEF2DFFEE3CFE120CC32270
:100FBB009000F5EEF0A3EFF09000F5E0FCA3E0FD60
:100FCB00900008E0FEA3E0FF12068C90000AE0FC04
:0D0FDB00A3E0FDEF2DFFEE3CFE120CC32243
:06115C00A28DE433FF2226
:030023000209D0FF
:1009D000C0E0C083C082C0D075D000C006C0073060
:1009E000983390000CE0FFEF7029900002E0FF04C4
:1009F000F0740E2FF582E43400F583E599F0900051
:100A000004E0FF900002E0FEEEC39F400690000C61
:100A100074FFF0C29830993490000DE0FFEF702A17
:100A2000900003E0FF04F0740E2FF582E43400F52B
:100A300083E0FF8F99900005E0FF900003E0FEEE59
:100A4000C39F400690000D74FFF0C299D007D006F6
:090A5000D0D0D082D083D0E03276
:100D7A009000F7E4F0A3E4F02099FD9000F7E0FE7C
:100D8A00A3E0FFC3EF9480EE940050209000F7E0B8
:100D9A00FEA3E0FF740E2FF582E43400F583E4F03D
:100DAA009000F7E475F00112069E80CF900003E4EC
:0C0DBA00F0900005E4F090000D74FFF0D4
:010DC600220A
:0E07E7009000C31207B89000C6ECF0A3EDF02E
:1007F5009000C8E4F0A3E4F090000DE0FFEF60F88E
:1008050030990280F39000C6E0FEA3E0FFC3EF94A9
:1008150080EE940040099000C6E4F0A37480F09047
:1008250000C6E0FEA3E0FF9000C8E0FCA3E0FDC326
:10083500ED9FEC9E50389000C31207AF9000C8E0C2
:10084500FEA3E0FF8F828E8312063DFF9000C8E075
:10085500FCA3E0FDAE05740E2EF582E43400F583AD
:10086500EFF09000C8E475F00112069E80B190008B
:1008750003E4F09000C6E0FEA3E0FF900005EFF072
:1008850090000DE4F0D2999000C6E0FEA3E0FF12BF
:020895000FBB97
:01089700223E
:09114A002099FD90000DE0FF2248
:0E0F33009000CA1207B89000CDECF0A3EDF0CC
:100F41009000CFE4F0A3E4F09000CA1207AF900044
:0F0F5100CDE0FCA3E0FD1207E712114AEF60FAB2
:010F6000226E
:100E12009000F9E4F0A3E4F02098FD9000F9E0FEE0
:100E2200A3E0FFC3EF9480EE9400501B9000F9E41E
:100E320075F0011206B4AFF0FE740E2FF582740045
:100E42003EF583E4F080D4900002E4F0900004E4E4
:070E5200F090000C74FFF0AA
:010E59002276
:080A59009000D5EEF0A3EFF0D0
:100A61009000D7E4F0A3E4F090000CE0FFEF60F811
:100A710030980280F39000D5E0FEA3E0FFC3EF942D
:100A810080EE940040099000D5E4F0A37480F090CA
:100A910000D7E0FEA3E0FFC3EF9480EE9400501B6B
:100AA1009000D7E475F0011206B4AFF0FE740E2F7A
:100AB100F58274003EF583E4F080D4900002E4F006
:100AC1009000D5E0FEA3E0FF900004EFF090000C51
:0D0AD100E4F09000D5E0FEA3E0FF120F8ED0
:010ADE0022F5
:091153002098FD90000CE0FF2241
:080FE8009000D9EEF0A3EFF038
:100FF0009000DBE4F0A3E4F09000D9E0FEA3E0FF72
:0F100000120A59121153EF60FA7B017A00790E30
:01100F0022BE
:101010009000FBEEF0A3EFF0120D7A120E1275980D
:1010200050758921758780758DFA758BFAD2ACD28F
:08103000AFD28E7EFF7FFF228C
:0311650000002265
:100ED0009000FE7401F09000FEE0FFEFD39400401C
:100EE000219000FD7402F09000FDE0FFEFD394002C
:100EF00040089000FDE014F080ED9000FEE014F05A
:020F000080D49B
:010F020022CC
:10000300120ED0120ED0120ED0120ED0120ED0122B
:0F0013000ED0120ED0120ED0120ED0120ED0221E
:1010840012000312000312000312000312000312E1
:0F109400000312000312000312000312000322D4
:080DC7009000DDEEF0A3EFF057
:100DCF009000DDE0FEA3E0FFEF64014E7002002211
:100DDF009000DFE4F0A3E4F09000DDE0FEA3E0FF7D
:100DEF009000DFE0FCA3E0FDC3ED9FEE6480F8EC24
:100DFF00648098500D009000DFE475F00112069E9C
:020E0F0080D68B
:010E110022BE
:080D2B009000E1EEF0A3EFF0EF
:100D33009000E1E0FEA3E0FFEF64014E70041210A7
:100D430084229000E3E4F0A3E4F09000E1E0FEA34A
:100D5300E0FF9000E3E0FCA3E0FDC3ED9FEE6480C1
:100D6300F8EC648098500F1210849000E3E475F05F
:060D73000112069E80D46F
:010D79002257
:03000000020944AE
:0C094400787FE4F6D8FD75810702098B6E
:10052E00E709F608DFFA8046E709F208DFFA803EAF
:10053E0088828C83E709F0A3DFFA8032E309F6089C
:10054E00DFFA8078E309F208DFFA807088828C8304
:10055E00E309F0A3DFFA806489828A83E0A3F608B8
:10056E00DFFA805889828A83E0A3F208DFFA804C92
:10057E0080D280FA80C680D4806980F28033801069
:10058E0080A680EA809A80A880DA80E280CA8033D2
:10059E0089828A83ECFAE493A3C8C582C8CCC5834A
:1005AE00CCF0A3C8C582C8CCC583CCDFE9DEE7801A
:1005BE000D89828A83E493A3F608DFF9ECFAA9F099
:1005CE00EDFB2289828A83ECFAE0A3C8C582C8CCEF
:1005DE00C583CCF0A3C8C582C8CCC583CCDFEADE08
:1005EE00E880DB89828A83E493A3F208DFF980CC6A
:1005FE0088F0EF60010E4E60C388F0ED2402B40463
:10060E000050B9F582EB2402B4040050AF23234509
:06061E00822390057E73AB
:10062400BB010689828A83E0225002E722BBFE02D4
:09063400E32289828A83E4932207
:10063D00BB010CE58229F582E5833AF583E0225072
:10064D0006E92582F8E622BBFE06E92582F8E222BC
:0D065D00E58229F582E5833AF583E49322D6
:10066A00F8BB010DE58229F582E5833AF583E8F0C6
:10067A00225006E92582C8F622BBFE05E92582C872
:02068A00F2225A
:10068C00EF8DF0A4A8F0CF8CF0A428CE8DF0A42E82
:02069C00FE223C
:10069E00C5F0F8A3E028F0C5F0F8E58215827002E7
:0606AE001583E038F02284
:1006B400A3F8E0C5F025F0F0E582158270021583F9
:0606C400E0C838F0E82256
:1006CA00BB0110E58229F582E5833AF583E0F5F06E
:1006DA00A3E0225009E92582F886F008E622BBFE4B
:1006EA000AE92582F8E2F5F008E222E5832AF58391
:0806FA00E993F5F0A3E9932256
:0D070200EF4BFFEE4AFEED49FDEC48FC22F6
:10070F00EB9FF5F0EA9E42F0E99D42F0E89C45F040
:01071F0022B7
:10072000E8600FECC313FCED13FDEE13FEEF13FFB7
:03073000D8F122DB
:10073300E86010ECA2E713FCED13FDEE13FEEF13DC
:04074300FFD8F022C9
:10074700E8600FEFC333FFEE33FEED33FDEC33FC10
:03075700D8F122B4
:0C075A00E0FCA3E0FDA3E0FEA3E0FF2212
:0C076600E0F8A3E0F9A3E0FAA3E0FB2216
:0C077200ECF0A3EDF0A3EEF0A3EFF022FA
:10077E00A8828583F0D083D0821207951207951236
:10078E000795120795E473E493A3C583C5F0C5835B
:10079E00C8C582C8F0A3C583C5F0C583C8C582C8C5
:0107AE002228
:0907AF00E0FBA3E0FAA3E0F9224B
:0907B800EBF0A3EAF0A3E9F02242
:1007C100D083D082F8E4937012740193700DA3A3C7
:1007D10093F8740193F5828883E4737402936860DB
:0607E100EFA3A3A380DFDB
:10095000020026E493A3F8E493A34003F68001F297
:1009600008DFF48029E493A3F85407240CC8C333A8
:10097000C4540F4420C8834004F456800146F6DF77
:10098000E4800B01020408102040809010EEE47E09
:10099000019360BCA3FF543F30E509541FFEE4936C
:1009A000A360010ECF54C025E060A840B8E493A333
:1009B000FAE493A3F8E493A3C8C582C8CAC583CA5E
:1009C000F0A3C8C582C8CAC583CADFE9DEE780BE16
:0111020000EC
:00000001FF
