:1007C300630070007600417373657274206661691B
:1007D3006C65643A2073697A653C3D313238202870
:1007E30066696C65202573206C696E652025642914
:0D07F3000A006D61696E2E630073006600E0
:10066C0078971205EA900001120595789A1205DE2A
:10067C00900005120595789E1205DEE47F80FEFD44
:10068C00FC789E1205D1D302058478A7E2FE08E21D
:10069C00FF08E2FC08E2FDC39FEC9E2278A4120541
:1006AC00EA78A9E2FC08E2F5828C8302055778AA65
:1006BC00E22401F218E23400F2227BFF7A0779F58A
:1006CC0078A51205F378A87401F208227A0779FC50
:1006DC0074FF78A7F208F27D017C002278A3E22D4A
:1006EC00FF18E23CFE2278A77401F20874F4F27D44
:0D06FC000122EEF208EFF2081205F3E422ED
:10000300EF30E003C38001D392B2EF30E103C3804A
:0F00130001D392B3EF30E203C38001D392B42242
:100A5200E4FFFE0FEFAC0670010E14C39410EC9489
:030A62002740F03A
:010A6500226E
:070AF500EFF580EEF5902201
:070AC80074FFFFFE120AF5A6
:030ACF008FA022D3
:030B0A00AFA02277
:100A7800120AC8D2B7D2B6D2B57F0A7E000209667A
:0A0AD200120AC8D2B7D2B6D2B5227C
:100A1E00120AF5AF05120ACF120B0DC2B5120B0D4D
:0F0A2E00C2B7120B0DD2B5120B0DD2B7020B0DC2
:0D0A9800120AC8120B0DD2B5D2B7D2B62289
:1009DC00120AF5120B0DC2B5120B0DC2B6120B0D8D
:1009EC00120B0A120B0DD2B5120B0DD2B6120B0D47
:0109FC0022D8
:070AFC007FE87E030209669A
:070B03007FE87E0302096692
:1008B8007DAA7455FFFE1208DB7D807455FFFE1279
:1008C8000A1E7DAA7455FF1208DB7D207455FFFEB1
:1008D800020A1E120A1E7D557FAA7E2A120A1E22AD
:02076B0078A272
:10076D001206FE78ABF208F2120AD21208B8120A7B
:10077D00D2E478A9F208F2120696500F1206E8128A
:10078D0006A8FD120A1E1206BA80EC120AFC120A05
:10079D0098E478A9F208F212069650141206E8129F
:1007AD0009DC1206A86F60037F00221206BA80E7EB
:0507BD00120B037FFF99
:0107C2002214
:0208480078A294
:10084A001206FE78ABF208F2120A98E478A9F208C6
:10085A00F278A7120698501F78A31206EA1209DC4A
:10086A0078A41205EA78A91206AF6F60037F002206
:0C087A0078AA1206BC80DA120B037FFF84
:01088600224F
:1003810080447896E2FF7E00120003E214601F149D
:10039100603A147002811D1470028175240470E2A8
:1003A1007F807E2512098E78967401F280D47DF4C7
:1003B1007C017F0112052AB4430C7BFF7A0779C3C4
:1003C1001206F21C8166E47896F280B67F0112046F
:1003D100D512053EB4500C7A0779C51204EA7403AC
:1003E100F2618378971205EA12053EB4560C7A073A
:1003F10079C71204EA7404F2618378971205EA124C
:10040100053EB444157B007A0079641206F27C0043
:0C04110012088778967406F2618381C29D
:10041D007F091204D512053E6450600261831206F5
:10042D006C400F1206C67426F27A0779C91200883D
:10043D0080FE1204FF789A1205C5C006C007789E8B
:10044D001205C578A7EEF208EFF2D007D006120715
:10045D006BEF7BFF60081206D812088781C2120568
:06046D001778967405F2F9
:020473006183A3
:1004750074FFFDFC7F0912052A6453600261831233
:10048500066C400F1206C6744BF27A0779C9120042
:100495008880FE1204FF789A1205C5C006C0077849
:1004A5009E1205C578A7EEF208EFF2D007D0061226
:1004B5000848EF600F7BFF1206D8120887789674FC
:0E04C50002F261837BFF12051778967405F230
:0204D300618343
:1004D50074FFFDFC7E001208E8E4FFFE120ADC78DA
:1004E500971205F3227BFF78A77401F20874F4F2E2
:1004F5007D017C00120887789622789E1205C574C6
:10050500FFFDFC1208E8E4FFFE120ADC78971205ED
:10051500F3227A0779FE74FF78A7F208F27D017C51
:1005250000120887227E001208E8E4FFFE120ADCAA
:0905350078971205F312053E222D
:0B0ABD00EF9DEC6480F8EE648098224E
:03002300020709C8
:10070900C0E0C0D075D000C000C0073098247894EC
:10071900E2701D7800E2FF04F274042FF8E599F203
:100729007802E2FF7800E2C39F4005789474FFF2F3
:10073900C2983099247895E2701D7801E2FF04F29D
:1007490074842FF8E2F5997803E2FF7801E2C39FF8
:100759004005789574FFF2C299D007D000D0D0D067
:02076900E0327C
:10091400E4FFFE2099FDC3EF9410EE9400500D7493
:10092400842FF8E4F20FBF00010E80EAE47801F2AC
:080934007803F2789574FFF2DC
:01093C002298
:0C08000078AB1205F378AEECF208EDF2D4
:10080C00E4FFFE2099FDD378AFE29F18E29E401AD8
:10081C0078AB1205EA8F828E83120557FD74842FF4
:10082C00F8EDF20FBF00010E80DCE47801F278AE37
:0B083C0008E27803F2E47895F2D2990C
:01084700228E
:080AE5002099FD7895E2FF2243
:10088700E478A9F208F2120800120AE5EF7021785D
:10089700A7E2FE08E2FFF47002EEF460EC0808E25B
:1008A700FD2401F218E2FC3400F2D3120ABD50D93C
:0108B700221E
:10093D00E4FFFE2098FDC3EF9480EE9400500D0F60
:10094D00EF70010E142404F8E4F280EAE47800F26A
:08095D007802F2789474FFF2B5
:01096500226F
:100A88002098FDE47800F27802EFF2E47894F222FC
:080AED002098FD7894E2FF223D
:1008E800E478A2F208F2120A88120AEDEF701CED01
:1008F800F47002ECF460F278A208E2FF2401F21826
:0B090800E2FE3400F2C3120ABD40DE24
:0109130022C1
:090ADC0074042FF9E4FA7BFE22F8
:10098E0078A2EEF208EFF212091412093D75985092
:10099E00758920758780758DFA758BFAD2ACD2AFBA
:0709AE00D28E7EFF7FFF22C5
:020B0D000022C4
:090A6600120A6F120A6F120A6FE6
:080A6F007F017E02DEFEDFFACA
:010A7700225C
:090A3D00120A46120A46120A468A
:0C0A4600120A66120A6F120A66020A6F9A
:0C0AA500120A3D120A46120A3D020A46DF
:1009FD00EF64014E70020022E4FDFCC3ED9FEE6436
:100A0D0080F8EC6480985008000DBD00010C80EB5F
:010A1D0022B6
:04096600AD07AC0627
:10096A00ED64014C7003020AA5E4FBFAC3EB9DECAB
:10097A006480F8EA648098500A120AA50BBB000149
:03098A000A80E9F7
:01098D002247
:03000000020AB140
:0C0AB100787FE4F6D8FD758121020381F6
:10053E00BB010689828A83E0225002E722BBFE02BB
:09054E00E32289828A83E49322EE
:10055700BB010CE58229F582E5833AF583E0225059
:1005670006E92582F8E622BBFE06E92582F8E222A3
:0D057700E58229F582E5833AF583E49322BD
:10058400EB9FF5F0EA9E42F0E99D42F0E89C45F0CD
:010594002244
:10059500BB010DE58229F582E5833AF58302061A4A
:1005A5005007E92582F802060EBBFE07E92582F809
:1005B5000205C5E58229F582E5833AF5830206261B
:0C05C500E2FC08E2FD08E2FE08E2FF2272
:0D05D100E2FB08E2F908E2FA08E2CBF822AA
:0C05DE00ECF208EDF208EEF208EFF22259
:0905EA00E2FB08E2FA08E2F92242
:0905F300EBF208EAF208E9F22239
:10002600E50824A5F8E205082278A230070278A59B
:10003600E475F00112063602053E2000EB7F2ED253
:10004600008018EF540F2490D43440D4FF30040BB2
:10005600EF24BFB41A0050032461FFE509600215BE
:1000660009050CE50C7002050B30070D78A2E47546
:10007600F001120636EF0205FC0209B57403D20739
:100086008003E4C207F50878A21205F3E4F509F542
:100096000BF50CE50960077F2012006180F5750AF3
:1000A600FFC201C200C202C203C205C206C20812D2
:1000B600002FFF700D3007057F00120072AF0CAEE7
:1000C6000B22B4255FC2D5C20412002FFF24D0B480
:1000D6000A00501A75F00A780930D50508B6FF01EE
:1000E60006C6A426F620D5047002D20380D924CFF2
:1000F600B41A00EF5004C2E5D204020271D20180A4
:10010600C6D20080C0D20280BCD2D580BAD20580C9
:10011600B47F201200612002077401B5090040F186
:10012600120026FF120061020099D208D2068095BD
:10013600120026FB120026FA120026F94A4B700618
:1001460079427A037BFF20022EE509602A7E008E23
:100156008275830012055760060EEE650A70F0C2BE
:10016600D5EBC0E0EAC0E0E9C0E0EE1202B8D0E0AC
:10017600F9D0E0FAD0E0FB12053EFF60AAEBC0E042
:10018600EAC0E0E9C0E0120061D0E02401F9D0E065
:100196003400FAD0E0FBE50A0460DCD50AD9808792
:1001A6007BFF7A0279B4D202809C791080027908AA
:1001B600C206C2088008D2D5790A8004790AC2D557
:1001C600E50A047002F50AE4FAFDFEFF120026FCB9
:1001D6007B08200113120026FD7B1030000A120056
:1001E60026FE120026FF7B20EC3382D592D55013D3
:1001F600C3E43000069FFFE49EFEE42001039DFD5C
:10020600E49CFCE4CBF8C201EC700CCFCECDCCE87C
:1002160024F8F870F38017C3EF33FFEE33FEED33A7
:10022600FDEC33FCEB33FB994002FB0FD8E9EB30D6
:100236000105F8D0E0C448B201C0E00AEC4D4E4FCB
:1002460078207B0070C2EAB50A0040BCC0E012020A
:10025600BAD0F0D0E0200104C4C0E0C4B201C0F0BE
:1002660012004AD0F0D5F0EB02009912064601368C
:100276005301B05801074C01034201B44F01BC447D
:1002860001BC49011C4301C25501A64601A6450110
:01029600A6C1
:1002970047036250010B2D010F2E01322B0113234F
:1002A700013020034B2A00CB480000012A3F3F3F83
:1002B70000790AA2D5200314300509B910020404F5
:1002C700B9080104A2D52006025001042002689251
:1002D70002B509005034C0E07F203003197F30A2F7
:1002E7000272067205500F120311C202C206C2053E
:1002F700C2087F30800F300503E9C0E0120061308B
:100307000503D0E0F9D0E0B509CC3005177F30B947
:10031700100C1200617F583004077F788003B908FA
:10032700031200613002057F2D0200617F20200843
:10033700F87F2B2006F322920280CF286E756C6C13
:100347002900D2011200263001F8C201780930D500
:100357000108F60200CB2D5043495812002624030A
:10036700B405004001E490035D93120052743A1201
:0A0377000052D2037509040201B020
:1005FC00BB010689828A83F0225002F722BBFE01DE
:02060C00F322D7
:0C060E00E6FC08E6FD08E6FE08E6FF2218
:0C061A00E0FCA3E0FDA3E0FEA3E0FF2253
:10062600E493FC740193FD740293FE740393FF221A
:10063600FAE2FB0808E2F925F0F218E2CA3AF222D9
:10064600D083D082F8E4937012740193700DA3A343
:1006560093F8740193F5828883E473740293686057
:06066600EFA3A3A380DF57
:1009B500EFB40A07740D1209C0740A309811A8998A
:1009C500B8130CC2983098FDA899C298B811F630A2
:0709D50099FDC299F599227A
:00000001FF
