:0E08AE00630070007600640061007300660055
:10050F0078BB12030802022174FFFFFE1208E312E8
:10051F0008F6D2B722E2FE08E2FF08E2FC08E2FD8D
:10052F00C39FEC9E2278C21202F078CBEEF208EF56
:10053F00F222E2FC08E2F5828C8302023AEEF20824
:10054F00EFF208120311E422D2B57F647E0022E29B
:09055F002401F218E23400F2223A
:0608000078BAE2FF7E0061
:10080600EF30E003C38001D392B2EF30E103C3803F
:0F08160001D392B3EF30E203C38001D392B42237
:0708E300EFF580EEF5902215
:0308F6008FA022AE
:0308F900AFA0228B
:0B08C800120517D2B61205570207B642
:10088E001205171208FCD2B61208FCC2B50208FCFB
:10086A001208E3AF051208F6C2B71208FCD2B702A3
:02087A0008FC78
:0608EA001205570207B6DB
:10089E001205171208FCD2B61208FCC2B50208FCEB
:100003001208E37FFF1208F6C2B61208FC1208F9C1
:0D00130078D1EFF2D2B61208FC78D1E2FFEE
:0100200022BD
:0608F0001205570207B6D5
:100825007DAA7455FFFE12086A7D557FAA7E2A129D
:0B083500086A7DA07455FFFE02086AEF
:100739001207517D807455FFFE12086A1207517D18
:10074900207455FFFE02086A7DAA7455FFFE12083F
:0B0759006A7D557FAA7E2A12086A22E2
:0205F10078C6CA
:1005F30012054C78CFF208F212088E120739E4780C
:10060300CDF208F278CB120524501E78C7E22DFFF5
:1006130018E23CFE78C812030878CD120541FD129A
:0C062300086A78CE12055E80DB0208EA4F
:0205AE0078C60D
:1005B00012054C78CFF208F212089EE478CDF208CA
:1005C000F278CB120524502378C7E22DFF18E23CC5
:1005D000FE12000378C812030878CD1205416F603F
:1005E000037F002278CE12055E80D61208F07FFFCE
:0105F00022E8
:1003CE0078C61202FC78C61202F07808120286E491
:1003DE00FFE4FDFCC004C005C006C00778C61202CB
:1003EE00F07818120286E4FEFDFCD003D002D00194
:1003FE00D000120279C004C005C006C00778C6122C
:10040E0002F078081202ADE4FFFEE4FCD003D00245
:10041E00D001D000120279C004C005C006C0077812
:10042E00C61202F078181202ADE4FFFEED54F0FD94
:10043E00EC540FFCD003D002D001D000120279226E
:0100210022BC
:10002600E478BAF2FBFAF90812031178BAE2FFB4DF
:10003600080050F790004025E07301500170018ED2
:1000460001C6212E21942196219B7E0012080612BC
:100056000000E478CAF2FB7D08FC7F0612070CEF6D
:100066004E60C878BA7401F280C11201E170028054
:100076001212050FB4430B7BFF7A0879AE120219F0
:100086008037E478BAF280A31201E17002802A1266
:10009600050FB450087BFF7A0879B0212412050FAA
:1000A600B456087BFF7A0879B2217412050FB4445E
:1000B600087B007A007964214678BA7402F201312D
:1000C6001201F87002213312050FB444087BFF7A3F
:1000D6000879B4214612050F64416002218012019D
:1000E600A078BE1202F0C006C00778C21202F078ED
:1000F600CBEEF208EFF2D007D0061205F178BE1269
:1001060002F0C006C00778BB120308120534D007F8
:10011600D0061205AEEF7BFF600C7A0879B81202A2
:080126000F7403F20131218284
:10012E001201F8700778BA7407F2013112050FB494
:10013E00440E7BFF7A0879B412020F7406F2013175
:10014E0012050F6441702B1201A078BE1202F0C08E
:10015E0006C007120534D007D0061205AEEF7BFF9E
:10016E00600E7A0879B812021978BA7404F2013165
:10017E0080027BFF7A0879BA7D017C0012056878CF
:04018E00BA7405F248
:0E019200013180001208000131120800013115
:1001A00078BB1203089000011202C01203CE78BE81
:1001B0001202FC78BB1203089000051202C0120361
:1001C000CE78C21202FC7BFF7A0879B67D017C00F2
:1001D00012056878C21202F012066A78BB12031187
:1001E0002278BAE2FF7E001208067F0112066A78C2
:1001F000BB120311EA494B2278BAE2FF7E001208D3
:10020000067F0912066A78BB120311EA494B227D68
:10021000017C0012056878BA227D017C0012056815
:0102200022BB
:1008400082B403E882B203E8820E003282B603E883
:0408500082B0003240
:1006D90078C9EEF208EFF2FBAA06EA3395E0F9F8D9
:1006E900C3E49BFFE49AFE740199FDE498FC780841
:1006F9001202998F8C78C908E2FBC3E49BFF8F8AA9
:03070900D28C226D
:0300230002044E86
:10044E00C0E0C0D075D000C000C00730982478B886
:10045E00E2701D780AE2FF04F274102FF8E599F2AB
:10046E00780CE2FF780AE2C39F400578B874FFF279
:10047E00C29830992478B9E2701D780BE2FF04F22D
:10048E0074902FF8E2F599780DE2FF780BE2C39F96
:10049E00400578B974FFF2C299D007D000D0D0D001
:0204AE00E0323A
:10076400E4FFFE2099FDC3EF9420EE9400500D7435
:10077400902FF8E4F20FBF00010E80EAE4780BF248
:08078400780DF278B974FFF260
:01078C00224A
:0C04B00078C912031178CCECF208EDF2D0
:1004BC00E4FFFE78B9E260FB2099F8C378CDE294B2
:1004CC002018E294004006E4F2087420F2D378CDB0
:1004DC00E29F18E29E401A78C91203088F828E831D
:1004EC0012023AFD74902FF8EDF20FBF00010E804E
:1004FC00DCE4780BF278CC08E2780DF2E478B9F20F
:02050C00D29982
:01050E0022CA
:0808D3002099FD78B9E2FF2233
:1005680078C61203118D828C8378B0E2FC08E2FD14
:10057800AF82AE8312026778B7E22FFF18E23EFE21
:100588001206D978C6120308AE83AF82AD07AC064F
:100598001204B01208D3EF7003308DF7208D047F5A
:0605A8000180027F002229
:10078D00E4FFFE2098FDC3EF9480EE9400500D0F12
:10079D00EF70010E142410F8E4F280EAE4780AF206
:0807AD00780CF278B874FFF239
:0107B5002221
:10062F00E4FDFC78B8E260FB2098F8C3EF9480EE0D
:10063F00940040047E007F80C3ED9480EC940050C2
:10064F000D0DED70010C142410F8E4F280EAE4783B
:0A065F000AF2780CEFF2E478B8F22A
:01066900226E
:0808DB002098FD78B8E2FF222D
:10066A00AB07AA0612062F780EE2FC08E2FDAE02DC
:10067A00AF0312026778B3E22FFF18E23EFE1206BA
:10068A00D91208DBEF7003308DF7208D077BFE7AD5
:0B069A00007910227B007A007900221A
:1006A50078B4EEF208EFF2AF0578B2ECF208EFF2AB
:1006B500AF03780EEAF208EFF27806E2FF08E27877
:1006C500B6CFF208EFF27808E2FF08E278B0CFF291
:0406D50008EFF22216
:10070C0078C6EFF208ECF208EDF208EBF21207648F
:10071C0012078D759850758921758780758DFA75BE
:0D072C008BFAD2ACD2AFD28E7EFF7FFF22BF
:0308FC00000022D7
:09087C0012088512088512088596
:080885007F017E02DEFEDFFAB6
:01088D002248
:0908550012085E12085E12085E32
:0C085E0012087C12088512087C02088534
:0C08BC0012085512085E12085502085E72
:1007DE00EF64014E70020022E4FDFCC3ED9FEE6457
:1007EE0080F8EC6480985008000DBD00010C80EB81
:0107FE0022D8
:0407B600AD07AC06D9
:1007BA00ED64014C70030208BCE4FBFAC3EB9DEC48
:1007CA006480F8EA648098500A1208BC0BBB0001E6
:0307DA000A80E9A9
:0107DD0022F9
:03000000020342B6
:0C034200787FE4F6D8FD7581070203897E
:10022100BB010689828A83E0225002E722BBFE02DB
:09023100E32289828A83E493220E
:10023A00BB010CE58229F582E5833AF583E0225079
:10024A0006E92582F8E622BBFE06E92582F8E222C3
:0D025A00E58229F582E5833AF583E49322DD
:10026700EF8DF0A4A8F0CF8CF0A428CE8DF0A42EAB
:02027700FE2265
:0D027900EF4BFFEE4AFEED49FDEC48FC2284
:10028600E8600FECC313FCED13FDEE13FEEF13FF56
:03029600D8F1227A
:10029900E86010ECA2E713FCED13FDEE13FEEF137B
:0402A900FFD8F02268
:1002AD00E8600FEFC333FFEE33FEED33FDEC33FCAF
:0302BD00D8F12253
:1002C000BB010DE58229F582E5833AF58302032619
:1002D0005007E92582F802031ABBFE07E92582F8D8
:1002E0000202F0E58229F582E5833AF583020332C2
:0C02F000E2FC08E2FD08E2FE08E2FF224A
:0C02FC00ECF208EDF208EEF208EFF2223E
:09030800E2FB08E2FA08E2F92226
:09031100EBF208EAF208E9F2221D
:10034E00020026E493A3F8E493A34003F68001F29F
:10035E0008DFF48029E493A3F85407240CC8C333B0
:10036E00C4540F4420C8834004F456800146F6DF7F
:10037E00E4800B0102040810204080900840E47EC7
:10038E00019360BCA3FF543F30E509541FFEE49374
:10039E00A360010ECF54C025E060A840B8E493A33B
:1003AE00FAE493A3F8E493A3C8C582C8CAC583CA66
:1003BE00F0A3C8C582C8CAC583CADFE9DEE780BE1E
:0108540000A3
:0C031A00E6FC08E6FD08E6FE08E6FF220F
:0C032600E0FCA3E0FDA3E0FEA3E0FF224A
:10033200E493FC740193FD740293FE740393FF2211
:00000001FF
