:20006200AF82C00712007DD00790FF217401F08F8212007D90FF2774EFF02290FF27E0208A
:20008200E7F92290FF27E0FF5307C07E00BF40F3BE00F02290FF27E0FF5307887E00BF08B1
:2000A200F3BE00F022C008E581F5082404F581AF827590E1C00712007DD0077590E290FFF8
:2000C200227401F07590E38F82C00712007DD0077590E4E50824F7F8860690FF23EEF075F7
:2000E20090E58F82C00712007DD0077590E6E50824F7F808860690FF24EEF07590E78F823E
:20010200C00712007DD0077590E8E50824F7F80808860690FF25EEF07590E98F82C00712BD
:20012200007DD0077590EAE50824F7F8080808860653061F7D004306E090FF26EEF0E50838
:200142002403F8E4F608F6E50824F5F886030886048B028C061BBBFF011CEA4E70030202CD
:200162001A7590EB8F82C007C004C003120085D003D004D0077590EC90FF277420F07590CF
:20018200ED8F82C007C004C003120096D003D004D0077590EE90FF27E0FE7590EF20E0C1AF
:2001A200A80808E4F608F6A80808C308E69402505AC003C0047590F08F82C007C004C00329
:2001C200120096D003D004D0077590F1A80808E5082403F9E726FA09E70836FCE50824FBFF
:2001E200F8EA26FAEC0836FC08860390FF20E0FE8A828C838BF0123A22A8080806B600023D
:2002020008067590F2D004D003809CE5082403F874020826F60201537590F3850881D0083A
:2002220022C00885810805810581AF827590E1C00712007DD0077590E290FF227401F07502
:2002420090E38F82C00712007DD0077590E4E50824F7F8860690FF23EEF07590E58F82C02B
:200262000712007DD0077590E6E50824F7F808860690FF24EEF07590E78F82C00712007DAC
:20028200D0077590E8E50824F7F80808860690FF25EEF07590E98F82C00712007DD00775C9
:2002A20090EAE50824F7F808080886067D004306E090FF26EEF0A80808E4F608F6E5082444
:2002C200F5F886030886048B028C061BBBFF011CEA4E70030203837590EB8F82C007C00444
:2002E200C003120085D003D004D0077590EC90FF277430F07590ED8F82C007C004C0031286
:200302000096D003D004D0077590EE90FF27E07590EF20E0C27D007E0074FE2E4058C00392
:20032200C0047590F08F82C007C006C005C004C003120096D003D004D005D006D007759042
:20034200F1A80808E62DFA08E63EFCE50824FBF8EA26FAEC0836FC0886038A828C838BF062
:20036200123AE3FA90FF20F00DBD00010E7590F2D004D00380A3A8080874020826F60202C3
:11038200C97590F3850881D00822902710E4F5F022EF
:20039300C006C007E58304F583E58204F582AE83AF82DFFEDEFAD007D00622C004C005C0C8
:2003B30006C007E58304F583E58204F582AC83AD827E0A7F64DFFEDEFADDF6DCF2D007D0D1
:0603D30006D005D0042253
:0103D9002201
:03000000020006F5
:03005F0002000399
:03000300020435BF
:2003DA00C004C005C082C083759850758921758780758DFA758BFAD28E05903098FDE599CF
:2003FA00FCC29805903098FDE599FDC2980590900000E4C33098FDE599C2980590F0A3E5E8
:20041A00829C70EEE5839D70E9D083D082D005D00490FF70E0900000E47322C008858108DC
:20043A0005810581759001900000E493FE7F00900000E0FC7D007A007B808A008B011ABAC4
:20045A00FF011BE84960198E828F83E493F9A3AE82AF838C828D83E9F0A3AC82AD8380DAD4
:1C047A0090FF70E4F01235D17582001237557582001237F780FE850881D0082229
:2004960075820012006275820022C008858108C082C083C0F00581058190445FE070289070
:2004B6004200E0FAA3E0FBA3E0FCA3E0FFE50824FAF8E6B5021108E6B5030C08E6B504077A
:2004D60008E6B50702804D7401C0E0E4C0E0E50824FAF8E6C0E008E6C0E008E6C0E008E661
:2004F600C0E07400C0E07440C0E0E4C0E07582001200A7E58124F7F58190445FE4F0E508BF
:2005160024FAF8904200E6F008E6A3F008E6A3F008E6A3F0E5082404F8E4F608F6E508248E
:2005360004F8E50824F6F9C3E69708E609975047A80808E5082404F9E726FA09E70836FE4B
:20055600088607E50824F8F8E5082404F9E726FC09E70836FDEC2400F582ED3440F583E06D
:20057600FD8A828E838FF0123A22E5082404F806B60002080680A6758200850881D0082260
:20059600C008858108C082C083C0F005810581A80808E60846600302063FE50824FAF8E6AF
:2005B600084608460846604D7401C0E0E4C0E0E50824FAF8E6C0E008E6C0E008E6C0E00848
:2005D600E6C0E07400C0E07440C0E0E4C0E07582001200A7E58124F7F581E50824FAF89059
:2005F6004204E6F008E6A3F008E6A3F008E6A3F07C000206A77401C0E0E4C0E0904204E0CC
:20061600C0E0A3E0C0E0A3E0C0E0A3E0C0E07400C0E07440C0E0E4C0E0758200120223E5BC
:200636008124F7F5817C008068E5082404F8E4F608F6E5082404F88603088605E4FEFFE55A
:200656000824FAF8C3EB96ED0896EE0896EF0896503DE5082404F8E62400FA08E63440FB83
:20067600A80808E5082404F9E726FD09E70836FE0886078D828E838FF0123AE3FD8A828B71
:1906960083F0E5082404F806B60002080680A37C008C82850881D008224A
:013D190001A8
:2006AF00AD82AE83AFF074012DFAE43EFB8F048A828B838CF0123AE3FC7A008D828E838FF6
:2006CF00F0123AE37F004202EF42048A828C8322C008858108C082C083C0F0E5812404F529
:2006EF0081A80808740326FAE40836FB0886048A828B838CF0123AE3FAE4FBFCE5082404BD
:20070F00F8080808A60418A60318A602187600A80808740226FDE40836FE0886078D828E5E
:20072F00838FF0123AE3FDE4FFFEFCE5082404F8E6420508E6420708E6420608E64204E5DF
:20074F00082404F8080808A60618A60718A605187600A80808740126FAE40836FB08860789
:20076F008A828B838FF0123AE3FAE4FFFEFDE5082404F8E6420208E6420708E6420608E638
:20078F004205E5082404F8080808A60618A60718A602187600A8080886820886830886F0D0
:2007AF00123AE3FBE4FCFEFFE5082404F8E6420308E6420408E6420608E642078B828C832E
:2007CF008EF0EF850881D00822C00885810805810581AD82AE83AFF0E50824FAF8A90809F7
:2007EF00E6F70809E6F7A808088602088604A8080816B6FF020816EA4C6018E50824FCF8F7
:20080F0086048D828E838FF0EC123A22A3AD82AE8380D3850881D00822C008E581F5082499
:20082F0009F581AD82AE83AFF0E50824FBF8E5082405F9E6F70809E6F70809E6F7A80808A7
:20084F00E4F608F6E50824F9F8E5082403F9E6F70809E6F7E5082403F88603088604E508C3
:20086F002403F816B6FF020816EB4C604D8D828E838FF0123AE3FCA3AD82AE83E508240895
:20088F00F8A604087600E5082405F886820886830886F0123AE3FAA31818A68208A6837CB3
:2008AF0000E5082408F8E6C39AFA08E69CFCA80808A60208A604EA4C609AA808088682084B
:2008CF008683850881D00822C008858108C082C083C0F0C0E0E5812411F581904208E0FF83
:2008EF00A3E0FEA3E0FDE5082413F8A60708A60608A605A80808C3E6940208E6940008E651
:20090F00940008E69400403AE5082413F8740626FAE40836FB0886078A828B838FF0123AEB
:20092F00E3FAA3123AE3FBA3123AE3FFA3123AE3FEA80808C3E69A08E69B08E69F08E69EC0
:20094F004009900001E4F5F0020B43E5082413F886820886830886F0123AE3FFBF02028071
:20096F0009BF0303020A49020B3DA8080886040886057D00E5082405F8EC2CF6ED3308F66F
:20098F00E5082413F8740A26FBE40836FE0886078B828E838FF0E5082407F8123AE3F6A363
:2009AF00123AE308F6A3123AE308F6A3123AE308F6A808080886040886050886067F00E586
:2009CF00082407F8EC26F6ED0836F6EE0836F6EF0836F6E508240FFBFA7E007F40C00374E6
:2009EF0002C0E0E4C0E0E5082405F8E6C0E008E6C0E0E5082407F8E6C0E008E6C0E008E68E
:200A0F00C0E008E6C0E08A828E838FF01204A0AF82E58124F8F581D003EF6003020B3D7F30
:200A2F00007E408B828F838EF01206AFAE82AF837D007C008DF0EC020B43A8080886040827
:200A4F00860553047F7D00E5082407F8EC2CF6ED3308F618E625E0F608E633F6E508241339
:200A6F00F8740A26FBE40836FE0886078B828E838FF0E508240BF8123AE3F6A3123AE3086B
:200A8F00F6A3123AE308F6A3123AE308F6A80808860408E6A2E7CC33CC33CC5401FD08E6EE
:200AAF0025E04DFD860608E6A2E7CE33CE33CE5401FFE508240BF8EC26F6ED0836F6EE087E
:200ACF0036F6EF0836F6E508240FFBFA7E007F40C0037404C0E0E4C0E0E5082407F8E6C051
:200AEF00E008E6C0E0E508240BF8E6C0E008E6C0E008E6C0E008E6C0E08A828E838FF01287
:200B0F0004A0AF82E58124F8F581D003EF701FFF7E408B828F838EF01206DFAC82AD83AE4B
:200B2F00F0FF53070F8C828D838EF0EF8006900001E4F5F0850881D00822C008858108C83D
:200B4F00E581240BF581E5082405C8A68208A68308A6F008F6904208E0FAA3E0FBA3E0FFF4
:200B6F00E5082409F8A60208A60308A607E5082405F8A90809E624FEF708E634FF09F70856
:200B8F00E634FF09F708E634FF09F7E5082409F8740626FAE40836FB0886048A828B838C0B
:200BAF00F0123AE3FAA3123AE3FBA3123AE3FCA3123AE3FFEA24FEFAEB34FFFBEC34FFFC67
:200BCF00EF34FFFFA80808C3E69A08E69B08E69C08E69F4009900000E4F5F0020C7EE5082F
:200BEF002409F8740226FDE40836FE0886078D828E838FF0123AE3FD7F007E007C00C0056A
:200C0F00C007C006C004A8080886820886830886F008E6123AFFC8E5082405C8A68208A670
:200C2F008308A6F008F6E58124FCF581E5082409F8741226FAE40836FB0886078A828B8306
:200C4F008FF0123AE3FAA3123AE3FBA3123AE3FFA3123AE3FEE5082405F8EA26FAEB08362E
:200C6F00FBEF0836FFEE0836FE8A828B838FF0850881D00822C008E581F5082408F581ADF9
:200C8F0082AE83AFF0904208E0FAA3E0FBA3E0FCA80808E4F608F608F608F68A828B838C10
:200CAF00F0123AE3FBBB034B74142DFCE43EFB8F028C828B838AF0C007C006C0051206AFF4
:200CCF00AA82AB83D005D006D007E5082405F8A60208A603087600087600E5082405F8A90F
:200CEF00080908E6090909F718E619F719197700097700741A2DFAE43EFB8A828B838FF032
:200D0F001206AFAE82AF837D007C00A80808E6420608E6420708E6420508E642048E828F7D
:200D2F00838DF0EC850881D00822C008858108C082C083C0F0E581240BF581904208E0FAE6
:200D4F00A3E0FBA3E0FCE5082408F8A60208A60308A604A8080886820886830886F0E41226
:200D6F003A22A3123A22A80808740526FAE40836FB0886048A828B838CF0E508240BF8123B
:200D8F003AE3F6A3123AE308F6A3123AE308F6A3123AE308F6E508240BF8B6010E08B6002A
:200DAF000A08B6000608B60002803CE5082408F8740626FDE40836FE0886078D828E838FC8
:200DCF00F0123AE3FDA3123AE3FEA3123AE3FFA3123AE3FCE508240BF8C3E69D08E69E088B
:200DEF00E69F08E69C4006758201020F1FE508240BF8E60846084608467045E5082408F8BD
:200E0F0086820886830886F0123AE3FFBF0331E5082408F8740E26FDE40836FE0886078D13
:200E2F00828E838FF0E508240BF8123AE3F6A3123AE308F6A3123AE308F6A3123AE308F6E8
:200E4F00A80808740926FDE40836FE0886078D828E838FF0E508240BF8E6123A22A308E6DE
:200E6F00123A22A308E6123A22A308E6123A22A80808740D26FDE40836FE088607E50824D5
:200E8F000BF8E60846084608466030E508240BF886820886830886F008E6C007C006C005F5
:200EAF00120B49C8E5082404C8A68208A68308A6F008F6D005D006D0078031E5082408F8DF
:200ECF00740E26FAE40836FB0886048A828B838CF0E5082404F8123AE3F6A3123AE308F61A
:200EEF00A3123AE308F6A3123AE308F68D828E838FF0E5082404F8E6123A22A308E6123A66
:200F0F0022A308E6123A22A308E6123A22758200850881D00822C008858108C082C083C088
:200F2F00F0E5812413F581904208E0FAA3E0FBA3E0FCE5082414F8A60208A60308A604A81E
:200F4F00080886820886830886F0123AE3FBA3123AE3FCE5082412F874012BF6E43C08F614
:200F6F00E5082412F8E60846603BA80808E508240BF9740D26F7E4083609F70809E6F7E518
:200F8F0008240BF886820886830886F0123AE3FEA3123AE3FDA3123AE3FCA3123AE3FFEEF3
:200FAF004D4C4F70067582030211BBE5082412F8E6540F600302119E0EBE00090DBD0005E0
:200FCF000CBC00010FE508240BF886820886830886F0EE123A22A3ED123A22A3EC123A2228
:200FEF00A3EF123A22A80808E5082408F9740926F7E4083609F70809E6F7E5082408F886D7
:20100F00820886830886F0E5082404F9123AE3F7A3123AE309F7A3123AE309F7A3123AE306
:20102F0009F7E5082404F8E60846084608467035E5082414F8740426FAE40836FB088604BB
:20104F008A828B838CF0123AE3FAA3123AE3FBE5082412F8C3E69A08E69B500302119E7595
:20106F0082030211BBE5082412F8860308E6C4CBC4540F6BCB540FCB6BCBFCE5082414F813
:20108F00740226FAE40836FE0886078A828E838FF0123AE3FA7F001ABAFF011FEA5203EF91
:2010AF005204EB4C600302119EE5082404F886820886830886F008E61208D7AD82AE83ACF1
:2010CF00F0FFE508240EF8A60508A60608A60408A607E508240EF8C3740196E40896E408E2
:2010EF0096E4089640067582010211BBE5082414F8740626FDE40836FE0886078D828E832E
:20110F008FF0123AE3FDA3123AE3FEA3123AE3FFA3123AE3FCE508240EF8C3E69D08E69EBD
:20112F0008E69F08E69C40067582030211BBE5082408F886820886830886F0E508240EF9BB
:20114F00E7123A22A309E7123A22A309E7123A22A309E7123A22E508240EF88682088683F8
:20116F000886F008E6120B49AE82AD83ACF0FFE508240BF886820886830886F0EE123A228C
:20118F00A3ED123A22A3EC123A22A3EF123A22A8080886820886830886F0E5082412F9E7F3
:2011AF00123A22A309E7123A22758200850881D00822C008858108C082C083C0F0E581241D
:2011CF0006F581A8080886820886830886F0120D39E582FC60058C8202138EA80808740236
:2011EF0026FAE40836FB088604A80808E5082407F9740D26F7E4083609F70809E6F7C002D8
:20120F00C003C004A8080886820886830886F0123AE3FBA3123AE353030FE4C42354E0CBBE
:20122F00C423CB6BCB54E0CB6BFCE5082407F886820886830886F0123AE3FAA3123AE3FDB2
:20124F00A3123AE3FEA3123AE3FFC004C003C0027420C0E0E4C0E0C003C004C002C005C00F
:20126F0006C007E50824FBF886820886830886F01204A0AF82E58124F8F581D002D003D0A3
:20128F0004D004D003D002EF60067E017F0080047E007F00EE600302138CE50824FBF8E513
:2012AF00082404F9E6F70809E6F70809E6F7E5082404F886820886830886F0123AE37005F5
:2012CF007E0302138CC002C003C004E5082404F8740B26FCE40836FD0886078C828D838F85
:2012EF00F0123AE3D004D003D00220E36CC0068A828B838CF0123AE3FDA3123AE3FEA312CB
:20130F003AE3FFE5082404F8A60508A60608A607E50824FBF88605088606088607C004C045
:20132F0003C002740BC0E0E4C0E0E5082404F8E6C0E008E6C0E008E6C0E08D828E838FF0E8
:20134F00120828AE82AF83E58124FBF581D002D003D004EE4FD0066024A808088682088681
:20136F00830886F0C004C003C002120F25AF82D002D003D0048F06EE700302120D8E828578
:20138F000881D00822C008E581F5082409F581AD82AE83AFF074022DFDE43EFE8D828E830E
:2013AF008FF0E5082407F8123AE3F6A3123AE308F6A3123AE308F6E5082407F886020886A4
:2013CF0003088604740BC0E0E4C0E07420C0E0E4C0E08A828B838CF01207D8E58124FCF50C
:2013EF0081E5082403F87600A808087608E50824FBF886020886060886078A828E838FF054
:20140F00E5082404F8123AE3F6A3123AE308F6A3123AE308F67D00C002C006C0078D040D81
:20142F00E5082404F8EC26FBE40836FC0886078B828C838FF0A8080808123AE3F6A8080898
:20144F0008E624DF9200D007D006D0022000030214D5A8080808B62F02806BA8080808B665
:20146F002E02800DE5082403F8A90809C3E697401CA80808B6084FA8080808B62E48E508A0
:20148F002403F87608A80808760B021426C002C006C007E5082403F88604E5082403F80634
:2014AF00E5082407F8EC26FBE40836FC0886078B828C838FF0A8080808E6123A22D007D0F7
:2014CF0006D002021426E5082404F8ED26FDE40836FC0886038A828E838FF0ED123A22A383
:2014EF00EC123A22A3EB123A22E5082407F8740B26FDE40836FE0886072000067B017C0002
:20150F0080047B007C008D828E838FF0EB123A22758200850881D00822C008858108C08232
:20152F00C083C0F0E5812407F581E50824F8F886020886030886048A828B838CF0123AE331
:20154F00FFBF20140ABA00010BE50824F8F8A60208A60308A60480DFE50824F8F8A602089E
:20156F00A60308A604BF2F10E50824F8F874012AF6E43B08F608A604A80808740526FAE469
:20158F000836FB0886048A828B838CF0E4123A22A3123A22A3123A22A3123A22E50824F84D
:2015AF00F886020886030886048A828B838CF0123AE3FABA20005031A8080886820886838E
:2015CF000886F0120D39AC82E508240AF8A604E50824FBF886020886030886048A828B8372
:2015EF008CF0E4123A22021768A80808740226FAE40836FB088604E50824FBF8E508240774
:20160F00F9740B26F7E4083609F70809E6F7C002C003C004E50824F8FC7B007A40C003C010
:20162F0002C004C003C002A8080886820886830886F0121394AC82158115811581D002D0B6
:20164F0003E508240AF8A604E508240AF8E6D004D003D0026003021768C002C003C004C05C
:20166F0003C002E50824FBF8E6C0E008E6C0E008E6C0E0A8080886820886830886F012117E
:20168F00C1AC82158115811581D002D003E508240AF8A604E508240AF8E6D004D003D002B6
:2016AF0060030217688A828B838CF0123AE3FDA3123AE3FEA3123AE3FF740B2DFDE43EFE0B
:2016CF008D828E838FF0123AE36003021768C002C003C004E5082407F88682088683088649
:2016EF00F0123AE3D004D003D00220E409E508240AF876038063C002C003C004A80808E5E1
:20170F00082404F9740526F7E4083609F70809E6F7E50824FBF886820886830886F0C0038D
:20172F00C002120C84AE82AD83ACF0FFD002D003E5082404F886820886830886F0EE123AB8
:20174F0022A3ED123A22A3EC123A22A3EF123A22D004D003D00202161DE508240AF8868294
:20176F00850881D00822C008858108AD82AE83AFF0C007C006C0057402C0E0E4C0E074FE1F
:20178F00C0E0F4C0E0E50824FAF8E6C0E008E6C0E008E6C0E008E6C0E08D828E838FF01222
:2017AF0004A0AC82E58124F8F581D005D006D007EC60067582030218B28D828E838FF0C057
:2017CF0007C006C0051206AFAB82AC83D005D006D007BB5505BCAA0280067582020218B2FB
:2017EF00C007C006C0057402C0E0E4C0E07436C0E0E4C0E0E50824FAF8E6C0E008E6C0E009
:20180F0008E6C0E008E6C0E08D828E838FF01204A0AC82E58124F8F581D005D006D007ECB4
:20182F0070248D828E838FF0C007C006C0051206AFAB82AC83D005D006D007BB4608BC4169
:20184F0005758200805DC007C006C0057402C0E0E4C0E07452C0E0E4C0E0E50824FAF8E6E1
:20186F00C0E008E6C0E008E6C0E008E6C0E08D828E838FF01204A0AC82E58124F8F581D0C4
:20188F0005D006D007EC70188D828E838FF01206AFAE82AF83BE4608BF41057582008003C0
:2018AF00758201D00822C008858108C082C083C0F0E581243FF5817590A1904208E4F0A3E6
:2018CF00F0A3F0120496E58230E0097590A2758202021F2EE5082413F8E4F608F608F60861
:2018EF00F67590A3E508241BF9FA7B007C40C001E4C0E0C0E0C0E0C0E08A828B838CF01218
:20190F001775AC82E58124FCF581D001BC010280030219D4C0047590A489038B027B007C83
:20192F0040C0017410C0E0E4C0E074BEC0E07401C0E0E4C0E0C0E0C0E0C0E08A828B838CFE
:20194F00F01204A0AC82E58124F8F581D001ECD00460077590A57C03806B740429F8E660C1
:20196F00647590A6740829FA7B007F408A828B838FF0C0011206DFAB82AD83AEF0FFD00154
:20198F00E5082413F8A60308A60508A60608A6077590A789077E007D40C001E5082413F803
:2019AF00E6C0E008E6C0E008E6C0E008E6C0E08F828E838DF0121775AC82E58124FCF58181
:2019CF00D0017590A8BC03097590A9758201021F2EEC60097590AA758206021F2E89047B65
:2019EF00007A40C0017424C0E0E4C0E0740DC0E0E4C0E0E5082413F8E6C0E008E6C0E008C4
:201A0F00E6C0E008E6C0E08C828B838AF01204A0AC82E58124F8F581D001EC60097590AB5B
:201A2F00758201021F2E7590AC740929FC7B007A408C828B838AF0C0011206AFAB82AC834E
:201A4F00D001E5082404F8A60308A604087600087600E5082404F8E60846084608467025D0
:201A6F00741729FC7B007A408C828B838AF0C0011206DFC8E5082404C8A68208A68308A678
:201A8F00F008F6D001740329F886048C027B007C007F00C001C002C003C004C007E5082470
:201AAF0004F886820886830886F008E6123AFFAC82AD83AEF0FFE58124FCF581E50824172C
:201ACF00F8A60408A60508A60608A607A80808E5082404F9740A26F7E4083609F70809E6BF
:201AEF00F7D001E5082412F8E904F6E5082412F886027E007F408A828E838FF0C0011206BC
:201B0F00AFAE82AF83E4FDFCE5082413F8EE26FEEF0836FFED0836FDEC0836FCE50824040B
:201B2F00F886820886830886F0EE123A22A3EF123A22A3ED123A22A3EC123A22A80808E513
:201B4F0008240BF9740226F7E4083609F70809E6F7D0018704E508240BF886820886830812
:201B6F0086F0EC123A22A80808C001E5082408F9740426F7E4083609F70809E6F7D0017411
:201B8F000429FA7B007C408A828B838CF0C0011206AFAB82AC83D001E5082408F88682086C
:201BAF0086830886F0EB123A22A3EC123A22740629FC7B007A408C828B838AF0C0011206F6
:201BCF00AFAB82AC83D0018C02E4FCFFE508240EF8A60308A60208A60408A607EB4A4C4F06
:201BEF00702F7590AD741329FF7E007D408F828E838DF0C0011206DFAC82AD83AEF0FFD079
:201C0F0001E508240EF8A60408A60508A60608A607C001E5082412F886077E007D408F8222
:201C2F008E838DF0C0011206AFAE82AF83E4FDFCE508240EF8E6C39EFE08E69FFF08E69DCD
:201C4F00FD08E69CFCE5082417F8E508240EF9EEC396F7EF089609F7ED089609F7EC0896DA
:201C6F0009F7E5082408F886820886830886F0123AE3FAA3123AE3C4CAC4540F6ACA540F66
:201C8F00CA6ACAFBE4FEFFE508240EF8E6C39AF608E69BF608E69EF608E69FF6E508240B6B
:201CAF00F886820886830886F0123AE3FC7D007E007F00C004C005C006C007E508240EF8B4
:201CCF0086820886830886F008E6123A3DAC82AD83AEF0FFE58124FCF581D001E508243FCF
:201CEF00F874022CF6E43D08F6E43E08F6E43F08F6A80808740626FDE40836FE0886078D4E
:201D0F00828E838FF0E508243FF8E6123A22A308E6123A22A308E6123A22A308E6123A2209
:201D2F007F00E508243FF8C3E694F808E6940F08E6940008E69400D0014019E508243FF891
:201D4F00C3E694F708E694FF08E6940008E6940050027F02E508243FF8C3E694F708E694EA
:201D6F00FF08E6940008E6940040027F03EF70097590AE758206021F2EA8080886820886D8
:201D8F00830886F0EF123A22BF0353A80808C001E508240EF9740E26F7E4083609F708095E
:201DAF00E6F7D001741F29FC7B007A408C828B838AF01206DFAA82AB83ACF0FFE508240ED8
:201DCF00F886820886830886F0EA123A22A3EB123A22A3EC123A22A3EF123A228069A8087B
:201DEF0008E508240EF9740E26F7E4083609F70809E6F7E5082404F886820886830886F061
:201E0F00123AE3FAA3123AE3FBA3123AE3FCA3123AE3FFE5082417F8E62AFA08E63BFB08C8
:201E2F00E63CFC08E63FFFE508240EF886820886830886F0EA123A22A3EB123A22A3EC12A6
:201E4F003A22A3EF123A22A80808E508240EF9741226F7E4083609F70809E6F7E50824047F
:201E6F00F886820886830886F0123AE3FAA3123AE3FBA3123AE3FCA3123AE3FFE508241707
:201E8F00F8E5082404F9E62AF708E63B09F708E63C09F708E63F09F7E5082408F886820885
:201EAF0086830886F0123AE3FDA3123AE3C4CDC4540F6DCD540FCD6DCDFEE4FCFFE5082444
:201ECF0004F8ED26FDEE0836FEEC0836FCEF0836FFE508240EF886820886830886F0ED12BE
:201EEF003A22A3EE123A22A3EC123A22A3EF123A22A80808740126FDE40836FE0886078DE9
:201F0F00828E838FF0E4123A22A80808904208E6F008E6A3F008E6A3F07590AF75820085B4
:201F2F000881D00822C008E581F5082446F581C8E5082404C8A68208A68308A6F09042088E
:201F4F00E0FAA3E0FBA3E0FCE5082444F8A60208A60308A6047590B1E5082444F8E608460C
:201F6F0070097590B27582050221047590B3E5082444F8740126FDE40836FE0886078D829E
:201F8F008E838FF0E4123A227590B4E5082407FF2402F9E5082418FC7D007E40A70409A7A6
:201FAF000509A7067590B5E5082424F8FC7D007E407B007A40C000E5082404F9E7C0E009A6
:201FCF00E7C0E009E7C0E0C004C005C0068F828B838AF0121528AF82E58124FAF581D000A9
:201FEF007590B6EF60087590B78F820221047590B8E66009740B28F9E7FF30E4097590B95F
:20200F007582030221047590BAE5082444F9C000A80808741E27F6E4093708F60908E7F64C
:20202F00D00088047B007A408C828B838AF0C000120C84AA82AB83ACF0FFA9080987820947
:20204F0087830987F0EA123A22A3EB123A22A3EC123A22A3EF123A227590BBE5082444F988
:20206F00A80808741A27F6E4093708F60908E7F6D000741C28FC7B007A408C828B838AF08F
:20208F001206DFAA82AB83ACF0FFA8080886820886830886F0EA123A22A3EB123A22A3EC13
:2020AF00123A22A3EF123A227590BCE5082444F8741626FDE40836FE0886078D828E838F84
:2020CF00F0E4123A22A3123A22A3123A22A3123A227590BDE5082444F8740126FDE40836B3
:2020EF00FE0886078D828E838FF07401123A227590BE758200850881D00822C008E581F5D7
:20210F0008242AF581AD82AE83AFF0E508241BF8A60508A60608A607904208E0FAA3E0FB7B
:20212F00A3E0FCE5082424F8A60208A60308A604E50824F9F8E5082412F9E6F70809E6F7F0
:20214F000809E6F7E5082412F886820886830886F0E4123A22A3123A22E5082424F8E60852
:20216F0046700675820502263EE5082424F8E5082415F9740126F7E4083609F70809E6F744
:20218F00E5082415F886820886830886F0123AE3FC20E00675820402263EE5082424F87448
:2021AF001A26FAE40836FB0886048A828B838CF0A80808123AE3F6A3123AE308F6A3123AF5
:2021CF00E308F6A3123AE308F6E5082424F8E508240BF9741626F7E4083609F70809E6F746
:2021EF00E508240BF886820886830886F0123AE3FCA3123AE3FDA3123AE3FEA3123AE3FF8A
:20220F00A80808E6C39CFC08E69DFD08E69EFE08E69FFFE5082427F8A60408A60508A606D7
:20222F0008A607E50824FCF88604088605E4FEFFE5082427F8C3E69C08E69D08E69E08E65D
:20224F009F5010E5082427F8E50824FCF9E6F70809E6F7E5082424F8E5082408F974222674
:20226F00F7E4083609F70809E6F7E5082424F8A90809741E26F7E4083609F70809E6F7E5BD
:20228F00082424F8E5082418F9740226F7E4083609F70809E6F7E5082424F8E5082405F9E6
:2022AF00742626F7E4083609F70809E6F7E50824FCF8E60846700302263BE508240BF8869F
:2022CF00820886830886F0E508240EF9123AE3F7A3123AE309F7A3123AE309F7A3123AE32A
:2022EF0009F7E508240EF8E6700508E630E003022498E508240EF8080808E67F00C313FC38
:20230F0018E61318E613FAE5082418F886820886830886F0123AE3FE1EEA5206EEFB600301
:20232F000223FEE508240EF8E60846084608467028A8080886820886830886F0E508241E6E
:20234F00F9123AE3F7A3123AE309F7A3123AE309F7A3123AE309F78043E5082408F88682FD
:20236F000886830886F0123AE3FCA3123AE3FDA3123AE3FEA3123AE38C828D838EF0C003C4
:20238F001208D7AC82AD83AEF0FFD003E508241EF8A60408A60508A60608A607E508241E53
:2023AF00F8C3740196E40896E40896E408964017E5082415F886820886830886F0E4123A86
:2023CF002275820102263EE5082408F886820886830886F0E508241EF9E7123A22A309E7B6
:2023EF00123A22A309E7123A22A309E7123A22E5082408F886820886830886F0123AE3FC8B
:20240F00A3123AE3FDA3123AE3FEA3123AE38C828D838EF0C003120B49AC82AD83AEF0FF7C
:20242F00D003E508240EF8A60408A60508A60608A607EC4D4E4F7017E5082415F886820852
:20244F0086830886F0E4123A2275820102263E8B04E4FDFEFFE508240EF8EC26FCED083679
:20246F00FDEE0836FEEF0836FFE5082405F886820886830886F0EC123A22A3ED123A22A35A
:20248F00EE123A22A3EF123A22E508240BF886820886830886F0123AE3FEA3123AE3FF53D5
:2024AF000701E5082422F8E4C39EF674029F08F6E5082422F8E50824FCF9C3E79609E70823
:2024CF00965010E50824FCF8E5082422F9E6F70809E6F7E508240BF886820886830886F050
:2024EF00123AE3FCA3123AE3FD530501E5082405F886820886830886F0123AE3FAA3123ABD
:20250F00E3FBA3123AE3FEA3123AE3FFE5082422F8E6C0E008E6C0E0C004C005C002C003E0
:20252F00C006C007E508241BF886820886830886F01204A0AF82E58124F8F581EF6017E51A
:20254F00082415F886820886830886F0E4123A2275820102263EE508240BF88682088683BF
:20256F000886F0E508240EF9123AE3F7A3123AE309F7A3123AE309F7A3123AE309F7E5082D
:20258F002422F88602088603E4FEFFE508240EF8EA26FAEB0836FBEE0836FEEF0836FFE574
:2025AF0008240BF886820886830886F0EA123A22A3EB123A22A3EE123A22A3EF123A22E50E
:2025CF000824FCF8E5082422F9E6C397F608E60997F6E5082412F886820886830886F01222
:2025EF003AE3FEA3123AE3FFE5082422F8E62EFE08E63FFFE5082412F886820886830886B5
:20260F00F0EE123A22A3EF123A22E508241BF8E6084670030222BCE508241BF8E50824225D
:15262F00F9E726F609E70836F60222BC758200850881D0082297
:20264400759850AE8953060F4306218E89758780758DFA758BFAD28E2275980053890F53BA
:20266400877FC28E223099FD22C008858108C299E50824FDF886993099FDD00822C0088593
:202684008108AF82E50824FBF886040886050886068C828D838EF0123AE3FBC007C006C0B4
:2026A40005C004C0038F8212266D1581D004D005D006D0078C828D838EF0123AE3FBA3ACD3
:2026C40082AD83EB70CBD00822C008858108C082E4FDFEE50824F9F886030886048B028CF7
:2026E400071BBBFF011CEA4F6048C003C0048D028E070DBD00010EE50824FBF8EA26FAEF7B
:202704000836FC0886078A828C838FF0123AE3FAC006C005C004C003C002A808088682127D
:20272400266D1581D003D004D005D006D004D00380AB1581D008223098FD223098FDAF99C4
:20274400C2988F8222C008858108C082E4FDFEE50824F9F886030886048B028C071BBBFFDF
:20276400011CEA4F604AC003C0048D028E070DBD00010EE50824FBF8EA26FAEF0836FC0892
:202784008607A808088682C007C006C005C004C00212273FAB82D002D004D005D006D00743
:2027A4008A828C838FF0EB123A22D004D00370A91581D00822C008858108C082E4FDFEE5F6
:2027C4000824F9F886030886048B028C071BBBFF011CEA4F604AC003C0048D028E070DBD53
:2027E40000010EE50824FBF8EA26FAEF0836FC088607A808088682C007C006C005C004C064
:202804000212273FAB82D002D004D005D006D0078A828C838FF0EB123A22D004D00380A922
:052824001581D008221F
:20282900C008858108C082C083C0F0E5812409F581E5082407F87689E5082407F904F8C09F
:2028490000E50824FBF886820886830886F0D000C001C000123ACBE5828583F0D000D0016C
:202869002401FBE435F0FA7C007F00A60308A60208A60408A607181818740529C000F8C00F
:2028890001E50824FAF9E7F6D000D00189077E007D40C001C0007406C0E0E4C0E0C007C03B
:2028A90006C0057582001226CDE58124FBF581D0008606088607C006C007E50824FBF8E6E5
:2028C900C0E008E6C0E008E6C0E07582001226CDE58124FBF581E5082404F8FF7E007D40F5
:2028E900C0007403C0E0E4C0E0C007C006C0057582001227B9E58124FBF581D000D0018716
:202909000753077F7E0086057C00EFB50520EEB5041CE804F98707A908098782098783096B
:2029290087F0EF123A22080886078F82800375820F850881D00822C008858108C082C08320
:20294900C0F0E5812409F581E5082407F87681E5082407F904F8C000E50824FBF8868208CD
:2029690086830886F0D000C001C000123ACBE5828583F0D000D0012401FBE435F0FA7C00C0
:202989007F00A60308A60208A60408A607181818740529C000F8C001E50824FAF9E7F6D0DB
:2029A90000D00189077E007D40C001C0007406C0E0E4C0E0C007C006C0057582001226CD05
:2029C900E58124FBF581D0008606088607C006C007E50824FBF8E6C0E008E6C0E008E6C0AF
:2029E900E07582001226CDE58124FBF581E5082404F8FF7E007D40C0007403C0E0E4C0E055
:202A0900C007C006C0057582001227B9E58124FBF581D000D001870753077F7E0086057CEA
:202A290000EFB50520EEB5041CE804F98707A9080987820987830987F0EF123A2208088645
:202A4900078F82800375820F850881D00822C008E581F5082407F581AD82AE83AFF0E5080C
:202A690004F87682A90809E904F88D828E838FF0123AE3FD7F007E007C00A60508A607080E
:202A8900A60608A60489077E007D40C0017405C0E0E4C0E0C007C006C0057582001226CD58
:202AA900E58124FBF581E5082406F8FF7E007D40C0007402C0E0E4C0E0C007C006C00575A8
:202AC90082001227B9E58124FBF581D000D001870753077F7E0086057C00EFB5050BEEB59A
:202AE90004070886078F82800375820F850881D00822C008E581F508240CF581AD82AE835A
:202B0900AFF0E5082404F87684E5082404F904F88D828E838FF0123AE3FD7F007E007C00B8
:202B2900A60508A60708A60608A604740529F8C000E50824F9F886040886057E007F00D080
:202B490000A60408A60508A60608A60789077E007D40C0017409C0E0E4C0E0C007C006C02C
:202B6900057582001226CDE58124FBF581A8080888077E007D40C0007403C0E0E4C0E0C0B3
:202B890007C006C0057582001227B9E58124FBF581D000D001870753077F7E0086057C0029
:202BA900EFB50566EEB50462E804F987077E00C000E50824FBF88603088604088605D000C1
:202BC900C001C000C007C006C003C004C0057582001227B9E58124FBF581D000D001C0004D
:202BE900E50824F6F88605088606088607D00087047B008D828E838FF0EC123A22A3EB12AA
:202C09003A22080886078F82800375820F850881D00822C008E581F508240CF581AD82AE62
:202C290083AFF0E5082404F87685E5082404F904F88D828E838FF0123AE3FD7F007E007C13
:202C490000A60508A60708A60608A604740529F8C000E50824F9F886040886057E007F002F
:202C6900D000A60408A60508A60608A60789077E007D40C0017409C0E0E4C0E0C007C006FB
:202C8900C0057582001226CDE58124FBF581E50824FBF88605088606088607E50824F9F8B5
:202CA900E6C0E008E6C0E0C005C006C0077582001226CDE58124FBF581A8080888077E00E9
:202CC9007D40C0007403C0E0E4C0E0C007C006C0057582001227B9E58124FBF581D000D0FD
:202CE90001870753077F7E0086057C00EFB5052FEEB5042BE50824F6F98705098706098782
:202D090007E804F987047B008D828E838FF0EC123A22A3EB123A22080886078F828003751D
:202D2900820F850881D00822C008E581F508240BF581AD82AE83AFF0E5082403F87686E535
:202D4900082403F904F88D828E838FF0123AE3FD7F007E007C00A60508A60708A60608A640
:202D690004740529F8C001E50824FAF9E7F60809E7F60809E7F60809E7F6D00189077E0061
:202D89007D40C0017409C0E0E4C0E0C007C006C0057582001226CDE58124FBF581A808080A
:202DA90088077E007D40C0007402C0E0E4C0E0C007C006C0057582001227B9E58124FBF531
:202DC90081D000D001870753077F7E0086057C00EFB5050BEEB504070886078F82800375DC
:202DE900820F850881D00822C008858108C082C083C0F0E5812407F581E5082404F8768715
:202E0900E5082404F904F8C000A8080886820886830886F0D000C001C000123ACBE582853C
:202E290083F0D000D0012401FBE435F0FA7C007F00A60308A60208A60408A60718181889C6
:202E4900077E007D40C001C0007405C0E0E4C0E0C007C006C0057582001226CDE58124FB36
:202E6900F581D0008606088607A808088603088604088605C006C007C003C004C0057582AC
:202E8900001226CDE58124FBF581E5082409F8FF7E007D40C0007402C0E0E4C0E0C007C0FC
:202EA90006C0057582001227B9E58124FBF581D000D001870753077F7E0086057C00EFB529
:202EC900050BEEB504070886078F82800375820F850881D00822C008858108C082C083C0D9
:202EE900F0E581240BF581E5082404F87688E5082404F904F8C000A8080886820886830820
:202F090086F0D000C001C000123ACBE5828583F0D000D0012401FBE435F0FA7C007F00A606
:202F29000308A60208A60408A607181818740529FFC000E50824FBF886820886830886F02A
:202F4900D000C007C001C000123ACBE5828583F0D000D001D0072401FDE435F0FE7C007B42
:202F690000C000A807A60508A60608A60408A603D00089067D007C40C007C001C0007409BA
:202F8900C0E0E4C0E0C006C005C0047582001226CDE58124FBF581D0008605088606A8081F
:202FA900088602088603088604C005C006C002C003C0047582001226CDE58124FBF581D0BA
:202FC90001D007A8078606088607E50824FBF88603088604088605C001C006C007C003C0BD
:202FE90004C0057582001226CDE58124FBF581E508240DF8FF7E007D40C0007402C0E0E4FE
:20300900C0E0C007C006C0057582001227B9E58124FBF581D000D001870753077F7E0086C5
:20302900057C00EFB5050BEEB504070886078F82800375820F850881D00822C008E581F54A
:20304900082408F581AF82E50804F87694A90809E904F8A607740229F8C000E50824FBF8F2
:203069008605088606088607D0008D828E838FF0123AE3FD7F007E007C00A60508A6070817
:20308900A60608A60489077E007D40C0017406C0E0E4C0E0C007C006C0057582001226CD51
:2030A900E58124FBF581E5082407F8FF7E007D40C0007402C0E0E4C0E0C007C006C00575A1
:2030C90082001227B9E58124FBF581D000D001870753077F7E0086057C00EFB5050FEEB590
:2030E900040B0886077E008F828E83800390FFFF850881D00822C008858108C082C083C04F
:20310900F0E581240BF581E5082404F87695E5082404F904F8C000A80808868208868308F0
:2031290086F0D000C001C000123ACBE5828583F0D000D0012401FBE435F0FA7C007F00A6E4
:203149000308A60208A60408A607181818740529FFC000E50824FBF88604088605088606EE
:203169008C828D838EF0123AE3FC7E007D007B00A807A60408A60608A60508A603D000893F
:20318900077E007D40C001C0007409C0E0E4C0E0C007C006C0057582001226CDE58124FBEF
:2031A900F581D0008606088607A808088603088604088605C006C007C003C004C005758269
:2031C900001226CDE58124FBF581E508240DF8FF7E007D40C0007402C0E0E4C0E0C007C0B5
:2031E90006C0057582001227B9E58124FBF581D000D001870753077F7E0086057C00EFB5E6
:20320900050FEEB5040B0886077E008F828E83800390FFFF850881D00822C008858108C0FB
:2032290082C083C0F0E581240BF581E5082404F87697E5082404F904F8C000E50824FCF81C
:203249008602088603E63395E0FCFFD000A60208A60308A60408A607740529F8C000E508EC
:2032690024F9F88605088606088607D0008D828E838FF0123AE3FD7F007E007C00A60508B5
:20328900A60708A60608A60489077E007D40C0017409C0E0E4C0E0C007C006C0057582009C
:2032A9001226CDE58124FBF581E508240DF8FF7E007D40C0007402C0E0E4C0E0C007C006CE
:2032C900C0057582001227B9E58124FBF581D000D001870753077F7E0086057C00EFB50506
:2032E90037EEB50433E50824FCF8E6C0E008E6C0E0A80808E6C0E008E6C0E008E6C0E075CC
:2033090082001227B9E58124FBF581A8080886820886830886F0800690000075F0008508DE
:2033290081D00822C008E581F508240AF581AD82AE83AFF0E50804F87698A90809E904F8A5
:203349008D828E838FF0123AE3FD7F007E007C00A60508A60708A60608A60489077E007DCF
:2033690040C0017405C0E0E4C0E0C007C006C0057582001226CDE58124FBF581E508240646
:20338900F8FF7E007D40C0007405C0E0E4C0E0C007C006C0057582001227B9E58124FBF5E0
:2033A90081D000D001870753077F7E0086057C00EFB50510EEB5040C0886060886078E8251
:2033C9008F83800390FFFF850881D00822C008E581F508240AF581AD82AE83AFF0E50804FA
:2033E900F87699A90809E904F88D828E838FF0123AE3FD7F007E007C00A60508A60708A6CC
:203409000608A60489077E007D40C0017405C0E0E4C0E0C007C006C0057582001226CDE58F
:203429008124FBF581E5082406F8FF7E007D40C0007405C0E0E4C0E0C007C006C00575827E
:20344900001227B9E58124FBF581D000D001870753077F7E0086057C00EFB50510EEB50489
:203469000C0886060886078E828F83800390FFFF850881D00822C008E581F508240AF58104
:20348900AD82AE83AFF0E50804F8769AA90809E904F88D828E838FF0123AE3FD7F007E00C4
:2034A9007C00A60508A60708A60608A60489077E007D40C0017405C0E0E4C0E0C007C0060B
:2034C900C0057582001226CDE58124FBF581E5082406F8FF7E007D40C0007405C0E0E4C061
:2034E900E0C007C006C0057582001227B9E58124FBF581D000D001870753077F7E0086059C
:203509007C00EFB50510EEB5040C0886060886078E828F83800390FFFF850881D00822C096
:2035290008E581F508240AF581AD82AE83AFF0E50804F8769BA90809E904F88D828E838F2C
:20354900F0123AE3FD7F007E007C00A60508A60708A60608A60489077E007D40C001740502
:20356900C0E0E4C0E0C007C006C0057582001226CDE58124FBF581E5082406F8FF7E007DCC
:2035890040C0007405C0E0E4C0E0C007C006C0057582001227B9E58124FBF581D000D001AE
:2035A900870753077F7E0086057C00EFB50510EEB5040C0886060886078E828F838003904C
:0835C900FFFF850881D00822F4
:2035D1007590FE9000641203AE7590FD9000641203AE7590FB9000641203AE7590F7900024
:2035F100641203AE7590EF9000641203AE7590DF9000641203AE7590BF9000641203AE755D
:20361100907F9000641203AE22AF827E0074032FFC74FF3EC454F0CCC4CC6CCC54F0CC6C97
:20363100FD8C828D837480F08F0474FF2EC454F0CCC4CC6CCC54F0CC6CFD7BFF900032C035
:2036510007C006C005C004C0031203AED003D004D005D006D0078C828D83EBF08B021BEAC9
:2036710070DA74012FFC74FF3EC454F0CCC4CC6CCC54F0CC6CFD7BFF900032C007C006C000
:2036910005C004C0031203AED003D004D005D006D0078C828D83EBF08B021BEA70DA740256
:2036B1002FFF74FF3EC454F0CFC4CF6FCF54F0CF6FFE7DFF900032C007C006C0051203AE9F
:2036D100D005D006D0078F828E83EDF08D041DEC70E222AF82C007122644D0078F82C00727
:2036F10012273FAE82D007C007C0068F8212266D1581D00780E622AF82C007122644D007B7
:20371100C00774FCC0E0743CC0E07480C0E08F82122681158115811581D007C0077434C04B
:20373100E0E4C0E074C8C0E0743CC0E07480C0E08F821226CDE58124FBF581D00780C12209
:2037510012264422AF82758200C007122644D0078F82C007120062D007C0077401C0E0E495
:20377100C0E0C0E0C0E0C0E0C0E0740BC0E07442C0E0E4C0E08F821200A7E58124F7F5815E
:20379100E4C0E07402C0E0740BC0E07442C0E0E4C0E07582001226CDE58124FBF581D007B7
:2037B1007401C0E0E4C0E004C0E0E4C0E0C0E0C0E0740BC0E07442C0E0E4C0E08F821200DB
:2037D100A7E58124F7F581E4C0E07402C0E0740BC0E07442C0E0E4C0E07582001226CDE5C6
:2037F1008124FBF58122C008858108058105817590D190440B75F0001218B5EB600675904F
:20381100D20238BF7590D3903D1075F080121F34AF828F03EB60067590D40238BF7590D50D
:20383100E5082402FFFC7D007E40C007C003C004C005C006E4C0E07402C0E090420B75F079
:203851000012210AE58124FBF581D003D007EB60057590D680587590D7A808080886057ECD
:2038710000C007C003C005C006740BC0E07442C0E0E4C0E07582001226CDE58124FBF58132
:20389100D003D0077590D87E007D40C003C007C006C005E4C0E07402C0E090420B75F00064
:2038B10012210AE58124FBF581D003EB6000850881D00822C008858108058105810581121F
:2038D10026447590D1E4C0E07416C0E0743DC0E07480C0E090445C75F000122829E5812482
:2038F100FCF581ED60067590D2023A1C7590D3E4C0E07410C0E0743DC0E07480C0E090448A
:203911005D75F000122940AF82E58124FCF581EF60067590D4023A1C7590D5E5082402FFBA
:20393100FC7D007E40C007C004C005C006E4C0E07402C0E0740BC0E07442C0E0E4C0E09006
:20395100445D75F000122AFBAE82E58124F8F581D007EE60067590D6023A1C7590D7A80807
:20397100080886057E00C007C005C006740BC0E07442C0E0E4C0E07582001226CDE581244C
:20399100FBF5817590D8740AC0E0E4C0E0C0E0C0E090445D75F000122D31AE82E58124FC2A
:2039B100F581D0078E05ED7062FE7D40C007C006C005E4C0E07402C0E0740BC0E07442C01B
:2039D100E0E4C0E090445D75F000122AFBAF82E58124F8F581EF7033AF080F7E007D40C029
:2039F10007C006C005E4C0E07402C0E0740BC0E07442C0E0E4C0E090445D75F000122C1CA1
:113A1100AF82E58124F8F581EF6000850881D0082224
:203CC8006162636465666768696A6B6C6D6E6F707172737475767778797A41424344454628
:203CE8004748494A4B4C4D4E4F505152535455565758595A73696F545853747220546573F6
:113D080074212121210D0A00312E74787400303A0072
:06003500E478FFF6D8FD9F
:200013007901E94400601B7A01903D19785F75A044E493F2A308B8000205A0D9F4DAF27599
:02003300A0FF2C
:1B3A220020F71130F6138883A88220F509F6A8837583002280FEF280F5F022A3
:20003B007800E84400600A790075A040E4F309D8FC785FE84404600C7905904000E4F0A3DD
:04005B00D8FCD9FAFA
:203A3D00C008858108C082C083C0F0C0E07A007B007E007F007D20A80808080808E6235402
:203A5D0001FCA80808E625E0F608E633F608E633F608E633F6EA2AFAEB33FBEE33FEEF3306
:203A7D00FFEC6003430201E50824FAF8C3EA96EB0896EE0896EF0896401CE50824FAF8EA64
:203A9D00C396FAEB0896FBEE0896FEEF0896FFA80808E64401F6ED14FD709CA80808868279
:0E3ABD000886830886F008E6850881D0082276
:183ACB00AA82AB83123AE36003A380F8C3E5829AF582E5839BF5832204
:0D000600758120123CC4E5826003020003F6
:1C3AE30020F71430F6148883A88220F507E6A88375830022E280F7E49322E022F2
:203AFF00C008858108C082C083C0F0C0E0E5812408F581E5082409F92402F8AF080F8F0668
:203B1F00C000A8068606E50824FAFDFC0C0CA8048604D0008EF0ECA4F608A6F08F068E00A5
:203B3F0086068D048C0086048EF0ECA4F709A7F0E50824092403F987068F0474032CF88613
:203B5F00048D038B0086038CF0EBA42EFEF78F0474022CF886048D03EB04F886038CF0EB52
:203B7F00A42EF7E50824092402F98704098706198F0374022BF886038D028A0086028BF01A
:203B9F00EAA4ABF02CFCEB3EFEA70409A706198F03EB04F886038D02EA04F886028BF0EAB0
:203BBF00A4ABF02CFCEB3EFEA70409A7068F0674032EF98F06EE04F886068D0474022CF88E
:203BDF0086048EF0ECA4F78F06EE04F98F06EE04F886068D048C0086048EF0ECA4F709A750
:203BFF00F08D0674032EF98F068E0086068D0474032CF886048EF0ECA4F78D06EE04F98F0E
:203C1F00068E0086068D04EC04F886048EF0ECA4F709A7F08D0177008F017700E508240997
:203C3F00F9E5082405F8E7F609E708F609E708F609E708F6191919A8080886020886030893
:203C5F008606088607E5082405F8EA26F6EB0836F6EE0836F6EF0836F6E5082405F8E6F7C1
:203C7F000908E6F70908E6F70908E6F7191919E709E709E709E7E50824FAF8860408860539
:203C9F00088606088607E5082405F8EC26FCED0836FDEE0836FEEF08368C828D838EF08520
:053CBF000881D008227D
:043CC40075820022E3
:00000001FF
