:10006200AF82C00712007DD00790FF217401F08F8C
:100072008212008590FF2774EFF02290FF27E02084
:10008200E7F92290FF27E0FF5307C07E00BF40F34D
:10009200BE00F02290FF27E0FF5307887E00BF08D2
:1000A200F3BE00F022C008E581F5082404F581AF13
:1000B2008290FF227401F08F82C00712007DD00768
:1000C200E50824F7F8860690FF23EEF08F82C0073A
:1000D20012007DE50824F7F808860690FF24EEF06A
:1000E2007419C0E0743DC0E07480C0E075820012F3
:1000F20025BD158115811581D0078F82C007120099
:100102007DD007E50824F7F80808860690FF25EE5B
:10011200F08F82C00712007DE50824F7F80808086E
:10012200860653061F4306E090FF26EEF07428C0B1
:10013200E0743DC0E07480C0E07582001225BD15F8
:100142008115811581D007E5082403F8E4F608F645
:10015200E50824F5F886030886048B028C061BBB8F
:10016200FF011CEA4E70030202CEC007C004C003A6
:100172007437C0E0743DC0E07480C0E07582001244
:1001820025BD158115811581D003D004D007C00784
:10019200C004C0037446C0E0743DC0E07480C0E097
:1001A2007582001225BD158115811581D003D004F9
:1001B200D0078F82C007C004C0031200857455C0E7
:1001C200E0743DC0E07480C0E07582001225BD1568
:1001D200811581158190FF277420F07464C0E0744A
:1001E2003DC0E07480C0E07582001225BD15811506
:1001F200811581D003D004D0078F82C007C004C00C
:1002020003120096D003D004D00790FF27E0FE30FF
:10021200E003020190C007C004C0037455C0E0743B
:100222003DC0E07480C0E07582001225BD158115C5
:10023200811581D003D004D007A80808E4F608F697
:10024200A80808C308E694025051C003C0048F8274
:10025200C007C004C003120096D003D004D007A880
:100262000808E5082403F9E726FA09E70836FCE559
:100272000824FBF8EA26FAEC0836FC08860390FF0D
:1002820020E0FE8A828C838BF0123A73A80808065B
:10029200B600020806D004D00380A5E5082403F8BE
:1002A20074020826F6C007C004C0037464C0E07478
:1002B2003DC0E07480C0E07582001225BD15811535
:1002C200811581D003D004D00702015C7473C0E0B1
:1002D200743DC0E07480C0E07582001225BD1581B6
:1002E20015811581850881D00822C00885810805FD
:1002F200810581AF827590E1C00712007DD007753C
:1003020090E290FF227401F07590E38F82C0071291
:10031200007DD0077590E4E50824F7F8860690FF83
:1003220023EEF07590E58F82C00712007DD007752D
:1003320090E6E50824F7F808860690FF24EEF075AB
:1003420090E78F82C00712007DD0077590E8E5081C
:1003520024F7F80808860690FF25EEF07590E98FDD
:1003620082C00712007DD0077590EAE50824F7F8ED
:1003720008080886067D004306E090FF26EEF0A8F6
:100382000808E4F608F6E50824F5F886030886046A
:100392008B028C061BBBFF011CEA4E700302044C4D
:1003A2007590EB8F82C007C004C003120085D00392
:1003B200D004D0077590EC90FF277430F07590ED63
:1003C2008F82C007C004C003120096D003D004D0AD
:1003D200077590EE90FF27E07590EF20E0C27D0058
:1003E2007E0074FE2E4058C003C0047590F08F82C8
:1003F200C007C006C005C004C003120096D003D0D7
:1004020004D005D006D0077590F1A80808E62DFAA9
:1004120008E63EFCE50824FBF8EA26FAEC0836FC7E
:100422000886038A828C838BF0123B34FA90FF2079
:10043200F00DBD00010E7590F2D004D00380A3A888
:10044200080874020826F60203927590F385088163
:0A045200D00822902710E4F5F022F4
:103D1900636652656164536563746F72330A006345
:103D29006652656164536563746F72340A00636631
:103D390052656164536563746F72350A0063665234
:103D4900656164536563746F72370A00636652650F
:103D59006164536563746F72380A00636652656102
:103D690064536563746F72390A00636652656164EE
:0A3D7900536563746F7231300A0065
:10045C00C006C007E58304F583E58204F582AE830C
:10046C00AF82DFFEDEFAD007D00622C004C005C082
:10047C0006C007E58304F583E58204F582AC83AD01
:10048C00827E0A7F64DFFEDEFADDF6DCF2D007D076
:07049C0006D005D004222266
:03000000020006F5
:03005F0002000399
:030003000204A351
:1004A30075900190FF70E4F012350E7582001237DB
:0404B3009480FE2211
:013ECC0000F5
:1004B70075820012006275820022C008858108C01B
:1004C70082C083C0F005810581908460E070289028
:1004D7008200E0FAA3E0FBA3E0FCA3E0FFE5082429
:1004E700FAF8E6B5021108E6B5030C08E6B5040705
:1004F70008E6B50702804D7401C0E0E4C0E0E508F6
:1005070024FAF8E6C0E008E6C0E008E6C0E008E63E
:10051700C0E07400C0E07480C0E0E4C0E075820011
:100527001200A7E58124F7F581908460E4F0E508DF
:1005370024FAF8908200E6F008E6A3F008E6A3F0B4
:1005470008E6A3F0E5082404F8E4F608F6E508242D
:1005570004F8E50824F6F9C3E69708E60997504733
:10056700A80808E5082404F9E726FA09E70836FE8B
:10057700088607E50824F8F8E5082404F9E726FCC7
:1005870009E70836FDEC2400F582ED3480F583E0B9
:10059700FD8A828E838FF0123A73E5082404F806E9
:1005A700B60002080680A6758200850881D0082259
:1005B700C008858108AD82AE83ED4E702CE5082416
:1005C700FAF8E6084608460846601AE50824FAF8E5
:1005D700908204E6F008E6A3F008E6A3F008E6A395
:1005E700F07F0080067F0080027F008F82D0082284
:013ECD0001F3
:1005F700AD82AE83AFF074012DFAE43EFB8F048A1F
:10060700828B838CF0123B34FC7A008D828E838F31
:10061700F0123B347F004202EF42048A828C83222D
:10062700C008858108C082C083C0F0E5812404F535
:1006370081A80808740326FAE40836FB0886048AAA
:10064700828B838CF0123B34FAE4FBFCE50824042C
:10065700F8080808A60418A60318A602187600A822
:100667000808740226FDE40836FE0886078D828E88
:10067700838FF0123B34FDE4FFFEFCE5082404F809
:10068700E6420508E6420708E6420608E64204E5B0
:10069700082404F8080808A60618A60718A60518C7
:1006A7007600A80808740126FAE40836FB088607CE
:1006B7008A828B838FF0123B34FAE4FFFEFDE50854
:1006C7002404F8E6420208E6420708E6420608E67E
:1006D7004205E5082404F8080808A60618A607181E
:1006E700A602187600A8080886820886830886F07E
:1006F700123B34FBE4FCFEFFE5082404F8E6420362
:1007070008E6420408E6420608E642078B828C8325
:100717008EF0EF850881D00822C008858108058101
:100727000581AD82AE83AFF0E50824FAF8A9080980
:10073700E6F70809E6F7A808088602088604A80865
:100747000816B6FF020816EA4C6018E50824FCF8FC
:1007570086048D828E838FF0EC123A73A3AD82AE3E
:100767008380D3850881D00822C008E581F5082455
:1007770009F581AD82AE83AFF0E50824FBF8E50803
:100787002405F9E6F70809E6F70809E6F7A80808CF
:10079700E4F608F6E50824F9F8E5082403F9E6F78E
:1007A7000809E6F7E5082403F88603088604E50840
:1007B7002403F816B6FF020816EB4C604D8D828EA7
:1007C700838FF0123B34FCA3AD82AE83E508240887
:1007D700F8A604087600E5082405F88682088683CB
:1007E7000886F0123B34FAA31818A68208A6837C61
:1007F70000E5082408F8E6C39AFA08E69CFCA8086E
:1008070008A60208A604EA4C609AA8080886820887
:100817008683850881D00822C008858108C082C0E8
:1008270083C0F0C0E0E5812411F581908208E0FFE4
:10083700A3E0FEA3E0FDE508240FF8A60708A60637
:1008470008A605A80808C3E6940208E6940008E687
:10085700940008E69400403AE508240FF874062649
:10086700FAE40836FB0886078A828B838FF0123BEF
:1008770034FAA3123B34FBA3123B34FFA3123B34DD
:10088700FEA80808C3E69A08E69B08E69F08E69EC6
:100897004009900001E4F5F0020A8BE508240FF8FF
:1008A70086820886830886F0123B34FFBF020280E7
:1008B70009BF0303020991020A85A80808860408EC
:1008C70086057D00E5082405F8EC2CF6ED3308F6DF
:1008D700E508240FF8740A26FBE40836FE088607A5
:1008E7008B828E838FF0E5082407F8123B34F6A33A
:1008F700123B3408F6A3123B3408F6A3123B340824
:10090700F6A808080886040886050886067F00E515
:10091700082407F8EC26F6ED0836F6EE0836F6EF6B
:100927000836F6E5082412FBFA7E007F40C0037400
:1009370002C0E0E4C0E0E5082405F8E6C0E008E608
:10094700C0E0E5082407F8E6C0E008E6C0E008E6EE
:10095700C0E008E6C0E08A828E838FF01204C1AF40
:1009670082E58124F8F581D003EF6003020A857FD1
:10097700007E408B828F838EF01205F7AE82AF83A5
:100987007D007C008DF0EC020A8BA808088604081D
:10099700860553047F7D00E5082407F8EC2CF6ED67
:1009A7003308F618E625E0F608E633F6E508240FDF
:1009B700F8740A26FBE40836FE0886078B828E83C6
:1009C7008FF0E508240BF8123B34F6A3123B3408EA
:1009D700F6A3123B3408F6A3123B3408F6A808081E
:1009E700860408E6A2E7CC33CC33CC5401FD08E6F5
:1009F70025E04DFD860608E6A2E7CE33CE33CE547A
:100A070001FFE508240BF8EC26F6ED0836F6EE08AC
:100A170036F6EF0836F6E5082412FBFA7E007F402B
:100A2700C0037404C0E0E4C0E0E5082407F8E6C0AA
:100A3700E008E6C0E0E508240BF8E6C0E008E6C0F9
:100A4700E008E6C0E008E6C0E08A828E838FF012F5
:100A570004C1AF82E58124F8F581D003EF701FFF51
:100A67007E408B828F838EF0120627AC82AD83AED9
:100A7700F0FF53070F8C828D838EF0EF8006900076
:100A870001E4F5F0850881D00822C008858108C8EF
:100A9700E581240BF581E5082405C8A68208A6830D
:100AA70008A6F008F6908208E0FAA3E0FBA3E0FFAF
:100AB700E5082409F8A60208A60308A607E50824FE
:100AC70005F8A90809E624FEF708E634FF09F70840
:100AD700E634FF09F708E634FF09F7E5082409F8C3
:100AE700740626FAE40836FB0886048A828B838C10
:100AF700F0123B34FAA3123B34FBA3123B34FCA3A2
:100B0700123B34FFEA24FEFAEB34FFFBEC34FFFC24
:100B1700EF34FFFFA80808C3E69A08E69B08E69C9F
:100B270008E69F4009900000E4F5F0020BC6E508CF
:100B37002409F8740226FDE40836FE0886078D822C
:100B47008E838FF0123B34FD7F007E007C00C00552
:100B5700C007C006C004A8080886820886830886DE
:100B6700F008E6123B50C8E5082405C8A68208A687
:100B77008308A6F008F6E58124FCF581E508240939
:100B8700F8741226FAE40836FB0886078A828B83F4
:100B97008FF0123B34FAA3123B34FBA3123B34FF12
:100BA700A3123B34FEE5082405F8EA26FAEB0836DB
:100BB700FBEF0836FFEE0836FE8A828B838FF085BF
:100BC7000881D00822C008E581F5082408F581AD21
:100BD70082AE83AFF0908208E0FAA3E0FBA3E0FCCB
:100BE700A80808E4F608F608F608F68A828B838CCC
:100BF700F0123B34FBBB034B74142DFCE43EFB8F1C
:100C0700028C828B838AF0C007C006C0051205F7E5
:100C1700AA82AB83D005D006D007E5082405F8A63D
:100C27000208A603087600087600E5082405F8A957
:100C3700080908E6090909F718E619F719197700E5
:100C4700097700741A2DFAE43EFB8A828B838FF0B2
:100C57001205F7AE82AF837D007C00A80808E64244
:100C67000608E6420708E6420508E642048E828F38
:100C7700838DF0EC850881D00822C008858108C0E3
:100C870082C083C0F0E581240BF581908208E0FAE9
:100C9700A3E0FBA3E0FCE508240CF8A60208A603E2
:100CA70008A604A8080886820886830886F0E41246
:100CB7003A73A3123A73A80808740526FAE40836AB
:100CC700FB0886048A828B838CF0E5082408F812D7
:100CD7003B34F6A3123B3408F6A3123B3408F6A3C1
:100CE700123B3408F6E5082408F8B6010E08B600EA
:100CF7000A08B6000608B60002803CE508240CF88E
:100D0700740626FDE40836FE0886078D828E838FDB
:100D1700F0123B34FDA3123B34FEA3123B34FFA376
:100D2700123B34FCE5082408F8C3E69D08E69E0854
:100D3700E69F08E69C4006758201020E67E50824D7
:100D470008F8E60846084608467045E508240CF802
:100D570086820886830886F0123B34FFBF0331E59D
:100D670008240CF8740E26FDE40836FE0886078D65
:100D7700828E838FF0E5082408F8123B34F6A3121D
:100D87003B3408F6A3123B3408F6A3123B3408F6AB
:100D9700A80808740926FDE40836FE0886078D8230
:100DA7008E838FF0E5082408F8E6123A73A308E665
:100DB700123A73A308E6123A73A308E6123A73A825
:100DC7000808740D26FDE40836FE088607E50824A2
:100DD70008F8E60846084608466030E5082408F89B
:100DE70086820886830886F008E6C007C006C00525
:100DF700120A91C8E5082404C8A68208A68308A693
:100E0700F008F6D005D006D0078031E508240CF8A5
:100E1700740E26FAE40836FB0886048A828B838CD4
:100E2700F0E5082404F8123B34F6A3123B3408F625
:100E3700A3123B3408F6A3123B3408F68D828E8347
:100E47008FF0E5082404F8E6123A73A308E6123A8D
:100E570073A308E6123A73A308E6123A7375820081
:100E6700850881D00822C008858108C082C083C058
:100E7700F0E5812413F581908208E0FAA3E0FBA353
:100E8700E0FCE5082414F8A60208A60308A604A8AF
:100E9700080886820886830886F0123B34FBA31273
:100EA7003B34FCE5082412F874012BF6E43C08F601
:100EB700E5082412F8E60846603BA80808E5082478
:100EC70007F9740D26F7E4083609F70809E6F7E588
:100ED700082407F886820886830886F0123B34FECA
:100EE700A3123B34FDA3123B34FCA3123B34FFEEA9
:100EF7004D4C4F7006758203021103E5082412F862
:100F0700E6540F60030210E60EBE00090DBD000592
:100F17000CBC00010FE5082407F8868208868308C1
:100F270086F0EE123A73A3ED123A73A3EC123A73FA
:100F3700A3EF123A73A80808E5082404F9740926F0
:100F4700F7E4083609F70809E6F7E5082404F88600
:100F5700820886830886F0E508240AF9123B34F7ED
:100F6700A3123B3409F7A3123B3409F7A3123B340E
:100F770009F7E508240AF8E60846084608467035E2
:100F8700E5082414F8740426FAE40836FB088604F6
:100F97008A828B838CF0123B34FAA3123B34FBE535
:100FA700082412F8C3E69A08E69B50030210E67578
:100FB7008203021103E5082412F8860308E6C4CB6E
:100FC700C4540F6BCB540FCB6BCBFCE5082414F840
:100FD700740226FAE40836FE0886078A828E838F13
:100FE700F0123B34FA7F001ABAFF011FEA5203EFEF
:100FF7005204EB4C60030210E6E508240AF88682E7
:101007000886830886F008E612081FAD82AE83AC17
:10101700F0FFE508240EF8A60508A60608A60408AA
:10102700A607E508240EF8C3740196E40896E408B9
:1010370096E408964006758201021103E508241418
:10104700F8740626FDE40836FE0886078D828E832F
:101057008FF0123B34FDA3123B34FEA3123B34FF47
:10106700A3123B34FCE508240EF8C3E69D08E69E70
:1010770008E69F08E69C4006758203021103E5080F
:101087002404F886820886830886F0E508240EF98A
:10109700E7123A73A309E7123A73A309E7123A73FF
:1010A700A309E7123A73E508240EF88682088683B7
:1010B7000886F008E6120A91AE82AD83ACF0FFE530
:1010C700082407F886820886830886F0EE123A73AA
:1010D700A3ED123A73A3EC123A73A3EF123A73A873
:1010E700080886820886830886F0E5082412F9E74F
:1010F700123A73A309E7123A73758200850881D003
:101107000822C008858108C082C083C0F0E5812419
:1011170006F581A8080886820886830886F0120CDF
:1011270081E582FC60058C820212D6A80808740249
:1011370026FAE40836FB088604A80808E508240709
:10114700F9740D26F7E4083609F70809E6F7C0022F
:10115700C003C004A8080886820886830886F012A0
:101167003B34FBA3123B3453030FE4C42354E0CBBB
:10117700C423CB6BCB54E0CB6BFCE5082407F88684
:10118700820886830886F0123B34FAA3123B34FDAB
:10119700A3123B34FEA3123B34FFC004C003C002BA
:1011A7007420C0E0E4C0E0C003C004C002C005C0B2
:1011B70006C007E50824FBF886820886830886F0C0
:1011C7001204C1AF82E58124F8F581D002D003D0A3
:1011D70004D004D003D002EF60067E017F008004B4
:1011E7007E007F00EE60030212D4E50824FBF8E5D9
:1011F700082404F9E6F70809E6F70809E6F7E50819
:101207002404F886820886830886F0123B3470052A
:101217007E030212D4C002C003C004E5082404F808
:10122700740B26FCE40836FD0886078C828D838FB5
:10123700F0123B34D004D003D00220E36CC0068AFE
:10124700828B838CF0123B34FDA3123B34FEA31236
:101257003B34FFE5082404F8A60508A60608A607F8
:10126700E50824FBF88605088606088607C004C03B
:1012770003C002740BC0E0E4C0E0E5082404F8E60C
:10128700C0E008E6C0E008E6C0E08D828E838FF0FC
:10129700120770AE82AF83E58124FBF581D002D0BF
:1012A70003D004EE4FD0066024A80808868208867B
:1012B700830886F0C004C003C002120E6DAF82D04F
:1012C70002D003D0048F06EE70030211558E82857B
:1012D7000881D00822C008E581F5082409F581AD09
:1012E70082AE83AFF074022DFDE43EFE8D828E83C5
:1012F7008FF0E5082406F8123B34F6A3123B3408B6
:10130700F6A3123B3408F6E5082406F88602088699
:1013170003088604740BC0E0E4C0E07420C0E0E476
:10132700C0E08A828B838CF0120720E58124FCF5CC
:1013370081E5082409F87600A80808087608E50872
:1013470024FBF886020886060886078A828E838F22
:10135700F0E5082403F8123B34F6A3123B3408F6F1
:10136700A3123B3408F67D00C002C006C0078D04F7
:101377000DE5082403F8EC26FBE40836FC0886078D
:101387008B828C838FF0A80808123B34F6A80808D4
:10139700C3742096D007D006D0024003021467A872
:1013A7000808B62F03021467A80808B62E02800E95
:1013B700E5082409F8A9080909C3E6974027A808FA
:1013C7000808B608028003021467A80808B62E02A8
:1013D7008003021467E5082409F87608A8080808B6
:1013E700760B02136FA80808B68000401FA80808EC
:1013F70086037C00EB2480FBEC34FFFCEB2483F5B5
:1014070082EC343DF583A80808E493F6A80808B6EB
:1014170061004014A80808E62485400CA80808863F
:1014270004A80808EC24E0F6C002C006C007E508D7
:101437002409F88604E5082409F806E5082406F8CF
:10144700EC26FBE40836FC0886078B828C838FF03A
:10145700A80808E6123A73D007D006D00202136F25
:10146700E5082403F8ED26FDE40836FC0886038A20
:10147700828E838FF0ED123A73A3EC123A73A3EBCB
:10148700123A73E5082406F8740B26FDE40836FEC5
:10149700088607A80808E624DF920040067B017C3F
:1014A7000080047B007C008D828E838FF0EB123AE4
:1014B70073758200850881D00822C008858108C01D
:1014C70082C083C0F0E5812407F581E50824F8F898
:1014D70086020886030886048A828B838CF0123B77
:1014E70034FFBF20140ABA00010BE50824F8F8A658
:1014F7000208A60308A60480DFE50824F8F8A60278
:1015070008A60308A604BF2F10E50824F8F87401FD
:101517002AF6E43B08F608A604A80808740526FA84
:10152700E40836FB0886048A828B838CF0E4123A3F
:1015370073A3123A73A3123A73A3123A73E50824FA
:10154700F8F886020886030886048A828B838CF063
:10155700123B34FABA20005031A808088682088660
:10156700830886F0120C81AC82E508240AF8A604E9
:10157700E50824FBF886020886030886048A828B1E
:10158700838CF0E4123A73021701A8080874022644
:10159700FAE40836FB088604E50824FBF8E5082486
:1015A70004F9740B26F7E4083609F70809E6F7C0CB
:1015B70002C003C004E50824F8FC7B007A40C0039E
:1015C700C002C004C003C002A80808868208868338
:1015D7000886F01212DCAC82158115811581D002C4
:1015E700D003E508240AF8A604E508240AF8E6D09B
:1015F70004D003D0026003021701C002C003C00475
:10160700C003C002E50824FBF8E6C0E008E6C0E036
:1016170008E6C0E0A8080886820886830886F012D4
:101627001109AC82158115811581D002D003E50817
:10163700240AF8A604E508240AF8E6D004D003D063
:101647000260030217018A828B838CF0123B34FD00
:10165700A3123B34FEA3123B34FF740B2DFDE43E73
:10166700FE8D828E838FF0123B346003021701C018
:1016770002C003C004E5082404F8868208868308AC
:1016870086F0123B34D004D003D00220E409E508E9
:10169700240AF876038063C002C003C004A80808C0
:1016A700E5082407F9740526F7E4083609F7080959
:1016B700E6F7E50824FBF886820886830886F0C0EB
:1016C70003C002120BCCAE82AD83ACF0FFD002D0C8
:1016D70003E5082407F886820886830886F0EE1259
:1016E7003A73A3ED123A73A3EC123A73A3EF123ACB
:1016F70073D004D003D0020215B6E508240AF88691
:1017070082850881D00822C008858108AD82AE8312
:10171700AFF0C007C006C0057402C0E0E4C0E074C3
:10172700FEC0E0F4C0E0E50824FAF8E6C0E008E609
:10173700C0E008E6C0E008E6C0E08D828E838FF047
:101747001204C1AC82E58124F8F581D005D006D01A
:1017570007EC600675820302184B8D828E838FF02B
:10176700C007C006C0051205F7AB82AC83D005D011
:1017770006D007BB5505BCAA02800675820202186F
:101787004BC007C006C0057402C0E0E4C0E0743671
:10179700C0E0E4C0E0E50824FAF8E6C0E008E6C0E7
:1017A700E008E6C0E008E6C0E08D828E838FF01285
:1017B70004C1AC82E58124F8F581D005D006D007B5
:1017C700EC70248D828E838FF0C007C006C005128F
:1017D70005F7AB82AC83D005D006D007BB4608BC63
:1017E7004105758200805DC007C006C0057402C050
:1017F700E0E4C0E07452C0E0E4C0E0E50824FAF891
:10180700E6C0E008E6C0E008E6C0E008E6C0E08D14
:10181700828E838FF01204C1AC82E58124F8F581B2
:10182700D005D006D007EC70188D828E838FF0120A
:1018370005F7AE82AF83BE4608BF410575820080BB
:1018470003758201D00822C008858108C082C08341
:10185700C0F0E581243FF581908208E4F0A3F0A36E
:10186700F01204B7E58230E006758202021E9AE59F
:1018770008241BF8E4F608F608F608F6E508241F1E
:10188700F9FA7B007C40C001E4C0E0C0E0C0E0C0E2
:10189700E08A828B838CF012170EAC82E58124FCE0
:1018A700F581D001BC01028003021955C0048903E8
:1018B7008B027B007C40C0017410C0E0E4C0E07480
:1018C700BEC0E07401C0E0E4C0E0C0E0C0E0C0E03A
:1018D7008A828B838CF01204C1AC82E58124F8F5EF
:1018E70081D001ECD00460047C038062740429F881
:1018F700E6605B740829FA7B007F408A828B838FBE
:10190700F0C001120627AB82AD83AEF0FFD001E530
:1019170008241BF8A60308A60508A60608A6078933
:10192700077E007D40C001E508241BF8E6C0E008FB
:10193700E6C0E008E6C0E008E6C0E08F828E838D4F
:10194700F012170EAC82E58124FCF581D001BC03AF
:1019570006758201021E9AEC6006758206021E9ABF
:1019670089047B007A40C0017424C0E0E4C0E074BD
:101977000DC0E0E4C0E0E508241BF8E6C0E008E697
:10198700C0E008E6C0E008E6C0E08C828B838AF0FE
:101997001204C1AC82E58124F8F581D001EC600620
:1019A700758201021E9A740929FC7B007A408C8299
:1019B7008B838AF0C0011205F7AB82AC83D001E5B7
:1019C700082404F8A60308A604087600087600E5AC
:1019D700082404F8E60846084608467025741729BF
:1019E700FC7B007A408C828B838AF0C00112062729
:1019F700C8E5082404C8A68208A68308A6F008F646
:101A0700D001740329F886048C027B007C007F00D8
:101A1700C001C002C003C004C007E5082404F8865B
:101A2700820886830886F008E6123B50AC82AD83B5
:101A3700AEF0FFE58124FCF581E5082417F8A6043C
:101A470008A60508A60608A607A80808E5082404A6
:101A5700F9740A26F7E4083609F70809E6F7D0010A
:101A6700E5082408F8E904F6E5082408F886027E64
:101A7700007F408A828E838FF0C0011205F7AE8205
:101A8700AF83E4FDFCE508241BF8EE26FEEF0836DD
:101A9700FFED0836FDEC0836FCE5082404F88682DD
:101AA7000886830886F0EE123A73A3EF123A73A3FF
:101AB700ED123A73A3EC123A73A80808E508240953
:101AC700F9740226F7E4083609F70809E6F7D001A2
:101AD7008704E5082409F886820886830886F0ECDF
:101AE700123A73A80808C001E508240CF974042603
:101AF700F7E4083609F70809E6F7D001740429FA6C
:101B07007B007C408A828B838CF0C0011205F7AB87
:101B170082AC83D001E508240CF886820886830806
:101B270086F0EB123A73A3EC123A73740629FC7B26
:101B3700007A408C828B838AF0C0011205F7AB8252
:101B4700AC83D0018C02E4FCFFE508240FF8A60360
:101B570008A60208A60408A607EB4A4C4F702C7487
:101B67001329FF7E007D408F828E838DF0C0011286
:101B77000627AC82AD83AEF0FFD001E508240FF84D
:101B8700A60408A60508A60608A607C001E50824B6
:101B970008F886077E007D408F828E838DF0C00116
:101BA7001205F7AE82AF83E4FDFCE508240FF8E6E3
:101BB700C39EFE08E69FFF08E69DFD08E69CFCE540
:101BC700082417F8E508240FF9EEC396F7EF0896EF
:101BD70009F7ED089609F7EC089609F7E508240CCC
:101BE700F886820886830886F0123B34FAA3123BF4
:101BF70034C4CAC4540F6ACA540FCA6ACAFBE4FE83
:101C0700FFE508240FF8E6C39AF608E69BF608E610
:101C17009EF608E69FF6E5082409F886820886837B
:101C27000886F0123B34FC7D007E007F00C004C0B4
:101C370005C006C007E508240FF8868208868308D2
:101C470086F008E6123A8EAC82AD83AEF0FFE581EE
:101C570024FCF581D001E5082413F874022CF6E47E
:101C67003D08F6E43E08F6E43F08F6A808087406BF
:101C770026FDE40836FE0886078D828E838FF0E501
:101C8700082413F8E6123A73A308E6123A73A30876
:101C9700E6123A73A308E6123A737F00E5082413A5
:101CA700F8C3E694F808E6940F08E6940008E6946B
:101CB70000D0014019E5082413F8C3E694F708E6B5
:101CC70094FF08E6940008E6940050027F02E508B6
:101CD7002413F8C3E694F708E694FF08E69400088F
:101CE700E6940040027F03EF7006758206021E9A93
:101CF700A8080886820886830886F0EF123A73BF21
:101D07000353A80808C001E508240FF9740E26F745
:101D1700E4083609F70809E6F7D001741F29FC7BA8
:101D2700007A408C828B838AF0120627AA82AB83C3
:101D3700ACF0FFE508240FF886820886830886F052
:101D4700EA123A73A3EB123A73A3EC123A73A3EFB6
:101D5700123A738069A80808E508240FF9740E265B
:101D6700F7E4083609F70809E6F7E5082404F886D2
:101D7700820886830886F0123B34FAA3123B34FBB1
:101D8700A3123B34FCA3123B34FFE5082417F8E603
:101D97002AFA08E63BFB08E63CFC08E63FFFE508B5
:101DA700240FF886820886830886F0EA123A73A31E
:101DB700EB123A73A3EC123A73A3EF123A73A80823
:101DC70008E508240FF9741226F7E4083609F7081E
:101DD70009E6F7E5082404F886820886830886F072
:101DE700123B34FAA3123B34FBA3123B34FCA3127D
:101DF7003B34FFE5082417F8E5082404F9E62AF739
:101E070008E63B09F708E63C09F708E63F09F7E566
:101E170008240CF886820886830886F0123B34FD76
:101E2700A3123B34C4CDC4540F6DCD540FCD6DCD2B
:101E3700FEE4FCFFE5082404F8ED26FDEE0836FE77
:101E4700EC0836FCEF0836FFE508240FF886820811
:101E570086830886F0ED123A73A3EE123A73A3EC69
:101E6700123A73A3EF123A73A80808740126FDE427
:101E77000836FE0886078D828E838FF0E4123A7348
:101E8700A80808908208E6F008E6A3F008E6A3F0A1
:101E9700758200850881D00822C008858108C08224
:101EA700C083C0F0E5812443F581908208E0FAA35E
:101EB700E0FBA3E0FCE5082424F8A60208A6030833
:101EC700A604E5082424F8E608467006758205028C
:101ED7002046E5082424F8740126FDE40836FE08A8
:101EE70086078D828E838FF0E4123A73E508240704
:101EF700FF2402F9E5082418FC7D007E40A70409A9
:101F0700A70509A706E5082427F8FC7D007E407B86
:101F1700007A40C000A90809E7C0E009E7C0E00966
:101F2700E7C0E0C004C005C0068F828B838AF01229
:101F370014C1AF82E58124FAF581D000EFFE600578
:101F47008E82022046E66009740B28F9E7FF30E429
:101F570006758203022046E5082424F9C000E50837
:101F67002404F8741E27F6E4093708F60908E7F68B
:101F7700D00088047B007A408C828B838AF0C00073
:101F8700120BCCAA82AB83ACF0FFE5082404F987D7
:101F9700820987830987F0EA123A73A3EB123A732F
:101FA700A3EC123A73A3EF123A73E5082424F9E578
:101FB700082404F8741A27F6E4093708F60908E72D
:101FC700F6D000741C28FC7B007A408C828B838AB5
:101FD700F0120627AA82AB83ACF0FFE5082404F8C9
:101FE70086820886830886F0EA123A73A3EB123AD0
:101FF70073A3EC123A73A3EF123A73E5082424F89B
:10200700741626FDE40836FE0886078D828E838FB8
:10201700F0E4123A73A3123A73A3123A73A3123A73
:1020270073E5082424F8740126FDE40836FE0886C3
:10203700078D828E838FF07401123A737582008543
:102047000881D00822C008E581F508242AF581AD6A
:1020570082AE83AFF0E508241FF8A60508A6060898
:10206700A607908208E0FAA3E0FBA3E0FCE50824BA
:1020770028F8A60208A60308A604E50824F9F8E547
:10208700082418F9E6F70809E6F70809E6F7E50866
:102097002418F886820886830886F0E4123A73A328
:1020A700123A73E5082428F8E60846700675820593
:1020B70002257AE5082428F8E5082404F97401269E
:1020C700F7E4083609F70809E6F7E5082404F8866F
:1020D700820886830886F0123B34FC20E00675826E
:1020E7000402257AE5082428F8741A26FAE4083643
:1020F700FB0886048A828B838CF0E508240AF81291
:102107003B34F6A3123B3408F6A3123B3408F6A37C
:10211700123B3408F6E5082428F8A908097416269E
:10212700F7E4083609F70809E6F7A80808868208D9
:1021370086830886F0123B34FCA3123B34FDA312BE
:102147003B34FEA3123B34FFE508240AF8E6C39CA0
:10215700FC08E69DFD08E69EFE08E69FFFE50824CD
:1021670022F8A60408A60508A60608A607E5082477
:10217700FCF88604088605E4FEFFE5082422F8C378
:10218700E69C08E69D08E69E08E69F5010E50824B1
:1021970022F8E50824FCF9E6F70809E6F7E508243C
:1021A70028F8E508240EF9742226F7E4083609F71B
:1021B7000809E6F7E5082428F8E508240AF9741E53
:1021C70026F7E4083609F70809E6F7E5082428F8AA
:1021D700E5082407F9740226F7E4083609F7080921
:1021E700E6F7E5082428F8E5082415F9742626F704
:1021F700E4083609F70809E6F7E50824FCF8E608D5
:10220700467003022577A808088682088683088611
:10221700F0E5082411F9123B34F7A3123B3409F710
:10222700A3123B3409F7A3123B3409F7E50824113D
:10223700F8E6700508E630E0030223DCE508241120
:10224700F8080808E67F00C313FC18E61318E6131E
:10225700FAE5082407F886820886830886F0123B89
:1022670034FE1EEA5206EEFB6003022342E5082411
:1022770011F8E6084608460846702AE508240AF8D1
:1022870086820886830886F0E508241BF9123B340A
:10229700F7A3123B3409F7A3123B3409F7A3123B08
:1022A7003409F78043E508240EF8868208868308F8
:1022B70086F0123B34FCA3123B34FDA3123B34FEE1
:1022C700A3123B348C828D838EF0C00312081FAC9F
:1022D70082AD83AEF0FFD003E508241BF8A60408FF
:1022E700A60508A60608A607E508241BF8C3740177
:1022F70096E40896E40896E408964017E50824044F
:10230700F886820886830886F0E4123A737582019C
:1023170002257AE508240EF886820886830886F067
:10232700E508241BF9E7123A73A309E7123A73A3E6
:1023370009E7123A73A309E7123A73E508240EF87E
:1023470086820886830886F0123B34FCA3123B344E
:10235700FDA3123B34FEA3123B348C828D838EF097
:10236700C003120A91AC82AD83AEF0FFD003E5083B
:102377002411F8A60408A60508A60608A607EC4D2A
:102387004E4F7017E5082404F8868208868308866E
:10239700F0E4123A7375820102257A8B04E4FDFE9C
:1023A700FFE5082411F8EC26FCED0836FDEE0836AB
:1023B700FEEF0836FFE5082415F8868208868308AD
:1023C70086F0EC123A73A3ED123A73A3EE123A7346
:1023D700A3EF123A73A8080886820886830886F056
:1023E700123B34FEA3123B34FF530701E5082426B2
:1023F700F8E4C39EF674029F08F6E5082426F8E57C
:102407000824FCF9C3E79609E708965010E5082465
:10241700FCF8E5082426F9E6F70809E6F7A808080E
:1024270086820886830886F0123B34FCA3123B346D
:10243700FD530501E5082415F8868208868308867A
:10244700F0123B34FAA3123B34FBA3123B34FEA336
:10245700123B34FFE5082426F8E6C0E008E6C0E0B2
:10246700C004C005C002C003C006C007E508241F9A
:10247700F886820886830886F01204C1AF82E58158
:1024870024F8F581EF6017E5082404F886820886AA
:10249700830886F0E4123A7375820102257AA80848
:1024A7000886820886830886F0E5082411F9123B1E
:1024B70034F7A3123B3409F7A3123B3409F7A312ED
:1024C7003B3409F7E5082426F88602088603E4FE6C
:1024D700FFE5082411F8EA26FAEB0836FBEE083682
:1024E700FEEF0836FFA8080886820886830886F06C
:1024F700EA123A73A3EB123A73A3EE123A73A3EFFD
:10250700123A73E50824FCF8E5082426F9E6C39790
:10251700F608E60997F6E5082418F8868208868300
:102527000886F0123B34FEA3123B34FFE50824264D
:10253700F8E62EFE08E63FFFE5082418F88682082D
:1025470086830886F0EE123A73A3EF123A73E50812
:10255700241FF8E608467003022200E508241FF846
:10256700E5082426F9E726F609E70836F6022200E9
:09257700758200850881D008225C
:103D8300809A45418E418F804545454949498E8FEB
:103D93009092924F994F555559999A9B9C9D9E9FEE
:103DA30041494F55A5A5A6A7A8A9AAABACADAEAFEF
:103DB300B0B1B2B3B4B5B6B7B8B9BABBBCBDBEBF88
:103DC300C0C1C2C3C4C5C6C7C8C9CACBCCCDCECF78
:103DD300D0D1D2D3D4D5D6D7D8D9DADBDCDDDEDF68
:103DE300E0E1E2E3E4E5E6E7E8E9EAEBECEDEEEF58
:103DF300F0F1F2F3F4F5F6F7F8F9FAFBFCFDFEFF48
:10258000759850AE8953060F4306218E8975878052
:10259000758DFD758BFDD28E2275980053890F5372
:1025A000877FC28E223099FD22C008858108C2999A
:1025B000E50824FDF886993099FDD00822C00885E9
:1025C0008108AF82E50824FBF886040886050886A2
:1025D000068C828D838EF0123B34FBC007C006C090
:1025E00005C004C0038F821225A91581D004D0052F
:1025F000D006D0078C828D838EF0123B34FBA3ACC7
:1026000082AD83EB70CBD00822C008858108C082E0
:10261000E4FDFEE50824F9F886030886048B028CA5
:10262000071BBBFF011CEA4F6048C003C0048D02BA
:102630008E070DBD00010EE50824FBF8EA26FAEF2F
:102640000836FC0886078A828C838FF0123B34FAA6
:10265000C006C005C004C003C002A80808868212D4
:1026600025A91581D003D004D005D006D004D0030D
:1026700080AB1581D008223098FD223098FDAF99AB
:10268000C2988F8222C008858108C082E4FDFEE5E1
:102690000824F9F886030886048B028C071BBBFF0D
:1026A000011CEA4F604AC003C0048D028E070DBDB5
:1026B00000010EE50824FBF8EA26FAEF0836FC08CC
:1026C0008607A808088682C007C006C005C004C0E7
:1026D0000212267BAB82D002D004D005D006D007F0
:1026E0008A828C838FF0EB123A73D004D00370A9E6
:1026F0001581D00822C008858108C082E4FDFEE56E
:102700000824F9F886030886048B028C071BBBFF9C
:10271000011CEA4F604AC003C0048D028E070DBD44
:1027200000010EE50824FBF8EA26FAEF0836FC085B
:102730008607A808088682C007C006C005C004C076
:102740000212267BAB82D002D004D005D006D0077F
:102750008A828C838FF0EB123A73D004D00380A965
:102760001581D00822C008858108C082C083C0F0CE
:10277000E5812409F581E5082404F87689E5082433
:1027800004F904F8C000E50824FBF8868208868373
:102790000886F0D000C001C000123B1CE582858392
:1027A000F0D000D0012401FBE435F0FA7C007F007A
:1027B000A60308A60208A60408A607181818740598
:1027C00029C000F8C001E50824FAF9E7F6D000D0E6
:1027D0000189077E007D40C001C0007406C0E0E4AE
:1027E000C0E0C007C006C005758200122609E58159
:1027F00024FBF581D0008606088607C006C007E5E1
:102800000824FBF8E6C0E008E6C0E008E6C0E07592
:102810008200122609E58124FBF581E508240AF8E7
:10282000FF7E007D40C0007403C0E0E4C0E0C0074C
:10283000C006C0057582001226F5E58124FBF581EE
:10284000D000D001870753077F7E0086057C00EF0C
:10285000B50520EEB5041CE804F98707A908098727
:10286000820987830987F0EF123A73080886078F79
:1028700082800375820F850881D00822C008858177
:1028800008C082C083C0F0E5812409F581E50824F1
:1028900004F87681E5082404F904F8C000E508246A
:1028A000FBF886820886830886F0D000C001C0004D
:1028B000123B1CE5828583F0D000D0012401FBE4AB
:1028C00035F0FA7C007F00A60308A60208A60408DB
:1028D000A607181818740529C000F8C001E50824D7
:1028E000FAF9E7F6D000D00189077E007D40C001EB
:1028F000C0007406C0E0E4C0E0C007C006C00575B3
:102900008200122609E58124FBF581D000860608A5
:102910008607C006C007E50824FBF8E6C0E008E625
:10292000C0E008E6C0E0758200122609E58124FBBC
:10293000F581E508240AF8FF7E007D40C00074039D
:10294000C0E0E4C0E0C007C006C0057582001226E2
:10295000F5E58124FBF581D000D001870753077F7F
:102960007E0086057C00EFB50520EEB5041CE8046A
:10297000F98707A9080987820987830987F0EF1279
:102980003A73080886078F82800375820F85088155
:10299000D00822C008E581F5082407F581AD82AE94
:1029A00083AFF0E5082403F87682E5082403F904F0
:1029B000F88D828E838FF0123B34FD7F007E007C89
:1029C00000A60508A60708A60608A60489077E0033
:1029D0007D40C0017405C0E0E4C0E0C007C006C08F
:1029E00005758200122609E58124FBF581A80808F7
:1029F00088077E007D40C0007402C0E0E4C0E0C0F3
:102A000007C006C0057582001226F5E58124FBF596
:102A100081D000D001870753077F7E0086057C00A8
:102A2000EFB5050BEEB504070886078F82800375A6
:102A3000820F850881D00822C008E581F508240CA2
:102A4000F581AD82AE83AFF0E50804F87684A9087D
:102A500009E904F88D828E838FF0123B34FD7F00EC
:102A60007E007C00A60508A60708A60608A6047432
:102A70000529F8C000E50824F9F886040886057ED3
:102A8000007F00D000A60408A60508A60608A60731
:102A900089077E007D40C0017409C0E0E4C0E0C049
:102AA00007C006C005758200122609E58124FBF5E2
:102AB00081E508240AF8FF7E007D40C0007403C051
:102AC000E0E4C0E0C007C006C0057582001226F52C
:102AD000E58124FBF581D000D001870753077F7E75
:102AE0000086057C00EFB50566EEB50462E804F9E2
:102AF00087077E00C000E50824FBF88603088604EB
:102B0000088605D000C001C000C007C006C003C0D1
:102B100004C0057582001226F5E58124FBF581D0FD
:102B200000D001C000E50824F6F8860508860608EE
:102B30008607D00087047B008D828E838FF0EC1295
:102B40003A73A3EB123A73080886078F82800375E5
:102B5000820F850881D00822C008E581F508240C81
:102B6000F581AD82AE83AFF0E50804F87685A9085B
:102B700009E904F88D828E838FF0123B34FD7F00CB
:102B80007E007C00A60508A60708A60608A6047411
:102B90000529F8C000E50824F9F886040886057EB2
:102BA000007F00D000A60408A60508A60608A60710
:102BB00089077E007D40C0017409C0E0E4C0E0C028
:102BC00007C006C005758200122609E58124FBF5C1
:102BD00081E50824FBF88605088606088607E508CF
:102BE00024F9F8E6C0E008E6C0E0C005C006C0076A
:102BF000758200122609E58124FBF581E508240A87
:102C0000F8FF7E007D40C0007403C0E0E4C0E0C077
:102C100007C006C0057582001226F5E58124FBF584
:102C200081D000D001870753077F7E0086057C0096
:102C3000EFB5052FEEB5042BE50824F6F987050955
:102C40008706098707E804F987047B008D828E8355
:102C50008FF0EC123A73A3EB123A73080886078FD1
:102C600082800375820F850881D00822C008E58123
:102C7000F508240BF581AD82AE83AFF0E50824039F
:102C8000F87686E5082403F904F88D828E838FF0A8
:102C9000123B34FD7F007E007C00A60508A60708D5
:102CA000A60608A604740529F8C001E50824FAF967
:102CB000E7F60809E7F60809E7F60809E7F6D0019C
:102CC00089077E007D40C0017409C0E0E4C0E0C017
:102CD00007C006C005758200122609E58124FBF5B0
:102CE00081A8080888077E007D40C0007402C0E00B
:102CF000E4C0E0C007C006C0057582001226F5E5F5
:102D00008124FBF581D000D001870753077F7E0027
:102D100086057C00EFB5050BEEB504070886078F26
:102D200082800375820F850881D00822C0088581C2
:102D300008C082C083C0F0E5812407F581E508243E
:102D400004F87687E5082404F904F8C000A8080808
:102D500086820886830886F0D000C001C000123B3E
:102D60001CE5828583F0D000D0012401FBE435F01E
:102D7000FA7C007F00A60308A60208A60408A6079E
:102D800018181889077E007D40C001C0007405C076
:102D9000E0E4C0E0C007C006C00575820012260945
:102DA000E58124FBF581D0008606088607A808087F
:102DB0008603088604088605C006C007C003C00451
:102DC000C005758200122609E58124FBF581E5081E
:102DD0002409F8FF7E007D40C0007402C0E0E4C01A
:102DE000E0C007C006C0057582001226F5E5812403
:102DF000FBF581D000D001870753077F7E00860551
:102E00007C00EFB5050BEEB504070886078F8280BE
:102E10000375820F850881D00822C008858108C00B
:102E200082C083C0F0E581240BF581E5082404F815
:102E30007688E5082404F904F8C000A8080886820A
:102E40000886830886F0D000C001C000123B1CE554
:102E5000828583F0D000D0012401FBE435F0FA7CB8
:102E6000007F00A60308A60208A60408A6071818F3
:102E700018740529FFC000E50824FBF8868208863F
:102E8000830886F0D000C007C001C000123B1CE5DB
:102E9000828583F0D000D001D0072401FDE435F015
:102EA000FE7C007B00C000A807A60508A60608A6B1
:102EB0000408A603D00089067D007C40C007C0013D
:102EC000C0007409C0E0E4C0E0C006C005C00475DD
:102ED0008200122609E58124FBF581D000860508D1
:102EE0008606A808088602088603088604C005C06E
:102EF00006C002C003C004758200122609E58124C1
:102F0000FBF581D001D007A8078606088607E508EB
:102F100024FBF88603088604088605C001C006C0A5
:102F200007C003C004C005758200122609E581248C
:102F3000FBF581E508240DF8FF7E007D40C000749C
:102F400002C0E0E4C0E0C007C006C0057582001200
:102F500026F5E58124FBF581D000D00187075307D2
:102F60007F7E0086057C00EFB5050BEEB5040708F3
:102F700086078F82800375820F850881D00822C062
:102F800008E581F5082408F581AF82E50804F876A4
:102F900094A90809E904F8A607740229F8C000E515
:102FA0000824FBF88605088606088607D0008D826F
:102FB0008E838FF0123B34FD7F007E007C00A605DF
:102FC00008A60708A60608A60489077E007D40C05B
:102FD000017406C0E0E4C0E0C007C006C005758209
:102FE00000122609E58124FBF581E5082407F8FF96
:102FF0007E007D40C0007402C0E0E4C0E0C007C0B5
:1030000006C0057582001226F5E58124FBF581D006
:1030100000D001870753077F7E0086057C00EFB54F
:10302000050FEEB5040B0886077E008F828E838025
:103030000390FFFF850881D00822C008858108C061
:1030400082C083C0F0E581240BF581E5082404F8F3
:103050007695E5082404F904F8C000A808088682DB
:103060000886830886F0D000C001C000123B1CE532
:10307000828583F0D000D0012401FBE435F0FA7C96
:10308000007F00A60308A60208A60408A6071818D1
:1030900018740529FFC000E50824FBF8860408869B
:1030A000050886068C828D838EF0123B34FC7E00F0
:1030B0007D007B00A807A60408A60608A60508A6AA
:1030C00003D00089077E007D40C001C0007409C0A4
:1030D000E0E4C0E0C007C006C00575820012260902
:1030E000E58124FBF581D0008606088607A808083C
:1030F0008603088604088605C006C007C003C0040E
:10310000C005758200122609E58124FBF581E508DA
:10311000240DF8FF7E007D40C0007402C0E0E4C0D2
:10312000E0C007C006C0057582001226F5E58124BF
:10313000FBF581D000D001870753077F7E0086050D
:103140007C00EFB5050FEEB5040B0886077E008FF7
:10315000828E83800390FFFF850881D00822C008FB
:10316000858108C082C083C0F0E581240BF581E52C
:10317000082404F87697E5082404F904F8C000E56B
:103180000824FCF88602088603E63395E0FCFFD0AD
:1031900000A60208A60308A60408A607740529F8D5
:1031A000C000E50824F9F88605088606088607D0D9
:1031B000008D828E838FF0123B34FD7F007E007C79
:1031C00000A60508A60708A60608A60489077E002B
:1031D0007D40C0017409C0E0E4C0E0C007C006C083
:1031E00005758200122609E58124FBF581E5082496
:1031F0000DF8FF7E007D40C0007402C0E0E4C0E036
:10320000C007C006C0057582001226F5E58124FBC3
:10321000F581D000D001870753077F7E0086057CAB
:1032200000EFB50537EEB50433E50824FCF8E6C039
:10323000E008E6C0E0A80808E6C0E008E6C0E0084C
:10324000E6C0E07582001226F5E58124FBF581A831
:10325000080886820886830886F08006900000753C
:10326000F000850881D00822C008E581F508240A0D
:10327000F581AD82AE83AFF0E5082406F87698E5D7
:10328000082406F904F88D828E838FF0123B34FDFA
:103290007F007E007C00A60508A60708A60608A6F3
:1032A0000489077E007D40C0017405C0E0E4C0E0F1
:1032B000C007C006C005758200122609E58124FBFF
:1032C000F581A8080888077E007D40C0007405C00D
:1032D000E0E4C0E0C007C006C0057582001226F514
:1032E000E58124FBF581D000D001870753077F7E5D
:1032F0000086057C00EFB50510EEB5040C088606C7
:103300000886078E828F83800390FFFF850881D017
:103310000822C008E581F508240AF581AD82AE8354
:10332000AFF0E50804F87699A90809E904F88D8258
:103330008E838FF0123B34FD7F007E007C00A6055B
:1033400008A60708A60608A60489077E007D40C0D7
:10335000017405C0E0E4C0E0C007C006C005758286
:1033600000122609E58124FBF581E5082406F8FF13
:103370007E007D40C0007405C0E0E4C0E0C007C02E
:1033800006C0057582001226F5E58124FBF581D083
:1033900000D001870753077F7E0086057C00EFB5CC
:1033A0000510EEB5040C0886060886078E828F830A
:1033B000800390FFFF850881D00822C008E581F5D1
:1033C00008240AF581AD82AE83AFF0E5082406F843
:1033D000769AE5082406F904F88D828E838FF01220
:1033E0003B34FD7F007E007C00A60508A60708A6EA
:1033F0000608A60489077E007D40C0017405C0E070
:10340000E4C0E0C007C006C005758200122609E5C9
:103410008124FBF581A8080888077E007D40C00054
:103420007405C0E0E4C0E0C007C006C005758200B6
:103430001226F5E58124FBF581D000D001870753E2
:10344000077F7E0086057C00EFB50510EEB5040C05
:103450000886060886078E828F83800390FFFF858B
:103460000881D00822C008E581F508240AF581AD5D
:1034700082AE83AFF0E50804F8769BA90809E90459
:10348000F88D828E838FF0123B34FD7F007E007CAE
:1034900000A60508A60708A60608A60489077E0058
:1034A0007D40C0017405C0E0E4C0E0C007C006C0B4
:1034B00005758200122609E58124FBF581E50824C3
:1034C00006F8FF7E007D40C0007405C0E0E4C0E067
:1034D000C007C006C0057582001226F5E58124FBF1
:1034E000F581D000D001870753077F7E0086057CD9
:1034F00000EFB50510EEB5040C0886060886078EA9
:10350000828F83800390FFFF850881D00822759009
:10351000FE9000641204777590FD900064120477A9
:103520007590FB9000641204777590F79000641218
:1035300004777590EF9000641204777590DF900027
:10354000641204777590BF90006412047775907FC1
:1035500090006412047722AF827E0074032FFC7403
:10356000FF3EC454F0CCC4CC6CCC54F0CC6CFD8C7D
:10357000828D837480F08F0474FF2EC454F0CCC409
:10358000CC6CCC54F0CC6CFD7BFF900032C007C0FB
:1035900006C005C004C003120477D003D004D005D0
:1035A000D006D0078C828D83EBF08B021BEA70DA99
:1035B00074012FFC74FF3EC454F0CCC4CC6CCC54CA
:1035C000F0CC6CFD7BFF900032C007C006C005C088
:1035D00004C003120477D003D004D005D006D0076E
:1035E0008C828D83EBF08B021BEA70DA74022FFF62
:1035F00074FF3EC454F0CFC4CF6FCF54F0CF6FFEF2
:103600007DFF900032C007C006C005120477D005C8
:10361000D006D0078F828E83EDF08D041DEC70E212
:1036200022AF82C007122580D0078F82C0071226E2
:103630007BAE82D007C007C0068F821225A91581F4
:10364000D00780E622AF82C007122580D007C007CE
:103650007437C0E0743EC0E07480C0E08F821225F1
:10366000BD158115811581D007C0077434C0E0E411
:10367000C0E07403C0E0743EC0E07480C0E08F829C
:10368000122609E58124FBF581D00780C12212258D
:103690008022AF82758200C007122580744BC0E083
:1036A000743EC0E07480C0E07582001225BD1581B3
:1036B00015811581D0078F82C0071200627455C032
:1036C000E0743EC0E07480C0E07582001225BD1534
:1036D0008115811581D007C0077401C0E0E4C0E006
:1036E000C0E0C0E0C0E0C0E0740BC0E07482C0E0A5
:1036F000E4C0E08F821200A7E58124F7F581745FB2
:10370000C0E0743EC0E07480C0E07582001225BD48
:10371000158115811581E4C0E07402C0E0740BC00E
:10372000E07482C0E0E4C0E0758200122609E58101
:1037300024FBF5817469C0E0743EC0E07480C0E091
:103740007582001225BD158115811581D007740180
:10375000C0E0E4C0E004C0E0E4C0E0C0E0C0E07469
:103760000BC0E07482C0E0E4C0E08F821200A7E5E5
:103770008124F7F581E4C0E07402C0E0740BC0E07E
:103780007482C0E0E4C0E0758200122609E581245D
:10379000FBF58122C00885810805810581758200BD
:1037A0001225807473C0E0743EC0E07480C0E07580
:1037B00082001225BD15811581158190840B75F04D
:1037C0000012184EEB601B747DC0E0743EC0E074C4
:1037D00080C0E07582001225BD158115811581021A
:1037E000390D7487C0E0743EC0E07480C0E075821B
:1037F000001225BD158115811581903E9175F080CF
:10380000121EA0AF828F03EB601B7497C0E0743E62
:10381000C0E07480C0E07582001225BD158115815D
:10382000158102390DC00374A1C0E0743EC0E0747C
:1038300080C0E07582001225BD158115811581D0EB
:1038400003AF080F8F047D007E40C007C003C00493
:10385000C005C006E4C0E07402C0E090820B75F0C1
:103860000012204CE58124FBF581D003D007EB60EA
:103870001B74ABC0E0743EC0E07480C0E075820091
:103880001225BD15811581158102390DC007C003B0
:1038900074B5C0E0743EC0E07480C0E07582001270
:1038A00025BD158115811581A8080886057E00C0F3
:1038B00005C006740BC0E07482C0E0E4C0E075820D
:1038C00000122609E58124FBF58174BFC0E0743E37
:1038D000C0E07480C0E07582001225BD158115819D
:1038E0001581D003D0077E007D40C003C007C0060D
:1038F000C005E4C0E07402C0E090820B75F00012D5
:10390000204CE58124FBF581D003EB600085088124
:10391000D00822C00885810805810581058112250E
:10392000807590D1E4C0E074C9C0E0743EC0E0741A
:1039300080C0E090845C75F000122765E58124FC6E
:10394000F581ED60067590D2023A6D7590D3E4C0B2
:10395000E07491C0E0743EC0E07480C0E090845D8B
:1039600075F00012287CAF82E58124FCF581EF60C0
:10397000067590D4023A6D7590D5E5082403FFFCD6
:103980007D007E40C007C004C005C006E4C0E074EE
:1039900002C0E0740BC0E07482C0E0E4C0E0908438
:1039A0005D75F000122A38AE82E58124F8F581D0E9
:1039B00007EE60067590D6023A6D7590D7E508243B
:1039C00003F886057E00C007C005C006740BC0E082
:1039D0007482C0E0E4C0E0758200122609E581240B
:1039E000FBF5817590D8740AC0E0E4C0E0C0E0C087
:1039F000E090845D75F000122C6CAE82E58124FCB1
:103A0000F581D0078E05ED7064FE7D40C007C006CD
:103A1000C005E4C0E07402C0E0740BC0E07482C072
:103A2000E0E4C0E090845D75F000122A38AF82E5D2
:103A30008124F8F581EF7035E5082402FF7E007DD2
:103A400040C007C006C005E4C0E07402C0E0740BCB
:103A5000C0E07482C0E0E4C0E090845D75F00012C4
:103A60002B58AF82E58124F8F581EF60008508814D
:033A7000D0082259
:103E03006162636465666768696A6B6C6D6E6F7027
:103E13007172737475767778797A41424344454673
:103E23004748494A4B4C4D4E4F50515253545556A7
:103E33005758595A73696F545853747220546573A1
:103E430074212121210D0A00636654657374310DB9
:103E53000A00636654657374320D0A006366546521
:103E63007374330D0A00636654657374340D0A006A
:103E730046415454657374310A0046415454657382
:103E830074320A0046415454657374330A00312E68
:103E93007478740046415454657374340A0046417F
:103EA3005454657374350A0046415454657374362B
:103EB3000A0046415454657374370A00464154540A
:093EC300657374380A00303A00FE
:06003500E478FFF6D8FD9F
:100013007902E94400601B7A01903ECC785F75A0B9
:1000230084E493F2A308B8000205A0D9F4DAF275C8
:02003300A0FF2C
:103A730020F71130F6138883A88220F509F6A8836E
:0B3A83007583002280FEF280F5F02227
:10003B007800E84400600A790075A080E4F309D8E1
:10004B00FC785FE84404600C7905908000E4F0A331
:04005B00D8FCD9FAFA
:103A8E00C008858108C082C083C0F0C0E07A007B88
:103A9E00007E007F007D20A80808080808E6235451
:103AAE0001FCA80808E625E0F608E633F608E6333A
:103ABE00F608E633F6EA2AFAEB33FBEE33FEEF3383
:103ACE00FFEC6003430201E50824FAF8C3EA96EB23
:103ADE000896EE0896EF0896401CE50824FAF8EAD8
:103AEE00C396FAEB0896FBEE0896FEEF0896FFA833
:103AFE000808E64401F6ED14FD709CA808088682BD
:103B0E000886830886F008E6850881D00822AA82F6
:103B1E00AB83123B346003A380F8C3E5829AF5822F
:063B2E00E5839BF58322F4
:0D000600758120123D15E5826003020003A4
:103B340020F71430F6148883A88220F507E6A883BA
:103B440075830022E280F7E49322E022C008858195
:103B540008C082C083C0F0C0E0E5812408F581E597
:103B6400082409F92402F8AF080F8F06C000A8063C
:103B74008606E50824FAFDFC0C0CA8048604D00093
:103B84008EF0ECA4F608A6F08F068E0086068D044F
:103B94008C0086048EF0ECA4F709A7F0E50824094C
:103BA4002403F987068F0474032CF886048D038B91
:103BB4000086038CF0EBA42EFEF78F0474022CF81D
:103BC40086048D03EB04F886038CF0EBA42EF7E552
:103BD4000824092402F98704098706198F0374024B
:103BE4002BF886038D028A0086028BF0EAA4ABF0E0
:103BF4002CFCEB3EFEA70409A706198F03EB04F87F
:103C040086038D02EA04F886028BF0EAA4ABF02C5A
:103C1400FCEB3EFEA70409A7068F0674032EF98F5A
:103C240006EE04F886068D0474022CF886048EF0E1
:103C3400ECA4F78F06EE04F98F06EE04F886068DE1
:103C4400048C0086048EF0ECA4F709A7F08D0674AA
:103C5400032EF98F068E0086068D0474032CF886D5
:103C6400048EF0ECA4F78D06EE04F98F068E008620
:103C7400068D04EC04F886048EF0ECA4F709A7F092
:103C84008D0177008F017700E5082409F9E5082400
:103C940005F8E7F609E708F609E708F609E708F67C
:103CA400191919A8080886020886030886060886D2
:103CB40007E5082405F8EA26F6EB0836F6EE08369A
:103CC400F6EF0836F6E5082405F8E6F70908E6F7FE
:103CD4000908E6F70908E6F7191919E709E709E7F2
:103CE40009E7E50824FAF886040886050886060824
:103CF4008607E5082405F8EC26FCED0836FDEE08F9
:103D040036FEEF08368C828D838EF0850881D008CC
:053D140022758200226F
:00000001FF
