:20007700E582904000F0E0FFE4C454F0CFC4CF6FCF54F0CF6FFE74212FFC74FF3EFD8C82DB
:200097008D837401F074272FFF74FF3EFE8F828E8374EFF0020018E582904001F0E0FF8F37
:2000B70005E4C454F0CDC4CD6DCD54F0CD6DFE74272DFD74FF3EFE8D828E83E0FE20E7DFCC
:2000D700020018E582904002F0E0FF8F05E4C454F0CDC4CD6DCD54F0CD6DFE74272DFD741A
:2000F700FF3EFE8D828E83E0FE5306C07D00BE40DABD00D7020018E582904003F0E0FF8FFC
:2001170005E4C454F0CDC4CD6DCD54F0CD6DFE74272DFD74FF3EFE8D828E83E0FE53068870
:200137007D00BE08DABD00D7020018E582904009F07590E1E0FFF582C00778AE79007A0091
:20015700120006D0077590E28F05E4CDC4CD6DCD54F0CD6DFE74222DFB74FF3EFC8B828C22
:20017700837401F07590E38F82C007C006C00578AE79007A00120006D005D006D00775907D
:20019700E474232DFB74FF3EFC8B828C83E4F07590E58F82C007C006C00578AE79007A00A2
:2001B700120006D005D006D0077590E674242DFB74FF3EFC8B828C83E4F07590E78F82C089
:2001D70007C006C00578AE79007A00120006D005D006D0077590E874252DFB74FF3EFC8BDD
:2001F700828C83E4F07590E98F82C007C006C00578AE79007A00120006D005D006D007750A
:2002170090EA74262DFD74FF3EFE8D828E8374E0F07590EB8F82C00778DA79007A00120057
:2002370006D0077590EC8F05E4CDC4CD6DCD54F0CD6DFE74272DFD74FF3EFE8D828E837445
:2002570020F07590ED8F82C007C006C005780E79017A00120006D005D006D0077590EE8D8E
:20027700828E83E07590EF20E0A7904009E0FF904004E0FCA3E0FDA3E0FEE4F508F509A869
:2002970008A9090508E4B50802050974FE29405F7590F08F82C007C006C005C004780E797A
:2002B700017A00120006D004D005D006D0077590F1E5082CF8E5093DF98E03C004C005C039
:2002D700068F02E4CAC4CA6ACA54F0CA6AFE74202AFA74FF3EFE8A828E83E0888289838B85
:2002F700F01208587590F2D006D005D00480907590F3020018E58290400DF07590C2E0FF13
:20031700F582C007787779007A00120006D0077590C390400AE0FCA3E0FDA3E0FE90400464
:20033700ECF0EDA3F0EEA3F09040077401F0E4A3F08F82784279017A001200067590C40274
:0203570000188C
:20035900C006C007AE83AF82DFFEDEFAD007D006020018C004C005C006C007AC83AD827E27
:160379000A7F64DFFEDEFADDF6DCF2D007D006D005D004020018BB
:20038F007590FE9001F4786C79037A001200067590FD9001F4786C79037A00120006759056
:2003AF00FB9001F4786C79037A001200067590F79001F4786C79037A001200067590EF90C5
:2003CF0001F4786C79037A001200067590DF9001F4786C79037A001200067590BF9001F483
:1B03EF00786C79037A0012000675907F9001F4786C79037A00120006020018EC
:0300000002001BE0
:0300740002000384
:0300030002040AEA
:20040A00759001900000E493FE7F00900000E0FC7D007A007B408A008B011ABAFF011BE83D
:20042A004960198E828F83E493F9A3AE82AF838C828D83E9F0A3AC82AD8380DA7590029070
:20044A00FF70E4F0759003788F79037A001200067590047590057590067590107590117574
:20046A009012759013758200789479057A0012000690400A740EF07440A3F0E4A3F07582A4
:20048A0000780C79037A00120006904214740EF07440A3F0E4A3F0904217F07402A3F07553
:1104AA008200782379067A0012000675908102001873
:2004BB00E58290420EF0E0FF7E0074032FFC74FF3EC454F0CCC4CC6CCC54F0CC6CFD8C8217
:2004DB008D837480F074FF2EC454F0CFC4CF6FCF54F0CF6FFE7DFF9001F4C007C006C005F1
:2004FB00786C79037A00120006D005D006D0078F828E83EDF08D041DEC70DC90420EE0FFC9
:20051B007EFF9001F4C007C006786C79037A00120006D006D0078F047D0074012CFA74FF74
:20053B003DC454F0CAC4CA6ACA54F0CA6AFB8A828B83EEF08E031EEB70C874022CFC74FF81
:20055B003D8C06C454F0CEC4CE6ECE54F0CE6EFF7DFF9001F4C007C006C005786C79037A61
:19057B0000120006D005D006D0078E828F83EDF08D041DEC70DC020018CE
:20059400759850AE8953060F7F004306218E89758780758DFA758BFAD28E02001875980052
:2005B40053890F53877FC28E0200183099FD020018C29990420FE0F5993099FD020018E52A
:2005D40082904213F0E0FF904210E0FCA3E0FDA3E0FE8C828D838EF012087390420FF08F89
:2005F40082C007C006C005C00478C579057A00120006D004D005D006D0078C828D838EF010
:20061400120873FBA3AC82AD83EB70C6020018E582904219F0E0FF904214E0FCA3E0FDA3FC
:20063400E0FEE4F50CF50D904217E0F8A3E0F98802890318B8FF0119EA4B604EC000C00141
:20065400AA0CAB0D050CE4B50C02050DEA2CFAEB3DF98E038A8289838BF012087390420F8B
:20067400F08F82C007C006C005C004C001C00078C579057A00120006D000D001D004D00537
:20069400D006D007D001D00080A50200183098FD0200183098FDAF99C2988F82020018E563
:2006B4008290421FF090421AE0FDA3E0FEA3E0FF90421FE0FCE4F50EF50F90421DE0F8A3D5
:2006D400E0F98802890318B8FF0119EA4B6051C000C001AA0EAB0F050EE4B50E02050FEA9B
:2006F4002DFAEB3EF98F038C82C007C006C005C004C003C002C00178A779067A0012000671
:20071400A882D001D002D003D004D005D006D0078A8289838BF0E8120858D001D00070A22F
:20073400020018E582904225F0904220E0FDA3E0FEA3E0FF904225E0FCE4F510F5119042D7
:2007540023E0F8A3E0F98802890318B8FF0119EA4B6051C000C001AA10AB110510E4B51074
:20077400020511EA2DFAEB3EF98F038C82C007C006C005C004C003C002C00178A779067A06
:2007940000120006A882D001D002D003D004D005D006D0078A8289838BF0E8120858D00179
:2007B400D00080A2020018E582904226F0E0FFF582C007789479057A00120006D0078F82A9
:2007D400C00778A779067A00120006AE82D00790420FEEF08F82C00778C579057A00120029
:2007F40006D00780D9E582904227F0E0FFF582C007789479057A00120006D00790421074F9
:20081400C7F07408A3F07480A3F08F82C00778D379057A00120006D0079042147493F0741C
:2008340008A3F07480A3F09042177434F0E4A3F08F82C007782379067A00120006D00780AF
:04085400BB020018CB
:200893006162636465666768696A6B6C6D6E6F707172737475767778797A41424344454691
:2008B3004748494A4B4C4D4E4F505152535455565758595A4675636B20796F75206E6F7761
:0708D300212121210D0A0083
:06004A00E478FFF6D8FD8A
:15000600C000C8C0E0E9C0E0EA540F5300F04200C822D0002286
:200028007900E94400601B7A009008DA782975A042E493F2A308B8000205A0D9F4DAF27532
:02004800A0FF17
:1B08580020F71130F6138883A88220F509F6A8837583002280FEF280F5F0229F
:200050007800E84400600A790075A040E4F309D8FC7829E84402600C7903904000E4F0A302
:04007000D8FCD9FAE5
:0D001B0075811112088FE582600302000359
:1C08730020F71430F6148883A88220F507E6A88375830022E280F7E49322E02294
:04088F00758200224C
:00000001FF
